:020000040000FA
:0600000059EF01F01200AF
:0A0006000100CE0200000A0F000006
:040010000A000000E2
:020014001200D8
:060018009AEF00F0120057
:02001E00D9CF38
:10002000E6FFE1CFD9FFB886FD0EDB50AF6EAC84A2
:10003000AC98AB8E949C948EAD6AE552E7CFD9FF15
:100040001200B898AC8AAD6A1200D08E9F9A9D8A31
:10005000F28EF28CAB889E9AAE6A1200D9CFE6FF80
:10006000E1CFD9FFACA2FED7FE0EDB50AD6EE5525C
:10007000E7CFD9FF1200D9CFE6FFE1CFD9FFFD0EC0
:10008000DBCFE9FFFE0EDBCFEAFFEF5010E0FD0E05
:10009000DBCFE9FFFE0EDBCFEAFFEF50E66EDEDFDF
:1000A000E552FD0EDB2AFE0EEAE3DB2AE8D7E55235
:1000B000E7CFD9FF12009DAAFED7AE501200D9CFCC
:1000C000E6FFE1CFD9FFF7DFE66EFD0EDBCFE9FFFC
:1000D000FE0EDBCFEAFFE552E750EF6EFD0EDBCF01
:1000E000E9FFFE0EDBCFEAFFEF5006E0FD0EDB2A54
:1000F000FE0EE9E3DB2AE7D7E552E7CFD9FF12008E
:10010000D388D38AD39C1200FBDF190EE66EE66A11
:1001100086DFE552E55295DF98DF0A0EE66E0F0E98
:10012000E66EA9DFE552E5520A0EE66E39EC01F003
:10013000E552FFD7DACFE4FFE2CFDAFFE9CFE4FF01
:10014000EACFE4FFF6CFE4FFF7CFE4FFF5CFE4FF1B
:10015000F3CFE4FFF4CFE4FFFACFE4FF00EE00F0CA
:10016000020EE80403E3EECFE4FFFBD700EE03F05A
:10017000000EE80403E3EECFE4FFFBD7E652AECF78
:1001800014FF14CFE6FF6ADFE5529E9AE55200EEB7
:1001900002F0000EE80403E3E5CFEDFFFBD700EE2D
:1001A00001F0020EE80403E3E5CFEDFFFBD7E5CF56
:1001B000FAFFE5CFF4FFE5CFF3FFE5CFF5FFE5CF9D
:1001C000F7FFE5CFF6FFE5CFEAFFE5CFE9FFE5CFA3
:0401D000DAFF110041
:0C01D400060EF66E000EF76E000EF86EC0
:1001E0000F010900F550056F0900F550066F03E196
:1001F000056701D03DD00900F550006F0900F550AA
:10020000016F0900F550026F09000900F550E96E11
:100210000900F550EA6E090009000900F550036F66
:100220000900F550046F09000900F6CF07FFF7CF6A
:1002300008FFF8CF09FF00CFF6FF01CFF7FF02CF8D
:10024000F8FF0F01035302E1045307E00900F550E2
:10025000EE6E0307F8E20407F9D707CFF6FF08CFE1
:10026000F7FF09CFF8FF0F010507000E065BBFD7A8
:0202700012007A
:0E027200FF0EE350026E480E01D04C0EE76EF8
:10028000E72EFED7E76AE72EFED7022EF7D700004B
:0202900012005A
:0E029200600EF36E00EE00F00F0E01D81200A9
:1002A000EA6002D0EE6AFCD7F350E9601200EE6A11
:0202B000FCD779
:0E02B2001EEE00F02EEE00F0F86A019CEAEC61
:0E02C00000F00AEC00F084EC00F0FBD7120016
:0202CE00436883
:0802D00075204B68616E6800A7
:020000040030CA
:0100010008F6
:010002001FDE
:010003001EDE
:0100050001F9
:010006008178
:010008000FE8
:01000900C036
:01000A000FE6
:01000B00E014
:01000C000FE4
:00000001FF
