:020000040000FA
:060000009CEF0FF012005E
:020006001200E6
:06001800D0EF0DF0120014
:02001E000200DE
:10002000B61F0000900000002C000000861F00009A
:08003000600000003000000038
:080038000000000000000000C0
:100040001200080EE66EB8EC0FF0E552000000005A
:1000500012000B0EE66EE66A5AEC05F0E552E55228
:10006000060EE66E020EE66E5AEC05F0E552E5521B
:10007000E668060EE66E5AEC05F0E552E552040E0F
:10008000E66E070EE66E5AEC05F0E552E552050EF7
:10009000E66E080EE66E5AEC05F0E552E552020EE9
:1000A000E66E090EE66E5AEC05F0E552E552E66A98
:1000B0000A0EE66E5AEC05F0E552E5520B0EE66EBE
:1000C000E66E5AEC05F0E552E552E66A0C0EE66E75
:1000D0005AEC05F0E552E552100EE66E0D0EE66E96
:1000E0005AEC05F0E552E552A70EE66E0E0EE66EEE
:1000F0005AEC05F0E552E552620EE66E0F0EE66E22
:100100005AEC05F0E552E5522D0EE66E100EE66E45
:100110005AEC05F0E552E5523B0EE66E110EE66E26
:100120005AEC05F0E552E552730EE66E120EE66EDD
:100130005AEC05F0E552E552220EE66E130EE66E1D
:100140005AEC05F0E552E552F80EE66E140EE66E36
:100150005AEC05F0E552E552E66A150EE66E5AECE9
:1001600005F0E552E5523F0EE66E170EE66E5AECCC
:1001700005F0E552E552180EE66EE66E5AEC05F013
:10018000E552E5521D0EE66E190EE66E5AEC05F0CC
:10019000E552E5521C0EE66E1A0EE66E5AEC05F0BC
:1001A000E552E552C70EE66E1B0EE66E5AEC05F000
:1001B000E552E552E66A1C0EE66E5AEC05F0E55291
:1001C000E552B20EE66E1D0EE66E5AEC05F0E552F3
:1001D000E552B60EE66E210EE66E5AEC05F0E552DB
:1001E000E552100EE66E220EE66E5AEC05F0E55270
:1001F000E552EA0EE66E230EE66E5AEC05F0E55285
:10020000E5520A0EE66E240EE66E5AEC05F0E55253
:10021000E552E66A250EE66E5AEC05F0E552E55227
:10022000110EE66E260EE66E5AEC05F0E552E5522A
:10023000590EE66E290EE66E5AEC05F0E552E552CF
:10024000880EE66E2C0EE66E5AEC05F0E552E5528D
:10025000310EE66E2D0EE66E5AEC05F0E552E552D3
:100260000B0EE66E2E0EE66E5AEC05F0E552E552E8
:100270001200290EE66EE66A5AEC05F0E552E552E8
:10028000060EE66E020EE66E5AEC05F0E552E552F9
:10029000E668060EE66E5AEC05F0E552E552040EED
:1002A000E66E070EE66E5AEC05F0E552E552050ED5
:1002B000E66E080EE66E5AEC05F0E552E552E66A87
:1002C000090EE66E5AEC05F0E552E552E66A0A0EB2
:1002D000E66EF0DBE552E552060EE66E0B0EE66EBC
:1002E000E9DBE552E552E66A0C0EE66EE3DBE55229
:1002F000E552100EE66E0D0EE66EDCDBE552E552C1
:10030000A70EE66E0E0EE66ED5DBE552E552620EE6
:10031000E66E0F0EE66ECEDBE552E552F80EE66EA7
:10032000100EE66EC7DBE552E552830EE66E110E47
:10033000E66EC0DBE552E552430EE66E120EE66E47
:10034000B9DBE552E552220EE66E130EE66EB2DB25
:10035000E552E552F80EE66E140EE66EABDBE552A2
:10036000E552150EE66EE66EA5DBE552E552300E5F
:10037000E66E170EE66E9EDBE552E552180EE66E4F
:10038000E66E98DBE552E552160EE66E190EE66E45
:1003900091DBE552E5526C0EE66E1A0EE66E8ADBD4
:1003A000E552E552030EE66E1B0EE66E83DBE55268
:1003B000E552400EE66E1C0EE66E7CDBE552E55221
:1003C000910EE66E1D0EE66E75DBE552E552560E99
:1003D000E66E210EE66E6EDBE552E552100EE66E1D
:1003E000220EE66E67DBE552E552E90EE66E230E5D
:1003F000E66E60DBE552E5522A0EE66E240EE66EEE
:1004000059DBE552E552E66A250EE66E53DBE5520E
:10041000E5521F0EE66E260EE66E4CDBE552E55207
:10042000590EE66E290EE66E45DBE552E552810E69
:10043000E66E2C0EE66E3EDBE552E552350EE66EBC
:100440002D0EE66E37DBE552E552090EE66E2E0EF6
:10045000E66E30DBE552E5521200899AEDDD82B896
:10046000FED7300EE66E0DEC0FF0E552E5DD898A21
:100470001200898A00000000899A00000000898A21
:10048000E0DDEBDF1200D9CFE6FFE1CFD9FFE65286
:10049000010EE66EB8EC0FF0E552899ACDDD82B818
:1004A000FED7FE0EDBCFE6FF0DEC0FF0E552DF6E60
:1004B000C3DD898ADF50E552E552E7CFD9FF12004C
:1004C000D9CFE6FFE1CFD9FFE652010EE66EB8ECD8
:1004D0000FF0E552899AB0DD82B8FED7FE0EDB50F0
:1004E000C009E66E0DEC0FF0E5522CEC0FF0DF6E5C
:1004F000A3DD898ADF50E552E552E7CFD9FF12002C
:10050000D9CFE6FFE1CFD9FF2F0EE66EFD0EDBCF90
:10051000E6FFFE0EDBCFE6FFE66AEDDAE552E552D6
:10052000E552E552E552E7CFD9FF1200D9CFE6FFF9
:10053000E1CFD9FFFD0EDBCFE9FFFE0EDBCFEAFFF7
:10054000EF50E66E0B0EE66EB5DAE552E552FD0EA3
:10055000DBCFE9FFFE0EDBCFEAFF020EE926000E3D
:10056000EA22EF50E66E0C0EE66EA4DAE552E55292
:10057000FD0EDBCFE9FFFE0EDBCFEAFF030EE9261F
:10058000000EEA22EF50E66E0D0EE66E93DAE552AB
:10059000E552FD0EDBCFE9FFFE0EDBCFEAFF040ED6
:1005A000E926000EEA22EF50E66E0E0EE66E82DAC3
:1005B000E552E552FD0EDBCFE9FFFE0EDBCFEAFF91
:1005C000050EE926000EEA22EF50E66E0F0EE66EEB
:1005D00071DAE552E552FD0EDBCFE9FFFE0EDBCF0F
:1005E000EAFF060EE926000EEA22EF50E66E100E34
:1005F000E66E60DAE552E552FD0EDBCFE9FFFE0E56
:10060000DBCFEAFF070EE926000EEA22EF50E66E86
:10061000110EE66E4FDAE552E552FD0EDBCFE9FF33
:10062000FE0EDBCFEAFF080EE926000EEA22EF50AD
:10063000E66E120EE66E3EDAE552E552FD0EDBCFB7
:10064000E9FFFE0EDBCFEAFF090EE926000EEA22E3
:10065000EF50E66E130EE66E2DDAE552E552FD0E12
:10066000DBCFE9FFFE0EDBCFEAFF0A0EE926000E24
:10067000EA22EF50E66E140EE66E1CDAE552E55201
:10068000FD0EDBCFE9FFFE0EDBCFEAFF0B0EE92606
:10069000000EEA22EF50E66E0A0EE66E0BDAE55225
:1006A000E552FD0EDBCFE9FFFE0EDBCFEAFF0C0EBD
:1006B000E926000EEA22EF50E66E150EE66EFAD934
:1006C000E552E552FD0EDBCFE9FFFE0EDBCFEAFF80
:1006D0000D0EE926000EEA22EF50E66E210EE66EC0
:1006E000E9D9E552E552FD0EDBCFE9FFFE0EDBCF87
:1006F000EAFF0E0EE926000EEA22EF50E66E220E09
:10070000E66ED8D9E552E552FD0EDBCFE9FFFE0ECD
:10071000DBCFEAFF0F0EE926000EEA22EF50E66E6D
:10072000180EE66EC7D9E552E552FD0EDBCFE9FFA4
:10073000FE0EDBCFEAFF100EE926000EEA22EF5094
:10074000E66E190EE66EB6D9E552E552FD0EDBCF28
:10075000E9FFFE0EDBCFEAFF110EE926000EEA22CA
:10076000EF50E66E1A0EE66EA5D9E552E552FD0E83
:10077000DBCFE9FFFE0EDBCFEAFF120EE926000E0B
:10078000EA22EF50E66E1B0EE66E94D9E552E55272
:10079000FD0EDBCFE9FFFE0EDBCFEAFF130EE926ED
:1007A000000EEA22EF50E66E1C0EE66E83D9E5528B
:1007B000E552FD0EDBCFE9FFFE0EDBCFEAFF140EA4
:1007C000E926000EEA22EF50E66E1D0EE66E72D9A3
:1007D000E552E552FD0EDBCFE9FFFE0EDBCFEAFF6F
:1007E000150EE926000EEA22EF50E66E230EE66EA5
:1007F00061D9E552E552FD0EDBCFE9FFFE0EDBCFFE
:10080000EAFF160EE926000EEA22EF50E66E240EED
:10081000E66E50D9E552E552FD0EDBCFE9FFFE0E44
:10082000DBCFEAFF170EE926000EEA22EF50E66E54
:10083000250EE66E3FD9E552E552FD0EDBCFE9FF0E
:10084000FE0EDBCFEAFF180EE926000EEA22EF507B
:10085000E66E260EE66E2ED9E552E552FD0EDBCF92
:10086000E9FFFE0EDBCFEAFF190EE926000EEA22B1
:10087000EF50E66E290EE66E1DD9E552E552FD0EEB
:10088000DBCFE9FFFE0EDBCFEAFF1A0EE926000EF2
:10089000EA22EF50E66E2C0EE66E0CD9E552E552D8
:1008A000FD0EDBCFE9FFFE0EDBCFEAFF1B0EE926D4
:1008B000000EEA22EF50E66E2D0EE66EFBD8E552F2
:1008C000E552FD0EDBCFE9FFFE0EDBCFEAFF1C0E8B
:1008D000E926000EEA22EF50E66E2E0EE66EEAD80A
:1008E000E552E552FD0EDBCFE9FFFE0EDBCFEAFF5E
:1008F0001D0EE926000EEA22EF50E66E030EE66EAC
:10090000D9D8E552E552FD0EDBCFE9FFFE0EDBCF75
:10091000EAFF1E0EE926000EEA22EF50E66EE66AB6
:10092000C9D8E552E552FD0EDBCFE9FFFE0EDBCF65
:10093000EAFFEE52EF50E66E020EE66EBBD8E552CD
:10094000E552FD0EDBCFE9FFFE0EDBCFEAFF1F0E07
:10095000E926000EEA22EF50E66E070EE66EAAD8F0
:10096000E552E552FD0EDBCFE9FFFE0EDBCFEAFFDD
:10097000200EE926000EEA22EF50E66E080EE66E23
:1009800099D8E552E552FD0EDBCFE9FFFE0EDBCF35
:10099000EAFF210EE926000EEA22EF50E66E090E6C
:1009A000E66E88D8E552E552FD0EDBCFE9FFFE0E7C
:1009B000DBCFEAFF220EE926000EEA22EF50E66EB8
:1009C000060EE66E77D8E552E552FD0EDBCFE9FF65
:1009D000FE0EDBCFEAFF230EE926000EEA22EF50DF
:1009E000E66E170EE66E66D8E552E55272D9E5520C
:1009F000E7CFD9FF1200D9CFE6FFE1CFD9FFE6520A
:100A0000010EE66EB8EC0FF0E552899A1CEC00F08E
:100A100082B8FED7FE0EDB50C009E66E0DEC0FF07B
:100A2000E5521CEC00F02CEC0FF0DF6E1CEC00F03B
:100A3000898ADF50E552E552E7CFD9FF1200D9CFBE
:100A4000E6FFE1CFD9FFE6520A0EE66EB8EC0FF0F2
:100A5000E552899A1CEC00F082B8FED7FE0EDB50FE
:100A6000C009E66E0DEC0FF0E5521CEC00F0DF6AF9
:100A7000FB0EDB50DF5C16E22CEC0FF0E66EDF5075
:100A8000E76EFC0EDBCFE9FFFD0EDBCFEAFFE750A0
:100A9000E926000EEA22E552E750EF6E1CEC00F06A
:100AA000DF2AE6D71CEC00F0898AE552E552E7CF51
:100AB000D9FF1200D9CFE6FFE1CFD9FF010EE66ED4
:100AC000B8EC0FF0E552899A1CEC00F082B8FED722
:100AD000FE0EDBCFE6FF0DEC0FF0E552FD0EDBCF97
:100AE000E6FF0DEC0FF0E5521CEC00F0898AE552B0
:100AF000E7CFD9FF1200D9CFE6FFE1CFD9FFE65209
:100B0000010EE66EB8EC0FF0E552899A1CEC00F08D
:100B100082B8FED7FE0EDB504009E66E0DEC0FF0FA
:100B2000E552DF6AFB0EDB50DF5C13E2DF50E76E5D
:100B3000FC0EDBCFE9FFFD0EDBCFEAFFE750E92635
:100B4000000EEA22EF50E66E0DEC0FF0E552DF2AC0
:100B5000E9D7898AE552E552E7CFD9FF1200D9CF0C
:100B6000E6FFE1CFD9FFE6520F013F51146E156A3F
:100B7000D890155004E6800E145C000E15580DE355
:100B80003F51146E156AFF0ED8801456000E15568C
:100B90001450DF6EDF90DF4204D03F51FE0BE8427D
:100BA000DF6E4A0EDF26DF50E552E552E7CFD9FF70
:100BB0001200D9CFE6FFE1CFD9FFE6523F0E146E07
:100BC0000F014015145CDF6EDF50E552E552E7CFB0
:100BD000D9FF1200D9CFE6FFE1CFD9FFE652340E9C
:100BE000E66E51DCE5523B0EE66E6ADCE552DF6EE6
:100BF000DFAE08D0360EE66E46DCE5523A0EE66E03
:100C000042DCE5527F0EDF1402E0000E01D0010E3F
:100C1000E552E552E7CFD9FF1200D9CFE6FFE1CF89
:100C2000D9FFE652350EE66E2EDCE5523A0EE66E40
:100C300047DCE552DF6EDFAE08D0360EE66E23DC11
:100C4000E5523B0EE66E1FDCE5527F0EDF1402E03C
:100C5000000E01D0010EE552E552E7CFD9FF120098
:100C60003D0EE66E10DCE5521200D9CFE6FFE1CF73
:100C7000D9FFE652010EE66EB8EC0FF0E552899A04
:100C80001CEC00F082B8FED7F00EE66E0DEC0FF013
:100C9000E552DF6E1CEC00F0898ADF50E552E55228
:100CA000E7CFD9FF1200360EE66E43EC02F0E552B4
:100CB0003A0EE66E43EC02F0E5521200360EE66E96
:100CC00043EC02F0E5523B0EE66E43EC02F0E552D7
:100CD0001200360EE66E43EC02F0E552340EE66E7C
:100CE00043EC02F0E552120039EC02F0000029EC6E
:100CF00000F0B4C0E6FF3E0EE66EDCDEE552E552E3
:100D00001200D9CFE6FFE1CFD9FF030EE126340E62
:100D1000E66E43EC02F0E5523B0EE66E60EC02F04C
:100D2000E552E76E020EE7CFDBFFDB507F0B4EE0B4
:100D30003F0EE66E60DEE552E76E020EE7CFDBFFA8
:100D4000DBCF14F0FB0EDBCFE9FFFC0EDBCFEAFFBD
:100D5000EF50D88014542EE3020EDBCFE6FFFD0ED9
:100D6000DBCFE6FFFE0EDBCFE6FF3F0EE66E67DE73
:100D7000E552E552E552E552FB0EDBCFE9FFFC0EF2
:100D8000DBCFEAFF020EDBCFEFFFE66ED9CFE6FF47
:100D9000DACFE6FF3F0EE66E52DEE552E552E5524F
:100DA000E552DFCF3FFF010EDBCF40FFDBBE0FD0B0
:100DB0007ADF0CD0FB0EDBCFE9FFFC0EDBCFEAFFC6
:100DC000020EDBCFEFFF6FDF000E01D0000E146EBE
:100DD000030EE15C02E2E16AE552E16E1450E55275
:100DE000E7CFD9FF1200D9CFE6FFE1CFD9FF410EFF
:100DF000E126010EDF6EFD0EDBCFE9FFFE0EDBCF3D
:100E0000EAFFEF501CE0FD0EDBCFE9FFDB2AFE0E10
:100E1000DBCFEAFF01E3DB2AEF50E66ED950010F8A
:100E2000146EDACF15F0DF50DF2A0F011424E96EBB
:100E3000000EDA20EA6EE552E750EF6EDCD7DF04F1
:100E4000E76E010EE7CFDBFFDFCFE6FFD950010FE2
:100E5000E66E000EDA20E66E3F0EE66E4CDEE552E0
:100E6000E552E552E552360EE66E43EC02F0E552ED
:100E7000350EE66E43EC02F0E55280A8FED780B84E
:100E8000FED71CDF410EE15C02E2E16AE552E16E51
:100E9000E552E7CFD9FF1200D9CFE6FFE1CFD9FF66
:100EA000E652FC0EDB50DF6EDF5000081FE2DF046D
:100EB000E76EFD0EDBCFE9FFFE0EDBCFEAFFE7506A
:100EC000E926000EEA22EF50E66EDF50E76EFD0ED7
:100ED000DBCFE9FFFE0EDBCFEAFFE750E926000E8D
:100EE000EA22E552E750EF6EDF06DED7FD0EDBCFDC
:100EF000E9FFFE0EDBCFEAFFFC0EDBCFEFFFDB28C6
:100F0000E66EFD0EDBCFE6FFFE0EDBCFE6FF3F0E0B
:100F1000E66EF1DDE552E552E552E552360EE66E3B
:100F200043EC02F0E552350EE66E43EC02F0E5527A
:100F300080A8FED780B8FED7C1DEE552E552E7CFE4
:040F4000D9FF1200C3
:0C0F44009290929292949398939A939CAE
:100F5000939E1200020EE66E49D8E552010EE66E2F
:100F60007CEC0FF0E552280EE66E40D8E552010EFB
:100F7000E66E7CEC0FF0E5520C0EE66E37D8E552CB
:100F8000010EE66E7CEC0FF0E552060EE66E2ED8F2
:100F9000E552010EE66E7CEC0FF0E552010EE66EB6
:100FA0007CEC0FF0E5521200D9CFE6FFE1CFD9FF7C
:100FB000020EE1268984DE6ADD6ADECF14F0DDCF21
:100FC00015F0020E145C000E155805E2DF2A010E22
:100FD000F4E3DB2AF2D78994020EE15C02E2E16AD3
:100FE000E552E16EE552E7CFD9FF1200D9CFE6FF17
:100FF000E1CFD9FF020EE12689928990FE0EDB38FF
:101000000F0BDE6EDD6ADECF14F0DDCF15F0010EC2
:101010001414E8B08A88E8A08A98DECF14F0DDCFF7
:1010200015F0020E1416000E1516D8901532143253
:101030001450E8B08A8AE8A08A9ADECF14F0DDCF97
:1010400015F0040E1416000E1516D8901532143231
:10105000D890153214321450E8B08A8CE8A08A9CDB
:10106000DECF14F0DDCF15F0080E1416000E1516A5
:10107000030ED89015321432E804FBE11450E8B0A6
:101080008A8EE8A08A9E90DFFE0EDB500F0BDE6E8C
:10109000DD6ADECF14F0DDCF15F0010E1414E8B0D8
:1010A0008A88E8A08A98DECF14F0DDCF15F0020E12
:1010B0001416000E1516D890153214321450E8B0DC
:1010C0008A8AE8A08A9ADECF14F0DDCF15F0040EEC
:1010D0001416000E1516D89015321432D890153209
:1010E00014321450E8B08A8CE8A08A9CDECF14F049
:1010F000DDCF15F0080E1416000E1516030ED8904D
:1011000015321432E804FBE11450E8B08A8EE8A0EE
:101110008A9E4ADF050EE66E7CEC0FF0E552020E69
:10112000E15C02E2E16AE552E16EE552E7CFD9FF08
:101130001200D9CFE6FFE1CFD9FF020EE126899256
:101140008980FE0EDB380F0BDE6EDD6ADECF14F019
:10115000DDCF15F0010E1414E8B08A88E8A08A9853
:10116000DECF14F0DDCF15F0020E1416000E1516AA
:10117000D890153214321450E8B08A8AE8A08A9ABE
:10118000DECF14F0DDCF15F0040E1416000E151688
:10119000D89015321432D890153214321450E8B069
:1011A0008A8CE8A08A9CDECF14F0DDCF15F0080E03
:1011B0001416000E1516030ED89015321432E804DA
:1011C000FBE11450E8B08A8EE8A08A9EEDDEFE0EA8
:1011D000DB500F0BDE6EDD6ADECF14F0DDCF15F0D5
:1011E000010E1414E8B08A88E8A08A98DECF14F0C3
:1011F000DDCF15F0020E1416000E1516D89015321C
:1012000014321450E8B08A8AE8A08A9ADECF14F02B
:10121000DDCF15F0040E1416000E1516D8901532F9
:101220001432D890153214321450E8B08A8CE8A0E9
:101230008A9CDECF14F0DDCF15F0080E1416000ED8
:101240001516030ED89015321432E804FBE1145041
:10125000E8B08A8EE8A08A9EA7DE050EE66E7CECDA
:101260000FF0E552020EE15C02E2E16AE552E16E46
:10127000E552E7CFD9FF1200010EE66EB7DEE55268
:101280001200D9CFE6FFE1CFD9FFFE0EDBCFE6FF9C
:1012900050DFE552E552E7CFD9FF1200D9CFE6FF84
:1012A000E1CFD9FFFD0EDBCFE9FFFE0EDBCFEAFF7A
:1012B000EF5015E0FD0EDBCFE9FFFE0EDBCFEAFFBE
:1012C000EF50E66E36DFE552FD0EDB2AFE0E01E33F
:1012D000DB2A020EE66E7CEC0FF0E552E3D7E55216
:1012E000E7CFD9FF1200D9CFE6FFE1CFD9FF020E39
:1012F000E126D950FB0FE96EFF0EDA20EA6E010EEF
:10130000EE1801E1ED5003E0400EDE6E01D0DE6A22
:10131000DD6AFD0EDBCF14F0FE0EDBCF15F01406F8
:10132000000E155AD9CFE9FFDACFEAFF1450EE26A6
:101330001550ED22DECF14F0DDCF15F0800E141025
:10134000E66E54DEE552020EE66E7CEC0FF0E552DE
:10135000020EE15C02E2E16AE552E16EE552E7CF9E
:10136000D9FF1200D9CFE6FFE1CFD9FF080EE12661
:10137000E80E146E030E156EFD0EDBCF08F0FE0EA8
:10138000DBCF09F014C00DF015C00EF066EC0FF0C5
:10139000060E08C0DBFF070E09C0DBFFFD0EDBCF2A
:1013A00014F0FE0EDBCF15F0E80E0D6E030E0E6E80
:1013B00014C008F015C009F066EC0FF004C014F07A
:1013C00005C015F0640E0D6E0E6A04C008F005C06D
:1013D00009F066EC0FF008C014F009C015F0040E17
:1013E00008C0DBFF050E09C0DBFFFD0EDBCF14F0EC
:1013F000FE0EDBCF15F0E80E0D6E030E0E6E14C060
:1014000008F015C009F066EC0FF004C014F005C038
:1014100015F0640E0D6E0E6A04C008F005C009F0E8
:1014200066EC0FF004C014F005C015F00A0E0D6E46
:101430000E6A04C008F005C009F066EC0FF008C0A1
:1014400014F009C015F0020E08C0DBFF030E09C03E
:10145000DBFFFD0EDBCF14F0FE0EDBCF15F0E80E48
:101460000D6E030E0E6E14C008F015C009F066EC88
:101470000FF004C014F005C015F0640E0D6E0E6A76
:1014800004C008F005C009F066EC0FF004C014F0C9
:1014900005C015F00A0E0D6E0E6A04C008F005C0F6
:1014A00009F066EC0FF004C014F005C015F004C09C
:1014B000DEFF05C0DDFF060EDBCF14F0070EDBCF2D
:1014C00015F0300E1424E66E34DEE552040EDBCF48
:1014D00014F0050EDBCF15F0300E1424E66E29DE75
:1014E000E552020EDBCF14F0030EDBCF15F0300E09
:1014F0001424E66E1EDEE552DECF14F0DDCF15F0CB
:10150000300E1424E66E15DEE552080EE15C02E2B0
:10151000E16AE552E16EE552E7CFD9FF1200D9CF7B
:10152000E6FFE1CFD9FF020EE1260A0E146E0E6E21
:10153000FE0EDBCF09F04BEC0CF00950DF6EFE0E17
:10154000DBCF14F014C009F00A0E0E6E4BEC0CF059
:10155000010E05C0DBFFDFCF14F0E76E1418E8AE14
:1015600002D0E73402D0E750145C05E3300EDF24EC
:10157000E66EDFDDE552010EDB50300FE66ED9DDA1
:10158000E552020EE15C02E2E16AE552E16EE552EB
:10159000E7CFD9FF1200D9CFE6FFE1CFD9FF0C0E7C
:1015A000E126D9CFE9FFDACFEAFF2E0EEE6EEE6A22
:1015B000FB0EDBCF14F0FC0EDBCF15F0FD0EDBCF06
:1015C00016F0FE0EDBCF17F00C6A0D6A200E0E6EC1
:1015D000410E0F6E14C007F015C008F016C009F0D8
:1015E00017C00AF0DEEC0BF065EC0CF0020E08C040
:1015F000DBFF030E09C0DBFFE80E146E030E156E51
:10160000020EDBCF08F0030EDBCF09F014C00DF0A3
:1016100015C00EF066EC0FF00A0E08C0DBFF0B0ED3
:1016200009C0DBFF020EDBCF14F0030EDBCF15F099
:10163000E80E0D6E030E0E6E14C008F015C009F012
:1016400066EC0FF004C014F005C015F0640E0D6ECA
:101650000E6A04C008F005C009F066EC0FF008C07F
:1016600014F009C015F0080E08C0DBFF090E09C010
:10167000DBFF020EDBCF14F0030EDBCF15F0E80E1C
:101680000D6E030E0E6E14C008F015C009F066EC66
:101690000FF004C014F005C015F0640E0D6E0E6A54
:1016A00004C008F005C009F066EC0FF004C014F0A7
:1016B00005C015F00A0E0D6E0E6A04C008F005C0D4
:1016C00009F066EC0FF008C014F009C015F0060E22
:1016D00008C0DBFF070E09C0DBFF020EDBCF14F0F2
:1016E000030EDBCF15F0E80E0D6E030E0E6E14C068
:1016F00008F015C009F066EC0FF004C014F005C046
:1017000015F0640E0D6E0E6A04C008F005C009F0F5
:1017100066EC0FF004C014F005C015F00A0E0D6E53
:101720000E6A04C008F005C009F066EC0FF004C0B2
:1017300014F005C015F0040E04C0DBFF050E05C053
:10174000DBFF0A0EDBCF14F00B0EDBCF15F0300EF3
:101750001424E66EEEDCE552080EDBCF14F0090E21
:10176000DBCF15F0300E1424E66EE3DCE552060EF6
:10177000DBCF14F0070EDBCF15F0300E1424E66E2D
:10178000D8DCE552D9CFE6FFDACFE6FF87DDE552B8
:10179000E552040EDBCF14F0050EDBCF15F0300E52
:1017A0001424E66EC6DCE5520C0EE15C02E2E16A4E
:0C17B000E552E16EE552E7CFD9FF1200D0
:0417BC00016AECECE6
:1017C0000CF004EC0DF001B694EF0CF001A205D082
:1017D00001B894EF0CF09BEF0CF001AA05D001B01A
:1017E00094EF0CF09BEF0CF001B002D001A802D0F6
:1017F000A7EF0CF0056A0F500A24046EE86A052270
:101800007E0E045EE86A055A126A136A026A036A67
:101810000E500902F4CF03F0F3CF02F00D5009028D
:10182000F3501326F4500222000E03220E50080239
:10183000F3501326F4500222000E03220C5009022A
:10184000F3501226F4501322000E022203220D50F0
:101850000802F3501226F4501322000E0222032233
:101860000E500702F3501226F4501322000E0222EB
:1018700003220C500802F4501226000E13220222FA
:1018800003220D500702F4501226000E13220222EA
:101890000322B0EF0CF0006A0EAE51EF0CF00E6CAC
:1018A000001E09AE56EF0CF0096C001EAAEC0FF0FA
:1018B00009BE60EF0CF000AE000C096C056C000C6A
:1018C00000BE5DEF0CF00188FF0C016AECEC0CF03F
:1018D00001B66FEF0CF001A20ED001B405D07F0E5F
:1018E000096EFF0E086E1FD0800E096E086A1BD0AD
:1018F000096A086A18D001B0FBD78F0E0A60EDD7CD
:101900007E0E0A64F5D78E0E0A5C05E0D890093287
:1019100008320A2AF8D701A406D0086C091EE86A22
:10192000092209AEE5D712007F0E0A6EFF0E096E7E
:10193000086E076E12007F0E01BEFF0E0A6E02D007
:101940007F0E0A6E800E096E086A076AF3D701AE31
:1019500004D0800E0A6E096AF7D70A6A096AF4D7BA
:101960000350021013101210F8E005BEF0D703BEAA
:101970000CD004500510EBE0D89012361336023626
:1019800003360406D8A00506F2D70550D4E1042892
:10199000D2E012AE11D07F0E121402E113A00CD0CF
:1019A000132AE86A0222032207E3D88003320232B4
:1019B0001332042A0428BFE00450C9E013C007F022
:1019C00002C008F00334096E04300A6E09320A9E20
:1019D00001BE0A8E9AEF0CF009360A3602E3018442
:1019E000017E06E101800A6A096A086A076A120034
:1019F0000A2803E0D88009321200D890093202E1A7
:101A000001821200018612000E360F3602E3018CAD
:101A1000017E06E101880F6A0E6A0D6A0C6A1200E7
:101A20000F2803E0D8800E321200D8900E32EAE17F
:041A3000018A120015
:0C1A3400949E938081809288829E4BECEF
:101A40000FF0A2EC07F0AAEC07F03CEC09F00A0E4C
:101A5000E66EB8EC0FF0E552010EE66EE66AE66E51
:101A6000E66A73EC09F0E552E552E552E552600E84
:101A7000E66E000EE66E4EEC09F0E552E5520A0EF7
:101A8000E66EB8EC0FF0E55203EC0FF08B9A8298FB
:101A90008B96898A809874EC06F069EC06F00A0E41
:101AA000E66EB8EC0FF0E5523CEC09F0010EE66E84
:101AB000E66AE66EE66A73EC09F0E552E552E55235
:101AC000E552020EE66E60EC02F0E552E66E8FEC37
:101AD0000AF0E552020EE66EE66A010EE66EE66A6E
:101AE00073EC09F0E552E552E552E552080EE66E58
:101AF000FBEC04F0E552E66E8FEC0AF0E55280A8AC
:101B0000FED780B8FED70F01300E326F320EE66E70
:101B10000F0EE66E020EE66E0F0EE66E81EC06F01C
:101B2000E552E552E552E5520108E9E13F0EE66E65
:101B3000FBEC04F0E5520F01336F3251EA6A020FF9
:101B4000E96E0F0EEA22EF6A3CEC09F0320EE66E07
:101B50000F0EE66E020EE66E0F0EE66E81EC06F0DC
:101B6000E552E552E552E552020EE66EE66A010ED6
:101B7000E66EE66A73EC09F0E552E552E552E5528D
:101B8000020EE66E0F0EE66E4EEC09F0E552E552DF
:101B9000828E69EC06F0640EE66EB8EC0FF0AED7FC
:101BA000DACFE4FFE2CFDAFFE9CFE4FFEACFE4FFE8
:101BB000F6CFE4FFF7CFE4FFF5CFE4FFF3CFE4FF88
:101BC000F4CFE4FFFACFE4FF00EE00F0140EE804D7
:101BD00003E3EECFE4FFFBD700EE14F0040EE804BD
:101BE00003E3EECFE4FFFBD7E6529EA028D000012E
:101BF0008E2B000E8F239E90CF6ACE6A030E8E1915
:101C00001EE18F511CE18E6B8F6B35EC06F00F01DE
:101C1000006F700E0015600802E153EC06F0700EC4
:101C20000F01001502E169EC06F030EC06F00F013F
:101C3000016F700E0115700802E15EEC06F0E552CE
:101C400000EE17F0040EE80403E3E5CFEDFFFBD749
:101C500000EE13F0140EE80403E3E5CFEDFFFBD72D
:101C6000E5CFFAFFE5CFF4FFE5CFF3FFE5CFF5FFD2
:101C7000E5CFF7FFE5CFF6FFE5CFEAFFE5CFE9FFD8
:061C8000E5CFDAFF1100C0
:0A1C8600D9CFE6FFE1CFD9FFB88601
:101C9000FD0EDB50AF6EAC84AC98AB8E949C948EF2
:101CA000AD6AE552E7CFD9FF1200B898AC8AAD6AA9
:101CB0001200D08E9F9A9D8AF28EF28CAB889E9AEB
:101CC000AE6A1200D9CFE6FFE1CFD9FFACA2FED7B2
:101CD000FE0EDB50AD6EE552E7CFD9FF1200D9CF33
:101CE000E6FFE1CFD9FFFD0EDBCFE9FFFE0EDBCF34
:101CF000EAFFEF5010E0FD0EDBCFE9FFFE0EDBCF79
:101D0000EAFFEF50E66EDEDFE552FD0EDB2AFE0E47
:101D1000EAE3DB2AE8D7E552E7CFD9FF12009DAA14
:101D2000FED7AE501200D9CFE6FFE1CFD9FFF7DFE3
:101D3000E66EFD0EDBCFE9FFFE0EDBCFEAFFE552DC
:101D4000E750EF6EFD0EDBCFE9FFFE0EDBCFEAFFC3
:101D5000EF5006E0FD0EDB2AFE0EE9E3DB2AE7D7B3
:081D6000E552E7CFD9FF1200A4
:081D68001E0EF66E000EF76E70
:101D7000000EF86E0F010900F5503A6F0900F5509A
:101D80003B6F03E13A6701D03DD00900F550356F54
:101D90000900F550366F0900F550376F090009004A
:101DA000F550E96E0900F550EA6E090009000900D6
:101DB000F550386F0900F550396F09000900F6CF6A
:101DC0003CFFF7CF3DFFF8CF3EFF35CFF6FF36CFD4
:101DD000F7FF37CFF8FF0F01385302E1395307E01F
:101DE0000900F550EE6E3807F8E23907F9D73CCF15
:101DF000F6FF3DCFF7FF3ECFF8FF0F013A07000E89
:061E00003B5BBFD712009E
:0A1E060094969488949A929AC00E64
:101E1000C76E310EC66EC96A1200D9CFE6FFE1CF98
:101E2000D9FF020EE126010EC9CFDBFF9E96C69EAA
:101E3000FE0EDB50C96E9EA6FED7C950DF6EDF5086
:101E4000146E020EE15C02E2E16AE552E16E1450AA
:101E5000E552E7CFD9FF1200D9CFE6FFE1CFD9FF96
:101E6000E652C950DF6E9E96C96AC7A0FED7C95018
:0A1E7000E552E552E7CFD9FF12005A
:061E7A00D08EF28CF28E06
:101E8000870ED56EF00ED76EC30ED66ED09EF1942F
:101E9000F28AF2941200810ECD6ED08E9F90F28C59
:101EA000F28E9E909D80CF6ACE6A1200810EB16E36
:101EB000F28EF28CA192A082B36AB26AB180120053
:0C1EC000D08EF28CF28E100EF06E12002C
:041ECC00056A046A35
:101ED000100EE76ED89008360936043605360D50D8
:101EE000045C0E50055805E30D50045E0E50055A73
:081EF000082AE72EF0D71200CA
:081EF800FF0EE350186E480EC6
:101F000001D04C0EE76EE72EFED7E76AE72EFED72C
:081F1000182EF7D700001200A3
:081F1800600EF36E00EE00F014
:101F20000F0E01D81200EA6002D0EE6AFCD7F3501F
:081F3000E9601200EE6AFCD723
:081F38001EEE00F02EEE00F099
:101F4000F86A019CB4EC0EF003EC00F01AEC0DF012
:041F5000FBD71200A9
:0C1F5400056A080EE76ED89009360536C5
:101F60000E50055C02E3056E092AE72EF7D7120032
:101F7000FF0EE350E84E1200000000D000D000D069
:061F8000E82EFAD7120062
:0A1F860053657474696E67004465CA
:101F90006D6F535049005741524E494E472D45529F
:101FA000524F52004368752054726F6E67204B6821
:061FB000616E68000000F4
:0A1FB60006070010B13BF883132268
:101FC000F80015561018166C034091E92A001F59A5
:101FD0008831090706040500FF3FC000000000002B
:021FE0000000FF
:020000040030CA
:0100010042BC
:010002001EDF
:010003001EDE
:010005008179
:010006008178
:010008000FE8
:01000900C036
:01000A000FE6
:01000B00E014
:01000C000FE4
:01000D0040B2
:00000001FF
