:020000040000FA
:06000000E1EF03F0120025
:0A0006000100E00700006A0000009E
:0400100002000000EA
:0C00140090019301960199019C019F014D
:10002000A201A501A901AC01AF01B201B501B8015E
:10003000BB01BF01C201C501C801CB01CE01D10185
:10004000D401D701DA01DE01E101E401E701EA01AF
:10005000ED01F001F301F601F901FC01FF010202DB
:10006000050208020B020E021102140217021A0204
:100070001D0220022302260229022B022E02310237
:10008000340237023A023D023F0242024502480270
:100090004B024D0250025302560258025B025E02AE
:1000A00060026302660268026B026E0270027302F3
:1000B000760278027B027D0280028202850287023C
:1000C0008A028C028E0291029302960298029A0290
:1000D0009D029F02A102A402A602A802AA02AD02EA
:1000E000AF02B102B302B502B702B902BC02BE024E
:1000F000C002C202C402C602C802CA02CC02CD02B9
:10010000CF02D102D302D502D702D902DA02DC0231
:10011000DE02E002E102E302E502E602E802E902B1
:10012000EB02EC02EE02F002F102F202F402F5023E
:10013000F702F802F902FB02FC02FD02FF020003D3
:10014000010302030303050306030703080309036E
:100150000A030B030C030D030E030F03100310031C
:1001600011031203130314031403150316031703D7
:1001700017031803180319031A031A031B031B039D
:100180001C031C031C031D031D031D031E031E0370
:100190001E031F031F031F031F031F031F031F0350
:1001A0001F031F0320031F031F031F031F031F033E
:1001B0001F031F031F031F031E031E031E031D0334
:1001C0001D031D031C031C031C031B031B031A0339
:1001D0001A0319031803180317031703160315034B
:1001E00014031403130312031103100310030F036A
:1001F0000E030D030C030B030A0309030803070393
:10020000060305030303020301030003FF02FD02CB
:10021000FC02FB02F902F802F702F502F402F20214
:10022000F102F002EE02EC02EB02E902E802E60261
:10023000E502E302E102E002DE02DC02DA02D902B8
:10024000D702D502D302D102CF02CD02CC02CA021C
:10025000C802C602C402C202C002BE02BC02B90287
:10026000B702B502B302B102AF02AD02AA02A80200
:10027000A602A402A1029F029D029A02980296027F
:10028000930291028E028C028A0287028502820208
:1002900080027D027B0278027602730270026E0297
:1002A0006B0268026602630260025E025B02580231
:1002B0005602530250024D024B02480245024202CE
:1002C0003F023D023A023702340231022E022B0273
:1002D00029022602230220021D021A02170214021A
:1002E00011020E020B02080205020202FF01FC01CC
:1002F000F901F601F301F001ED01EA01E701E40182
:10030000E101DE01DA01D701D401D101CE01CB0137
:10031000C801C501C201BF01BB01B801B501B201ED
:10032000AF01AC01A901A501A2019F019C019901A6
:10033000960193018F018C0189018601830180015F
:100340007D017A017601730170016D016A01670117
:10035000640160015D015A015701540151014E01D0
:100360004B014801450141013E013B013801350186
:1003700032012F012C0129012601230120011D0139
:100380001A011701140111010E010B0108010501E9
:100390000201FF00FC00F900F600F400F100EE009D
:1003A000EB00E800E500E200E000DD00DA00D70045
:1003B000D400D200CF00CC00C900C700C400C100E7
:1003C000BF00BC00B900B700B400B100AF00AC0082
:1003D000A900A700A400A2009F009D009A00980019
:1003E0009500930091008E008C00890087008500A5
:1003F000820080007E007B0079007700750072002B
:1004000070006E006C006A006800660063006100A6
:100410005F005D005B00590057005500530052001B
:1004200050004E004C004A00480046004500430082
:1004300041003F003E003C003A00390037003600E2
:100440003400330031002F002E002D002B002A0035
:1004500028002700260024002300220020001F007F
:100460001E001D001C001A001900180017001600BD
:100470001500140013001200110010000F000F00EF
:100480000E000D000C000B000B000A000900080014
:10049000080007000700060005000500040004002E
:1004A000030003000300020002000200010001003B
:1004B000010000000000000000000000000000003B
:1004C000000000000000000000000000000000002C
:1004D0000000000000000000010001000100020017
:1004E00002000200030003000300040004000500F2
:1004F00005000600070007000800080009000A00C0
:100500000B000B000C000D000E000F000F00100080
:100510001100120013001400150016001700180037
:1005200019001A001C001D001E001F0020002200E0
:10053000230024002600270028002A002B002D007D
:100540002E002F0031003300340036003700390010
:100550003A003C003E003F00410043004500460099
:1005600048004A004C004E00500052005300550015
:10057000570059005B005D005F006100630066008A
:1005800068006A006C006E007000720075007700F1
:1005900079007B007E008000820085008700890052
:1005A0008C008E0091009300950098009A009D00A9
:1005B0009F00A200A400A700A900AC00AF00B100FA
:1005C000B400B700B900BC00BF00C100C400C70040
:1005D000C900CC00CF00D200D400D700DA00DD0083
:1005E000E000E200E500E800EB00EE00F100F400BE
:1005F000F600F900FC00FF000201050108010B01F3
:100600000E011101140117011A011D01200123011E
:10061000260129012C012F013201350138013B014E
:100620003E014101450148014B014E015101540178
:1006300057015A015D016001640167016A016D01A2
:100640007001730176017A017D01800183018601C9
:0406500089018C018F
:0C0654007F6A800E7E6E200E6F6E400EDE
:100660006E6E6D6A7C6A7D6A7A6AC70E7B6E786A86
:10067000796A6B686A6A6C6A706A716A1200D9CFAB
:10068000E6FFE1CFD9FFFE0EDBCF03F003C002F09F
:100690000350786EFF0EE76EFD0EDBCF02F0E750E1
:1006A00002160250796EE552E7CFD9FF1200D2DF71
:1006B000A450100BFDE0640E7D5CFAE36AC0F6FF07
:1006C0006BC0F7FF010ED890F636F736E806FBE16F
:1006D000140EF626000EF7220900F5CFE6FF0800FB
:1006E000F5CFE6FFCCDFE552E55200016A2B000EA4
:1006F0006B23A498200E6A5D030E6B59D9E36A6BD5
:040700006B6BD6D772
:0C070400060EF66E000EF76E000EF86E8A
:1007100000010900F550656F0900F550666F03E1AF
:10072000656701D03DD00900F550606F0900F550B4
:10073000616F0900F550626F09000900F550E96E1C
:100740000900F550EA6E090009000900F550636FD1
:100750000900F550646F09000900F6CF67F0F7CF84
:1007600068F0F8CF69F060C0F6FF61C0F7FF62C0C3
:10077000F8FF0001635302E1645307E00900F550FC
:10078000EE6E6307F8E26407F9D767C0F6FF68C04A
:10079000F7FF69C0F8FF00016507000E665BBFD771
:0207A000120045
:0E07A200000EF36E00EE00F0030E01D8120000
:1007B000EA6002D0EE6AFCD7F350E9601200EE6AFC
:0207C000FCD764
:0E07C20012EE00F022EE00F0F86A019C82ECCC
:0E07D00003F0EFEC03F057EC03F0FBD7120040
:0207DE00120007
:0207E000000017
:020000040030CA
:0100010006F8
:010002000AF3
:010003003EBE
:0100040018E3
:01000500807A
:010006008178
:010008000FE8
:01000900C036
:01000A000FE6
:01000B00E014
:01000C000FE4
:01000D0040B2
:00000001FF
