:020000040000FA
:0600000093EF0BF012006B
:0A000600010042170000000F000087
:040010002A000000C2
:020014001200D8
:0600180027EF09F01200C1
:02001E009590BB
:100020009592959495969598959A959C1200020EA6
:10003000E66E49D8E552010EE66E73EC0BF0E55220
:10004000280EE66E40D8E552010EE66E73EC0BF01A
:10005000E5520C0EE66E37D8E552010EE66E73ECF3
:100060000BF0E552060EE66E2ED8E552010EE66E56
:1000700073EC0BF0E552010EE66E73EC0BF0E552FB
:100080001200D9CFE6FFE1CFD9FF020EE1268C8422
:10009000DE6ADD6ADECF00F0DDCF01F0020E005C2B
:1000A000000E015805E2DF2A010E01E3DB2AF2D738
:1000B0008C94020EE15C02E2E16AE552E16EE552E7
:1000C000E7CFD9FF1200D9CFE6FFE1CFD9FF020E6B
:1000D000E1268C928C90FE0EDB380F0BDE6EDD6A13
:1000E000DECF00F0DDCF01F0010E0014E8B08C8609
:1000F000E8A08C96DECF00F0DDCF01F0020E0016F6
:10010000000E0116D890013200320050E8B08C8801
:10011000E8A08C98DECF00F0DDCF01F0040E0016D1
:10012000000E0116D89001320032D8900132003210
:100130000050E8B08C8AE8A08C9ADECF00F0DDCFCA
:1001400001F0080E0016000E0116030ED8900132C1
:100150000032E804FBE10050E8B08C8CE8A08C9CF5
:1001600090DFFE0EDB500F0BDE6EDD6ADECF00F09F
:10017000DDCF01F0010E0014E8B08C86E8A08C966B
:10018000DECF00F0DDCF01F0020E0016000E0116EA
:10019000D890013200320050E8B08C88E8A08C98EA
:1001A000DECF00F0DDCF01F0040E0016000E0116C8
:1001B000D89001320032D890013200320050E8B0BD
:1001C0008C8AE8A08C9ADECF00F0DDCF01F0080E1B
:1001D0000016000E0116030ED89001320032E8041A
:1001E000FBE10050E8B08C8CE8A08C9C4ADF050E47
:1001F000E66E73EC0BF0E552020EE15C02E2E16A9E
:10020000E552E16EE552E7CFD9FF1200D9CFE6FF04
:10021000E1CFD9FF020EE1268C928C80FE0EDB38F6
:100220000F0BDE6EDD6ADECF00F0DDCF01F0010ED8
:100230000014E8B08C86E8A08C96DECF00F0DDCF0D
:1002400001F0020E0016000E0116D89001320032A5
:100250000050E8B08C88E8A08C98DECF00F0DDCFAD
:1002600001F0040E0016000E0116D8900132003283
:10027000D890013200320050E8B08C8AE8A08C9A05
:10028000DECF00F0DDCF01F0080E0016000E0116E3
:10029000030ED89001320032E804FBE10050E8B0D0
:1002A0008C8CE8A08C9CEDDEFE0EDB500F0BDE6E1E
:1002B000DD6ADECF00F0DDCF01F0010E0014E8B002
:1002C0008C86E8A08C96DECF00F0DDCF01F0020E28
:1002D0000016000E0116D890013200320050E8B02E
:1002E0008C88E8A08C98DECF00F0DDCF01F0040E02
:1002F0000016000E0116D89001320032D89001325B
:1003000000320050E8B08C8AE8A08C9ADECF00F072
:10031000DDCF01F0080E0016000E0116030ED89076
:1003200001320032E804FBE10050E8B08C8CE8A018
:100330008C9CA7DE050EE66E73EC0BF0E552020E08
:10034000E15C02E2E16AE552E16EE552E7CFD9FFF6
:100350001200010EE66EB7DEE5521200D9CFE6FFBD
:10036000E1CFD9FFFD0EDBCFE9FFFE0EDBCFEAFFC9
:10037000EF5015E0FD0EDBCFE9FFFE0EDBCFEAFF0D
:10038000EF50E66E43DFE552FD0EDB2AFE0E01E381
:10039000DB2A020EE66E73EC0BF0E552E3D7E55272
:1003A000E7CFD9FF1200D9CFE6FFE1CFD9FF020E88
:1003B000E126D950FB0FE96EFF0EDA20EA6E010E3E
:1003C000EE1801E1ED5004E0400EDE6EDD6A02D071
:1003D000DE6ADD6AFD0EDBCF00F0FE0EDBCF01F042
:1003E0000006000E015AD9CFE9FFDACFEAFF00502C
:1003F000EE260150ED22DECF00F0DDCF01F0800EC1
:100400000010E66E60DEE552020EE66E73EC0BF055
:10041000E552020EE15C02E2E16AE552E16EE5526C
:10042000E7CFD9FF1200D9CFE6FFE1CFD9FF0A0EFF
:10043000E126100E006E270E016EFD0EDBCF28F0B8
:10044000FE0EDBCF29F000C02DF001C02EF05DECD8
:100450000BF0060E28C0DBFF070E29C0DBFFFD0EE8
:10046000DBCF00F0FE0EDBCF01F0100E2D6E270E5D
:100470002E6E00C028F001C029F05DEC0BF024C006
:1004800000F025C001F0E80E2D6E030E2E6E00C0A8
:1004900028F001C029F05DEC0BF028C000F029C065
:1004A00001F0040E00C0DBFF050E01C0DBFFFD0EF6
:1004B000DBCF00F0FE0EDBCF01F0E80E2D6E030E59
:1004C0002E6E00C028F001C029F05DEC0BF024C0B6
:1004D00000F025C001F0640E2D6E2E6A00C028F0D9
:1004E00001C029F05DEC0BF028C000F029C001F03C
:1004F000020E00C0DBFF030E01C0DBFFFD0EDBCFF1
:1005000000F0FE0EDBCF01F0640E2D6E2E6A00C0EF
:1005100028F001C029F05DEC0BF024C000F025C0EC
:1005200001F00A0E2D6E2E6A00C028F001C029F0DD
:100530005DEC0BF028C000F029C001F000C0DEFF28
:1005400001C0DDFFFD0EDBCF00F0FE0EDBCF01F0C2
:100550000A0E2D6E2E6A00C028F001C029F05DEC55
:100560000BF024C000F025C001F0080E00C0DBFF36
:10057000090E01C0DBFF060EDBCF00F0070EDBCF5C
:1005800001F0300E0024E66E41DEE552040EDBCFB2
:1005900000F0050EDBCF01F0300E0024E66E36DEF3
:1005A000E552020EDBCF00F0030EDBCF01F0300E80
:1005B0000024E66E2BDEE552DECF00F0DDCF01F049
:1005C000300E0024E66E22DEE552080EDBCF00F08E
:1005D000090EDBCF01F0300E0024E66E17DEE55287
:1005E0000A0EE15C02E2E16AE552E16EE552E7CF14
:1005F000D9FF1200D9CFE6FFE1CFD9FF060EE126E1
:10060000640E006E016AFD0EDBCF28F0FE0EDBCF1C
:1006100029F000C02DF001C02EF0DBEC09F028C05D
:10062000DEFF29C0DDFFFD0EDBCF00F0FE0EDBCFCD
:1006300001F0640E2D6E2E6A00C028F001C029F072
:10064000DBEC09F024C000F025C001F00A0E2D6E8D
:100650002E6A00C028F001C029F0DBEC09F028C0A8
:1006600000F029C001F0020E00C0DBFF030E01C044
:10067000DBFFFD0EDBCF00F0FE0EDBCF01F00A0E3C
:100680002D6E2E6A00C028F001C029F0DBEC09F0C5
:1006900024C000F025C001F0040E00C0DBFF050EF1
:1006A00001C0DBFFDECF00F0DDCF01F0D8900150BC
:1006B00004E6010E005C000E015820E3DECF00F0DE
:1006C000DDCF01F0300E0024E66EA0DDE552020E13
:1006D000DBCF00F0030EDBCF01F0300E0024E66E1E
:1006E00095DDE552040EDBCF00F0050EDBCF01F007
:1006F000300E0024E66E8ADDE55230D0020EDBCFEC
:1007000000F0030EDBCF01F0D890015004E6010E9B
:10071000005C000E015817E3020EDBCF00F0030E61
:10072000DBCF01F0300E0024E66E70DDE552040EE2
:10073000DBCF00F0050EDBCF01F0300E0024E66EBB
:1007400065DDE5520BD0040EDBCF00F0050EDBCFEC
:1007500001F0300E0024E66E59DDE552060EE15C34
:1007600002E2E16AE552E16EE552E7CFD9FF1200FD
:10077000D9CFE6FFE1CFD9FF0C0EE126D9CFE9FFB3
:10078000DACFEAFF2E0EEE6EEE6AFB0EDBCF00F044
:10079000FC0EDBCF01F0FD0EDBCF02F0FE0EDBCF57
:1007A00003F02C6A2D6A200E2E6E410E2F6E00C0B3
:1007B00027F001C028F002C029F003C02AF06EEC37
:1007C00009F035EC0AF0020E28C0DBFF030E29C049
:1007D000DBFFE80E006E030E016E020EDBCF28F089
:1007E000030EDBCF29F000C02DF001C02EF05DEC30
:1007F0000BF00A0E28C0DBFF0B0E29C0DBFF020E38
:10080000DBCF00F0030EDBCF01F0E80E2D6E030E00
:100810002E6E00C028F001C029F05DEC0BF024C062
:1008200000F025C001F0640E2D6E2E6A00C028F085
:1008300001C029F05DEC0BF028C000F029C001F0E8
:10084000080E00C0DBFF090E01C0DBFF020EDBCF8C
:1008500000F0030EDBCF01F0E80E2D6E030E2E6EBE
:1008600000C028F001C029F05DEC0BF024C000F0BE
:1008700025C001F0640E2D6E2E6A00C028F001C064
:1008800029F05DEC0BF024C000F025C001F00A0E49
:100890002D6E2E6A00C028F001C029F05DEC0BF02F
:1008A00028C000F029C001F0060E00C0DBFF070ED3
:1008B00001C0DBFF020EDBCF00F0030EDBCF01F047
:1008C000E80E2D6E030E2E6E00C028F001C029F038
:1008D0005DEC0BF024C000F025C001F0640E2D6E1D
:1008E0002E6A00C028F001C029F05DEC0BF024C096
:1008F00000F025C001F00A0E2D6E2E6A00C028F00F
:1009000001C029F05DEC0BF024C000F025C001F01F
:10091000040E00C0DBFF050E01C0DBFF0A0EDBCFBB
:1009200000F00B0EDBCF01F0300E0024E66E6EDC23
:10093000E552080EDBCF00F0090EDBCF01F0300EE0
:100940000024E66E63DCE552060EDBCF00F0070EF6
:10095000DBCF01F0300E0024E66E58DCE552D9CF33
:10096000E6FFDACFE6FFFADCE552E552040EDBCF14
:1009700000F0050EDBCF01F0300E0024E66E46DC01
:10098000E5520C0EE15C02E2E16AE552E16EE552ED
:10099000E7CFD9FF1200D9CFE6FFE1CFD9FF080E8C
:1009A000E126D9CFE9FFDACFEAFF2C0EEE6EEE6A30
:1009B000FD0EDBCF00F0FE0EDBCF01F0D890015032
:1009C00004E6640E005C000E015801E2A7D0640E3C
:1009D000006E016AFD0EDBCF28F0FE0EDBCF29F0A2
:1009E00000C02DF001C02EF0DBEC09F0020E28C093
:1009F000DBFF030E29C0DBFFFD0EDBCF00F0FE0E98
:100A0000DBCF01F0640E2D6E2E6A00C028F001C00D
:100A100029F0DBEC09F024C000F025C001F00A0E3B
:100A20002D6E2E6A00C028F001C029F0DBEC09F021
:100A300028C000F029C001F0040E00C0DBFF050E45
:100A400001C0DBFFFD0EDBCF00F0FE0EDBCF01F0BF
:100A50000A0E2D6E2E6A00C028F001C029F0DBECD2
:100A600009F024C000F025C001F0060E00C0DBFF35
:100A7000070E01C0DBFF020EE66EE66A0A0EE66EA6
:100A8000E66A91DCE552E552E552E552020EDBCF13
:100A9000E6FF030EDBCFE6FFADDDE552E552020EC9
:100AA000E66EE66A0B0EE66EE66A7DDCE552E5521E
:100AB000E552E552D9CFE6FFDACFE6FF4FDCE5524B
:100AC000E552020EE66EE66A0C0EE66EE66A6BDC36
:100AD000E552E552E552E552040EDBCFE6FF050E86
:100AE000DBCFE6FF87DDE552E552020EE66EE66AF1
:100AF0000D0EE66EE66A57DCE552E552E552E55228
:100B0000060EDBCFE6FF070EDBCFE6FF73DDE55217
:100B1000E5520A0EE66E73EC0BF0E552FD0EDBCFEC
:100B200000F0FE0EDBCF01F0D890015004E60A0E73
:100B3000005C000E015801E293D0FD0EDBCF02F005
:100B4000FE0EDBCF03F0D890035004E6640E025C87
:100B5000000E035801E384D00A0E006E016AFD0EF8
:100B6000DBCF28F0FE0EDBCF29F000C02DF001C056
:100B70002EF0DBEC09F0020E28C0DBFF030E29C0CB
:100B8000DBFFFD0EDBCF00F0FE0EDBCF01F00A0E27
:100B90002D6E2E6A00C028F001C029F0DBEC09F0B0
:100BA00024C000F025C001F0040E00C0DBFF050EDC
:100BB00001C0DBFF020EE66EE66A0A0EE66EE66A2A
:100BC000D3EC01F0E552E552E552E552000EE66E37
:100BD000E66A10DDE552E552020EE66EE66A0B0E9D
:100BE000E66EE66AD3EC01F0E552E552E552E552D5
:100BF000D9CFE6FFDACFE6FFAEEC01F0E552E552E1
:100C0000020EE66EE66A0C0EE66EE66AD3EC01F0C2
:100C1000E552E552E552E552020EDBCFE6FF030E48
:100C2000DBCFE6FFE7DCE552E552020EE66EE66A50
:100C30000D0EE66EE66AD3EC01F0E552E552E552A0
:100C4000E552040EDBCFE6FF050EDBCFE6FFD2DC7C
:100C5000E552E5520A0EE66E73EC0BF0E5524DD00C
:100C6000020EE66EE66A0A0EE66EE66AD3EC01F064
:100C7000E552E552E552E552000EE66EE66ABADC50
:100C8000E552E552020EE66EE66A0B0EE66EE66A85
:100C9000D3EC01F0E552E552E552E552D9CFE6FF3B
:100CA000DACFE6FFAEEC01F0E552E552020EE66E59
:100CB000E66A0A0EE66EE66AD3EC01F0E552E5520A
:100CC000E552E552000EE66EE66A94DCE552E55226
:100CD000020EE66EE66A0B0EE66EE66AD3EC01F0F3
:100CE000E552E552E552E552FD0EDBCFE6FFFE0E82
:100CF000DBCFE6FF7FDCE552E552080EE15C02E265
:100D0000E16AE552E16EE552E7CFD9FF1200D9CF93
:100D1000E6FFE1CFD9FF0A0EE126FB0EDBCF26F07E
:100D2000FC0EDBCF27F0FD0EDBCF28F0FE0EDBCF75
:100D300029F0100E2B6E270E2C6E2D6A2E6A01ECF8
:100D40000AF026C0DEFF27C0DDFFDECF00F0DDCFDA
:100D500001F0100E0102F3CF01F0270E0002F35054
:100D60000126100E0002F3CF00F0F4500126026AB3
:100D7000036A01AE02D002680368D950FB0FE96E26
:100D8000FF0EDA20EA6E0050EE5C266E0150EE583F
:100D9000276E0250EE58286E0350EE58296EE80E6A
:100DA0002B6E030E2C6E2D6A2E6A01EC0AF0020ED9
:100DB00026C0DBFF030E27C0DBFFDECF04F0DDCF54
:100DC00005F0100E0502F3CF05F0270E0402F350D4
:100DD0000526100E0402F3CF04F0F4500526066A2F
:100DE000076A05AE02D006680768D950FB0FE96EA6
:100DF000FF0EDA20EA6E0450EE5C006E0550EE58ED
:100E0000016E0650EE58026E0750EE58036E020E49
:100E1000DBCF08F0030EDBCF09F0E80E0902F3CFB9
:100E200009F0030E0802F3500926E80E0802F3CF7A
:100E300008F0F45009260A6A0B6A09AE02D00A6863
:100E40000B680850005C266E09500158276E0A5046
:100E50000258286E0B500358296E640E2B6E2C6AB4
:100E60002D6A2E6A01EC0AF0040E26C0DBFF050E87
:100E700027C0DBFFDECF08F0DDCF09F0100E09023E
:100E8000F3CF09F0270E0802F3500926100E0802CE
:100E9000F3CF08F0F45009260A6A0B6A09AE02D0B3
:100EA0000A680B68D950FB0FE96EFF0EDA20EA6E74
:100EB0000850EE5C046E0950EE58056E0A50EE586C
:100EC000066E0B50EE58076E020EDBCF0CF0030ED1
:100ED000DBCF0DF0E80E0D02F3CF0DF0030E0C0288
:100EE000F3500D26E80E0C02F3CF0CF0F4500D2653
:100EF0000E6A0F6A0DAE02D00E680F680C50045CCB
:100F0000006E0D500558016E0E500658026E0F50BF
:100F10000758036E040EDBCF10F0050EDBCF11F087
:100F2000640E1102F3CF11F01002F3CF10F0F45061
:100F30001126126A136A11AE02D01268136810509B
:100F4000005C266E11500158276E12500258286E10
:100F500013500358296E0A0E2B6E2C6A2D6A2E6AC6
:100F600001EC0AF0060E26C0DBFF070E27C0DBFFF0
:100F7000DECF10F0DDCF11F0100E1102F3CF11F023
:100F8000270E1002F3501126100E1002F3CF10F0AE
:100F9000F4501126126A136A11AE02D01268136857
:100FA000D950FB0FE96EFF0EDA20EA6E1050EE5CAE
:100FB0000C6E1150EE580D6E1250EE580E6E13500E
:100FC000EE580F6E020EDBCF14F0030EDBCF15F0E0
:100FD000E80E1502F3CF15F0030E1402F350152698
:100FE000E80E1402F3CF14F0F4501526166A176AAF
:100FF00015AE02D01668176814500C5C086E1550B8
:101000000D58096E16500E580A6E17500F580B6E79
:10101000040EDBCF18F0050EDBCF19F0640E1902B9
:10102000F3CF19F01802F3CF18F0F45019261A6A0A
:101030001B6A19AE02D01A681B681850085C046E4F
:1010400019500958056E1A500A58066E1B500B5855
:10105000076E060EDBCF1CF0070EDBCF1DF00A0E6D
:101060001D02F3CF1DF01C02F3CF1CF0F4501D261F
:101070001E6A1F6A1DAE02D01E681F681C50045CE9
:10108000006E1D500558016E1E500658026E1F500E
:101090000758036E080E00C0DBFF090E01C0DBFF1E
:1010A000A9EC01F0000EE66EE66AE66EE66AD3ECA5
:1010B00001F0E552E552E552E552DECF00F0DDCF1A
:1010C00001F0300E0024E66E06EC01F0E552020E4F
:1010D000DBCF00F0030EDBCF01F0300E0024E66E14
:1010E00006EC01F0E552040EDBCF00F0050EDBCF7D
:1010F00001F0300E0024E66E06EC01F0E552060E1B
:10110000DBCF00F0070EDBCF01F0300E0024E66EDF
:1011100006EC01F0E552080EDBCF00F0090EDBCF44
:1011200001F0300E0024E66E06EC01F0E5520A0EE6
:10113000E15C02E2E16AE552E16EE552E7CFD9FFF8
:101140001200040EBD6ED08E9F94F28CF28E9E948F
:101150009D84BE6ABF6A1200040EBA6ED08EF28CF5
:10116000F28E9F94A190A0801200810ECD6ED08E41
:101170009F90F28CF28E9E909D80CF6ACE6A120074
:10118000810EB16EF28EF28CA192A082B36AB26A25
:10119000B180120094840FEC00F017EC00F00A0EFE
:1011A000E66E73EC0BF0E552CCDFDFDF0A0EE66E85
:1011B00073EC0BF0E552A9EC01F0010EE66EE66A65
:1011C000E66EE66AD3EC01F0E552E552E552E552EF
:1011D0001C0EE66E0F0EE66EAEEC01F0E552E55227
:1011E000400E006E420E016E0F0E026E036A00C0CA
:1011F00026F001C027F002C028F003C029F00CCF70
:101200002BF00DCF2CF00ECF2DF00FCF2EF039ECB0
:101210000BF026C034FF27C035FF28C036FF29C099
:1012200037FF020EE66EE66A090EE66EE66AD3EC5A
:1012300001F0E552E552E552E55234CFE6FF35CFF5
:10124000E6FF13EC02F0E552E552CAD71200DACFFE
:10125000E4FFE2CFDAFFE9CFE4FFEACFE4FFE652B2
:101260009EA42AD0BECF34F0BFCF35F0366A376A9D
:101270000F0108513426095135220A5136220B51EB
:101280003722040EE96E0F0EEA6EEE50345C0C6FDE
:10129000EE5035580D6FEE5036580E6FEE503758F1
:1012A0000F6FBECF04FFBFCF05FF066B076B086B48
:1012B000096B0A6B0B6B9E949EA008D0FF0E0F016A
:1012C00008270923000E0A230B239E90E552E5CF41
:0C12D000EAFFE5CFE9FFE5CFDAFF1100EF
:0412DC00216ABCECDB
:1012E0000AF0D4EC0AF021B664EF0AF021A205D08E
:1012F00021B864EF0AF06BEF0AF021AA05D021B003
:1013000064EF0AF06BEF0AF021B002D021A802D0FE
:1013100077EF0AF0256A2F502A24246EE86A2522E6
:101320007E0E245EE86A255A326A336A226A236A8C
:101330002E502902F4CF23F0F3CF22F02D502902B2
:10134000F3503326F4502222000E23222E5028027E
:10135000F3503326F4502222000E23222C5029026F
:10136000F3503226F4503322000E222223222D5035
:101370002802F3503226F4503322000E2222232278
:101380002E502702F3503226F4503322000E222230
:1013900023222C502802F4503226000E332222221F
:1013A00023222D502702F4503226000E332222220F
:1013B000232280EF0AF0206A2EAEE4EF09F02D6CB4
:1013C0002E1EE86A2E22201E29AEECEF09F0286CB2
:1013D000291EE86A2922201E5DEC0BF029BEFCEFD5
:1013E00009F020AE000C286C291EE86A2922246C22
:1013F000251EE86A2522000C20BEF3EF09F02188A3
:10140000FF0C206AE86A2EAE0EEF0AF02B6C2C1E41
:101410002D1E2E1E2C222D222E22201E29AE19EF2B
:101420000AF0266C271E281E291E27222822292280
:10143000201E39EC0BF029BE30EF0AF020AE000C74
:10144000266C271E281E291EE86A27222822292208
:10145000226C231E241E251E232224222522000C5A
:1014600020BE20EF0AF02188FF0C216ABCEC0AF0B4
:1014700021B63FEF0AF021A20ED021B405D07F0E95
:10148000296EFF0E286E1FD0800E296E286A1BD091
:10149000296A286A18D021B0FBD78F0E2A60EDD7B1
:1014A0007E0E2A64F5D78E0E2A5C05E0D89029328C
:1014B00028322A2AF8D721A406D0286C291EE86AE7
:1014C000292229AEE5D712007F0E2A6EFF0E296E63
:1014D000286E276E12007F0E21BEFF0E2A6E02D0EC
:1014E0007F0E2A6E800E296E286A276AF3D721AEF6
:1014F00004D0800E2A6E296AF7D72A6A296AF4D79F
:101500002350221033103210F8E025BEF0D723BE4E
:101510000CD024502510EBE0D890323633362236EA
:1015200023362406D8A02506F2D72550D4E1242856
:10153000D2E032AE11D07F0E321402E133A00CD0D3
:10154000332AE86A2222232207E3D8802332223278
:101550003332242A2428BFE02450C9E033C027F0C6
:1015600022C028F02334296E24302A6E29322A9E84
:1015700021BE2A8E6AEF0AF029362A3602E3218438
:10158000217E06E121802A6A296A286A276A1200D8
:101590002A2803E0D88029321200D890293202E1AB
:1015A00021821200218612002E362F3602E3218C72
:1015B000217E06E121882F6A2E6A2D6A2C6A12008C
:1015C0002F2803E0D8802E321200D8902E32EAE184
:0415D000218A12005A
:0C15D400060EF66E000EF76E000EF86EAC
:1015E0000F010900F5502F6F0900F550306F03E12E
:1015F0002F6701D03DD00900F5502A6F0900F55042
:101600002B6F0900F5502C6F09000900F550E96EA9
:101610000900F550EA6E090009000900F5502D6F28
:101620000900F5502E6F09000900F6CF31FFF7CF02
:1016300032FFF8CF33FF2ACFF6FF2BCFF7FF2CCFA7
:10164000F8FF0F012D5302E12E5307E00900F5507A
:10165000EE6E2D07F8E22E07F9D731CFF6FF32CF25
:10166000F7FF33CFF8FF0F012F07000E305BBFD716
:02167000120066
:0E167200256A246A236A226A200EE76ED89049
:10168000263627362836293622362336243625367E
:101690002B50225C2C5023582D5024582E50255866
:1016A00009E32B50225E2C50235A2D50245A2E50E1
:0A16B000255A262AE72EE4D712007F
:0616BA00256A246A100EEF
:1016C000E76ED89028362936243625362D50245CEE
:1016D0002E50255805E32D50245E2E50255A282AD9
:0616E000E72EF0D7120016
:0A16E600FF0EE350386E480E01D0ED
:1016F0004C0EE76EE72EFED7E76AE72EFED7382EB0
:06170000F7D70000120003
:0A170600600EF36E00EE00F00F0E0F
:1017100001D81200EA6002D0EE6AFCD7F350E9600B
:061720001200EE6AFCD786
:0A1726001EEE00F02EEE00F0F86A4F
:10173000219CEAEC0AF00AEC00F0CAEC08F0FBD7B6
:02174000120095
:0E174200000000000000000000000000000099
:101750000000000000000000000000000000494EF2
:0C17600050555420434150545552450050
:020000040030CA
:0100010002FC
:010002001FDE
:010003001EDE
:0100050001F9
:010006008178
:010008000FE8
:01000900C036
:01000A000FE6
:01000B00E014
:01000C000FE4
:00000001FF
