:020000040000FA
:0600000088EF01F0120080
:020006001200E6
:060008001EEF01F01200E2
:02000E000100EF
:0C0010003C0300000B0F0000010000008A
:04001C00AB8E949C77
:10002000948E240EAC6E480EB86E0C0EAF6E900E11
:10003000AB6EAD6AAE6A9F9A9E9A9D8AF28E12004E
:10004000D9CFE6FFE1CFD9FFE652FD0EDBCFF6FFB9
:10005000DB2AFE0EDBCFF7FF01E3DB2A0800F550B9
:10006000DF6EDF5005E0DFCFE6FF43D8E552EDD786
:10007000E552E552E7CFD9FF1200D9CFE6FFE1CF35
:10008000D9FF020EE126010EDB6AFC0EDBCFF3FF87
:10009000DB06F35000091FE09EAAFED7AE50DF6ECC
:1000A0000D0EDF5C18E00A0EDF5C15E0010EDB2AA6
:1000B000FD0EDBCFE9FFDB2AFE0EDBCFEAFF01E31B
:1000C000DB2ADFCFEFFFFD0EDBCFE9FFFE0EDBCF3C
:1000D000EAFFEF6ADAD7010EDB50026E020EE15C36
:1000E00002E2E16AE552E16E0250E552E7CFD9FF44
:1000F0001200D9CFE6FFE1CFD9FFACA2FED7FE0EAA
:10010000DB50AD6EE552E7CFD9FF1200D9CFE6FF45
:10011000E1CFD9FFE652FD0EDBCFE9FFDB2AFE0E71
:10012000DBCFEAFF01E3DB2AEFCFDFFFDF5005E0A3
:10013000DFCFE6FFDEDFE552EED7E552E552E7CF4F
:10014000D9FF1200ABA202D0AB98AB88AE50120020
:10015000D9CFE6FFE1CFD9FFACA2FED7FE0EDB5030
:10016000AD6EE552E7CFD9FF1200D9CFE6FFE1CF60
:10017000D9FFFD0EDBCFE9FFFE0EDBCFEAFFEF502C
:1001800010E0FD0EDBCFE9FFFE0EDBCFEAFFEF5004
:10019000E66EDEDFE552FD0EDB2AFE0EEAE3DB2A29
:0A01A000E8D7E552E7CFD9FF1200BF
:0601AA00D388D38AD39C28
:1001B0001200D9CFE6FFE1CFD9FF0D0EE126D9CF4E
:1001C000E9FFDACFEAFF630EEE6E680EEE6E750E93
:1001D000EE6E200EEE6E6B0EEE6E680EEE6E610E23
:1001E000EE6E6E0EEE6E680EEE6E200EEE6EEE6E23
:1001F000EE6EEE6A92968996D8DF0EEC00F0D9CFBB
:10020000E6FFDACFE6FF86EC00F0E552E5522C0E71
:10021000E66E030EE66E20EC00F0E552E5520F01AB
:100220000B51FDE08986A2EC00F00F010A6FE66E2B
:1002300079EC00F0E5520F010B6BF1D7DACFE4FF58
:10024000E6520F01010E0B6F9E9AE552E5CFDAFFE1
:0202500011009B
:0E0252000E0EF66E000EF76E000EF86E0F0127
:100260000900F550056F0900F550066F03E10567B9
:1002700001D03DD00900F550006F0900F550016F25
:100280000900F550026F09000900F550E96E0900F8
:10029000F550EA6E090009000900F550036F0900E6
:1002A000F550046F09000900F6CF07FFF7CF08FFEC
:1002B000F8CF09FF00CFF6FF01CFF7FF02CFF8FF1D
:1002C0000F01035302E1045307E00900F550EE6EFD
:1002D0000307F8E20407F9D707CFF6FF08CFF7FFC7
:1002E00009CFF8FF0F010507000E065BBFD712000C
:1002F000600EF36E00EE00F00F0E01D81200EA60FF
:1003000002D0EE6AFCD7F350E9601200EE6AFCD727
:100310001EEE00F02EEE00F0F86A019C29EC01F0D0
:0C03200003EC00F0D9EC00F0FBD7120059
:04032C00436875208D
:0C03300054726F6E67204B68616E6800AD
:01033C0000C0
:020000040030CA
:0100010048B6
:0100020018E5
:010003001EDE
:010005008179
:010006008178
:010008000FE8
:01000900C036
:01000A000FE6
:01000B00E014
:01000C000FE4
:01000D0040B2
:00000001FF
