:020000040000FA
:0600000011EF0CF01200EC
:020006001200E6
:06000800ADEF09F012004B
:06001800F8EF09F01200F0
:02001E000100DF
:0C0020003E180000600000003F000000DF
:04002C00020120515C
:100030001F0B010801E01200245101E01200060E1E
:10004000215D1AE12351230A17E0010A0BE0030A9C
:1000500013E10001A20510E1F20EB26F150EB36FAD
:10006000090E06D000016F0EB26F160EB36F200E90
:10007000B56FB66BC00EB46F02012051600BE84241
:10008000E842E842E842E842010801E0120021515A
:100090000B0A26E0080A19E0090A11E0080A05E03F
:1000A0000B0A23E0080A21E0120000019F0EB26F44
:1000B000000EB36F010EB56FB66BC10E0FD000010D
:1000C000800EB46F23C29FF012000001A00EB26F29
:1000D000000EB36F010EB56FB66B810EB46F1200D8
:1000E0000001800EB46F22C2A0F01200D9CFE6FF4B
:1000F000E1CFD9FFE652A0940F015F6B626A536BA8
:10010000010EE66EE66AE66A540EE66E0F0EE66EC5
:10011000E7EC0BF00B6E050EE15E0B50160E616EF8
:100120000F019F0E5B6F7B0E606EDF6ADF500B6E00
:100130000C6A080E0B5C000E0C5810E2DF50040D28
:10014000F3CFE9FFF4CFEAFF000EE926020EEA2220
:10015000EE6AEE6AEE6AEE6ADF2AE8D7648C0F0177
:100160005C6B6498649C62A607D062960001B46BD5
:10017000B96BBA6BBB6BF7D70001010ECB6FCC6FBD
:10018000CD6BCE6BC16BDF6A020EDF5C26E2EA6AE2
:10019000DF34FE0BEA36E96EAC0EE926000EEA22E9
:1001A000EE6AED6AEA6ADF34FE0BEA36E96EA80E03
:1001B000E926000EEA22EE6AED6ADF50EA6AC50F10
:1001C000E96E000EEA22EF6ADF50EA6AC70FE96EB5
:1001D000000EEA22EF6ADF2AD7D70001080EAC6FC3
:1001E000020EAD6F0F01160E536F0201200E026F4B
:1001F000020E036F080E016F840E006F0001A26BE8
:10020000A16BE552E552E7CFD9FF1200D9CFE6FF47
:10021000E1CFD9FFE6520001A10507E164BA05D09C
:10022000626A60806088020EA16F6250040B06E073
:100230006050040B03E06294EEEC06F064B25AD016
:100240006250010B09E06050010B06E04FDFA08413
:100250000001040EA16F62906250100B06E0605026
:10026000100B03E0DAEC06F0629862AC19D060ACD7
:100270000FD0010EE66EE66A000EE66EE66A730EB9
:10028000E66EE66AB0EC0AF00B6E060EE15E0B500D
:10029000629C0001C95101E0C907C95101E1FDD9C2
:1002A0006250200B05E06050200B02E0C0EC06F02D
:1002B0006250020B14E06050020B11E0010EE66E7A
:1002C000E66A000EE66EE66AE6687F0EE66EB0EC61
:1002D0000AF00B6E060EE15E0B500F015F6B040E11
:1002E0000001E76EA119E8AE02D0E73402D0E75072
:1002F000A15D02E2A19439D060A636D0DF6A040E77
:10030000DF5C32E262A630D063CFC2F00001C2519E
:10031000780BE842E842E842C36F6296C2B506D065
:10032000C351EA6AC70FE96E000E05D0C351EA6AED
:10033000C50FE96E000EEA22EF70C35103E104EC31
:1003400007F010D0000EE66EE66AC20EE66E000EF2
:10035000E66E720EE66EE66AB0EC0AF00B6E060E02
:10036000E15E0B50DF2ACBD7A194E552E552E7CFEF
:10037000D9FF1200D9CFE6FFE1CFD9FF020EE12667
:10038000FD0EDBA407D0E66AFE0EDBCFE6FF14DA33
:10039000E552E552FD0EDBA208D0010EE66EFE0E20
:1003A000DBCFE6FF09DAE552E552FE0EDB500C6AC0
:1003B000530F0B6E0F0E0C220BC0DEFF0CC0DDFFC7
:1003C000DECFE9FFDDCFEAFFFD0EDBCFEFFF020E50
:1003D000E15C02E2E16AE552E16EE552E7CFD9FF66
:1003E0001200D9CFE6FFE1CFD9FF020EE126FD0EC4
:1003F000DB500AE0FE0EEA6ADB34FE0BEA36E96EF9
:10040000AC0EE926000E09D0FE0EEA6ADB34FE0BC4
:10041000EA36E96EA80EE926000EEA22EECFDEFFEC
:10042000EDCFDDFFD9CFE9FFDACFEAFFEE50ED10D7
:1004300003E1F36AF46A44D0DECFE9FFDDCFEAFFDF
:10044000020EE926000EEA22FB0EDBCFEEFFFC0EC9
:10045000DBCFEDFFDECFE9FFDDCFEAFFEE52FA0E94
:10046000DBCFEFFF400EDECFE9FFDDCFEAFFE85044
:10047000EF16880EDECFE9FFDDCFEAFFE850EF127E
:10048000FD0EDB500AE0FE0EEA6ADB34FE0BEA36B4
:10049000E96EAC0EE926000E09D0FE0EEA6ADB34E6
:1004A000FE0BEA36E96EA80EE926000EEA22EF748A
:1004B000DECF0BF0DDCF0CF00BC0F3FF0CC0F4FF70
:1004C000020EE15C02E2E16AE552E16EE552E7CF3D
:1004D000D9FF1200D9CFE6FFE1CFD9FF020EE12606
:1004E000FE0EDB5020E1A6C0E9FFA7C0EAFFEE52F6
:1004F000080EEF6EA6C0E9FFA7C0EAFF020EE926CC
:10050000000EEA22200EEE6E020EED6EA6C0E9FF8E
:10051000A7C0EAFF8C0EEF6EACC0E9FFADC0EAFFEA
:10052000840EEF6E3BD0FD0EDB50E8240D6EFE0E08
:10053000DB50040DF3500D24040DF3CF0BF0F4CF7A
:100540000CF0000E0B26020E0C220BC0DEFF0CC0BE
:10055000DDFF840EDECFE9FFDDCFEAFFE850EF12CA
:10056000FD0EDB50E8240D6EFE0EDB50040DF35043
:100570000D24010F040DF3CF0BF0F4CF0CF0000E9F
:100580000B26020E0C220BC0DEFF0CC0DDFF840E1A
:10059000DECFE9FFDDCFEAFFE850EF12020EE15CAB
:1005A00002E2E16AE552E16EE552E7CFD9FF1200BF
:1005B000D9CFE6FFE1CFD9FF64A84ED0FE0EEA6A9C
:1005C000DB34FE0BEA36E96EAC0EE926000EEA22B9
:1005D000EE50EFCFEAFFE96E400EEE16EE6AEE6ADD
:1005E000EE6AFE0EEA6ADB34FE0BEA36E96EAC0E0A
:1005F000E926000EEA22EE50EFCFEAFFE96EEE7C2C
:10060000FE0EEA6ADB34FE0BEA36E96EAC0EE92632
:10061000000EEA22EF74400E0B6EFE0EEA6ADB3427
:10062000FE0BEA36E96EAC0EE926000EEA22EE5029
:10063000EFCFEAFFE96E0B50EF16FE0EEA6ADB34ED
:10064000FE0BEA36E96EAC0EE926000EEA22EE5009
:10065000EFCFEAFFE96EEF7CE552E7CFD9FF12005A
:10066000646A606A0001A16B12000001A15114E1EB
:10067000646A606A160E616E0F019F0E5B6F7B0EDF
:10068000606ED08EA284A084F28E64B602D064869E
:10069000FCD70001010EA16F12000001CB514DE10A
:1006A000010ECB6FCC5149E1010ECC6F020EB15D52
:1006B0000DE1ACC0E9FFADC0EAFFEE52EF6AACC09D
:1006C000E9FFADC0EAFFC80EEF6E1200B10535E1DB
:1006D000C46BA4C0E9FFA5C0EAFFEE52080EEF6E9E
:1006E000A4C0E9FFA5C0EAFF020EE926000EEA2237
:1006F000200EEE6E020EED6EA4C0E9FFA5C0EAFF6B
:10070000840EEF6E010EC46FA6C0E9FFA7C0EAFF1A
:10071000EE52080EEF6EA6C0E9FFA7C0EAFF020E78
:10072000E926000EEA22200EEE6E020EED6EA6C045
:10073000E9FFA7C0EAFF800EEF6E12000001CD6B4B
:10074000CE6B020EB15D18E1A6C0E9FFA7C0EAFFBB
:10075000EE52080EEF6EA6C0E9FFA7C0EAFF020E38
:10076000E926000EEA22280EEE6E020EED6EA6C0FD
:10077000E9FFA7C0EAFF1DD0B5510201265D0001C7
:10078000B6510201275904E226C2B5F027C2B6F0DD
:10079000CAD8ACC0E9FFADC0EAFF020EE926000EE0
:1007A000EA22280EEE6E020EED6EACC0E9FFADC07F
:1007B000EAFFC80EEF6E1200D9CFE6FFE1CFD9FFF6
:1007C000020EE126000EDE6E020EDD6EFD0EDB5027
:1007D000E8240D6EFE0EDB50040DF3500D24040DC5
:1007E000F4CF0CF0D9CFE9FFDACFEAFFF350EE26D1
:1007F0000C50ED22DECFE9FFDDCFEAFFEF9EFD0ECC
:10080000DB500AE1FE0EEA6ADB34FE0BEA36E96EE3
:10081000A80EE926000E09D0FE0EEA6ADB34FE0BB4
:10082000EA36E96EAC0EE926000EEA22DECFEEFFD4
:10083000DDCFEDFFDECFE9FFDDCFEAFFEF9CDECFBE
:10084000E9FFDDCFEAFF040EE926000EEA22EF8C75
:10085000020EE15C02E2E16AE552E16EE552E7CFA9
:10086000D9FF120064980001B4BF2BD0B9AF09D0F2
:10087000020EB16FCE5101E161DF0001CC6BCB6B99
:100880001200A6C0E9FFA7C0EAFFEE52080EEF6E05
:10089000A6C0E9FFA7C0EAFF020EE926000EEA2281
:1008A000200EEE6E020EED6EA6C0E9FFA7C0EAFFB5
:1008B0008C0EEF6EACC0E9FFADC0EAFF840EEF6EA8
:1008C0001200020120AF0DD00001010EB16FCD5119
:1008D00001E134DF0001CC6BCB6BCA5123E14DEF5A
:1008E00003F00001020EB16FA6C0E9FFA7C0EAFF46
:1008F000EE52080EEF6EA6C0E9FFA7C0EAFF020E97
:10090000E926000EEA22200EEE6E020EED6EA6C063
:10091000E9FFA7C0EAFF840EEF6ECC6BCB6BCA5128
:1009200001E1BBDE1200D9CFE6FFE1CFD9FFE652ED
:10093000080EDF6E0001B55D000EB6590AE2B5C0C3
:10094000DFFFB05102E1010E03D0B00502E1020E5B
:10095000B06FDF500C6AE850B55DB56F0C50B659FA
:10096000B66FACC0E9FFADC0EAFFEE52DFCFEFFFDC
:10097000280EBE6F020EBF6FB4B118D0DF502DE04D
:10098000B2C0F6FFB3C0F7FFB22B000EB3230800CE
:10099000F550E66EBEC0E9FFBFC0EAFFBE2B000EF9
:1009A000BF23E552E750EF6EDF06E8D7DF5015E0D2
:1009B000B2C0E9FFB3C0EAFFB22B000EB323EF5081
:1009C000E66EBEC0E9FFBFC0EAFFBE2B000EBF232C
:1009D000E552E750EF6EDF06E9D7E552E552E7CF83
:1009E000D9FF1200D9CFE6FFE1CFD9FF020EE126F1
:1009F000A4C0E9FFA5C0EAFFEE52EFCFDFFFDFCFD3
:100A00000BF00B500001BA5D000EBB5902E2BAC0F8
:100A1000DFFFDF500B6E0C6AE850BA5DBA6F0C5006
:100A2000BB59BB6F010EDB6ADF50F36E010EDBCFEB
:100A3000F4FFF350F45C16E2010EDB50EA6A280F73
:100A4000E96E020EEA22EF50E66EB7C0E9FFB8C0C9
:100A5000EAFFB72B000EB823E552E750EF6E010E08
:100A6000DB2AE2D7000ED880BA55000EBB5527E22C
:100A7000A6C0E9FFA7C0EAFFEE52080EEF6EA6C0BF
:100A8000E9FFA7C0EAFF020EE926000EEA22280EBF
:100A9000EE6E020EED6EA4C0E9FFA5C0EAFFEF50B6
:100AA000400B06E1A6C0E9FFA7C0EAFFC80E05D0CB
:100AB000A6C0E9FFA7C0EAFF880EEF6E28D0A6C047
:100AC000E9FFA7C0EAFFEE52080EEF6EA6C0E9FFED
:100AD000A7C0EAFF020EE926000EEA22200EEE6E03
:100AE000020EED6EA6C0E9FFA7C0EAFF840EEF6E0E
:100AF000BC51BD1107E005D0BDC0FAFF0001BC51DB
:100B0000F96EFADF0001B99FCA5101E1C6DD020E9C
:100B1000E15C02E2E16AE552E16EE552E7CFD9FF1E
:100B20001200D9CFE6FFE1CFD9FFE6520001B48F22
:100B3000010EE66EE66AE66A540EE66E0F0EE66E8B
:100B4000E7EC0BF00B6E050EE15E0B50200EE66E2F
:100B5000E66AE66A000EE66E020EE66EE7EC0BF061
:100B60000B6E050EE15E0B50648CDF6A020EDF5CDB
:100B700010E2DF50EA6AC50FE96E000EEA22EF6A62
:100B8000DF50EA6AC70FE96E000EEA22EF6ADF2A39
:100B9000EDD7010EE66EE66AE66AA30EE66E000E7B
:100BA000E66EE7EC0BF00B6E050EE15E0B50649CFD
:100BB0000001080EAC6F020EAD6F000EA46F020EA6
:100BC000A56FA4C0A6F0A76F22C2A2F0A25102E1B5
:100BD000100E12D0010EE66EE66AA20EE66E000E50
:100BE000E66E010EE66EE66AB0EC0AF00B6E060EDB
:100BF000E15E0B500001200EA16FE552E552E7CFF8
:100C0000D9FF1200800E0201205D58E10001C00EE4
:100C1000B46F02012351030A2FE0010A09E0030A1D
:100C20004BE10001CE0EB26F150EB36F120E3ED027
:100C30002251F66EF76AD890F636F7368F0EF62602
:100C4000160EF7220900F5CFB2F00A00F5CFB3F087
:100C5000020E0001F76AB225F66EB351F7220800C2
:100C6000F5CFB5F0030EF76AB225F66EB351F72251
:100C70000800F5CFB6F01200030E225D1AE22251F1
:100C8000F66EF76AD890F636F736910EF626160EFF
:100C9000F7220900F5CFB2F00A00F5CFB3F0B2C0E9
:100CA000F6FFB3C0F7FF0800F5500001B56FB66B53
:100CB00012000001B46B12000001B46B1200D9CF16
:100CC000E6FFE1CFD9FF020EE1260201286B296B76
:100CD00020511F0B020A11E0030A0CE0010A3CE15B
:100CE0000001B48F020128810001C00535E1020135
:100CF000288332D00001B48F2FD00001B48F0201BD
:100D000024BF0BD024510F0BE96EEA6AD890E93664
:100D1000EA36A80EE926000E0AD024510F0BE96E20
:100D2000EA6AD890E936EA36AC0EE926000EEA22E5
:100D3000EECFDEFFEDCFDDFFDECFE9FFDDCFEAFF57
:100D4000EF50800B09E0DECFE9FFDDCFEAFFEF5087
:100D5000040B02E0010E286F0001B4AF07D0280E8B
:100D6000B26F020EB36FB481020EB56F020EE15C7A
:100D700002E2E16AE552E16EE552E7CFD9FF1200E7
:100D80000F0153A115D0A4C0E9FFA5C0EAFFEF50A1
:100D900080080DE1ACC0E9FFADC0EAFFEF50840868
:100DA00006E1A4C0E9FFA5C0EAFF8C0EEF6E5391E7
:100DB000629A12006084629864820001010EC16F21
:100DC000000EE66EE66AE66EE66A750EE66EE66AA6
:100DD000C7DB0B6E060EE15E0B5012000001C16B0B
:100DE000000EE66EE66AE66EE66A740EE66EE66A87
:100DF000B7DB0B6E060EE15E0B506492609462A44A
:100E000002D06294FCD71200D9CFE6FFE1CFD9FF20
:100E1000E65200012D0EC96FFD0EC21553E17E0E84
:100E2000C215E8407F0B040DF3CFA4F0F4CFA5F07A
:100E3000000EA427020EA523A4C0A6F0A5C0A7F00B
:100E4000A675A4C0E9FFA5C0EAFFEF503C0BE8423D
:100E5000E8420D0835E1DF6A080EDF5C23E2A4C03A
:100E6000E9FFA5C0EAFF020EE926000EEA22EE50D5
:100E7000EFCFEAFFE96EEF50E66EDF50EA6A200F2F
:100E8000E96E020EEA22E552E750EF6EA4C0E9FFD8
:100E9000A5C0EAFF020EE926000EEA22EE2AEF22A2
:100EA000DF2ADAD7A4C0E9FFA5C0EAFF020EE926CF
:100EB000000EEA22200EEE6E020EED6E0DD807D067
:100EC00039D805D0FD0EC215040801E158D8E55205
:100ED000E552E7CFD9FF12000001B06BCA6BCD6BB2
:100EE000CE6BC46BB16BACC0E9FFADC0EAFFEF9E47
:100EF000AC75ACC0E9FFADC0EAFFEF9EAC75A6C013
:100F0000E9FFA7C0EAFFEF9EB46BB56BB66BB96B98
:100F1000BA6BBB6B8ED8000EE66EE66AE66EE66ACA
:100F2000030EE66EE66A1CDB0B6E060EE15E0B50EE
:100F300032EF04F0020E0001B15D02E1F2EF04F0C5
:100F4000B16BC4511AE1A6C0E9FFA7C0EAFFEE5297
:100F5000080EEF6EA6C0E9FFA7C0EAFF020EE92661
:100F6000000EEA22200EEE6E020EED6EA6C0E9FF24
:100F7000A7C0EAFF8C0EEF6E1200C46B1200D9CF2F
:100F8000E6FFE1CFD9FFE652ACC0E9FFADC0EAFF12
:100F9000EF50400B01E0010EDF6E0001AC75080E52
:100FA000A15D0BE122C25CFF0F015C5103E0000177
:100FB000100E02D00001040EA16FB10526E1ACC0F5
:100FC000E9FFADC0EAFF020EE926000EEA22280E74
:100FD000EE6E020EED6EA7DC020E0001B05D06E1C2
:100FE000ACC0E9FFADC0EAFF840E0DD0DF5006E1D2
:100FF000ACC0E9FFADC0EAFFC80E05D0ACC0E9FF48
:10100000ADC0EAFF880EEF6E0FD0B9AF0CD0BC5167
:10101000BD1107E005D0BDC0FAFF0001BC51F96E5B
:10102000FADF0001B99FB16BE552E552E7CFD9FF76
:10103000120002012051600BE842E842E842E84217
:10104000E842000901E0120021510C0A4FE00B0AAE
:101050003FE00C0A31E0010A22E00B0A1EE0020A1E
:101060001CE0030A18E0080A10E0010A0CE00F0A6D
:1010700008E0030A01E012000001B48F080EA16F1E
:10108000120002EF06F091EF05F00001A20EB26F20
:10109000000EB36F0CD05FEF06F077EF08F024512D
:1010A0000001B26FB36BA30EB227000EB323B4815D
:1010B000010EB56FB48F12000001B48F02012451EC
:1010C000EA6AA30FE96E000EEA2222C2EFFF1200C5
:1010D000000EE66EE66AE66EE66A020EE66EE66A06
:1010E0003FDA0B6E060EE15E0B5012001200D9CFF4
:1010F000E6FFE1CFD9FF050EE1260201220510E14E
:1011000020511F0B00090CE10001B48F030E0201F6
:10111000215D04E10001010EC06F02D00001C06B2F
:101120000201225101E00FD120511F0B020801E002
:101130000AD124510F0B000901E105D124510F0BF5
:10114000010801E200D1200E0001A15D01E0FBD009
:10115000B48F020124BF16D024510F0BE96EEA6A46
:10116000D890E936EA36A80EE926000EEA22EECF3C
:10117000DEFFEDCFDDFF24510F0BEA6AC70FE96EEA
:10118000000E15D024510F0BE96EEA6AD890E936AB
:10119000EA36AC0EE926000EEA22EECFDEFFEDCFF6
:1011A000DDFF24510F0BEA6AC50FE96E000EEA223B
:1011B000020EEFCFDBFFD950020FE96EDACFEAFF64
:1011C000EF50010B03E1000EDF9401D0DF8424BF58
:1011D0000BD024510F0BE96EEA6AD890E936EA3653
:1011E000A80EE926000E0AD024510F0BE96EEA6A18
:1011F000D890E936EA36AC0EE926000EEA22DECFB8
:10120000EEFFDDCFEDFF030E215D20E1DECFE9FF34
:10121000DDCFEAFFEF50800B11E024BF07D024514F
:101220000F0BEA6AC70FE96E000E06D024510F0BB0
:10123000EA6AC50FE96E000EEA22EF82840EDECF65
:10124000E9FFDDCFEAFFE850EF127DD0DF74DECF9B
:10125000E9FFDDCFEAFFEF50800B1AE0DECFE9FFB8
:10126000DDCFEAFFEF9EDECFE9FFDDCFEAFFEF8CB7
:10127000020EE66EE66ADECFE6FFDDCFE6FF050E84
:10128000E66EE66A6DD90B6E060EE15E0B5005D078
:10129000DECFE9FFDDCFEAFFEF8CDF74D950020F1C
:1012A000E96EDACFEAFFEF50020B07E1DECFE9FF8C
:1012B000DDCFEAFFEF50800B2AE0020124BF07D008
:1012C00024510F0BEA6AC70FE96E000E06D02451B5
:1012D0000F0BEA6AC50FE96E000EEA22EF923B0E91
:1012E0000B6EDECFE9FFDDCFEAFFE850EF16020E0E
:1012F000E66EE66ADECFE6FFDDCFE6FF050EE66EC0
:10130000E66A2ED90B6E060EE15E0B5007D03B0E3F
:10131000DECFE9FFDDCFEAFFE850EF1602012451EE
:101320000F0B0C6A530F0B6E0F0E0C22030E0BC02B
:10133000DBFF040E0CC0DBFF030EDBCFE9FF040E66
:10134000DBCFEAFFEF90050EE15C02E2E16AE552D5
:10135000E16EE552E7CFD9FF1200DACFE4FFE2CF2A
:10136000DAFFE9CFE4FFEACFE4FFF6CFE4FFF7CFFF
:10137000E4FFF5CFE4FFF3CFE4FFF4CFE4FFFACFCF
:10138000E4FF00EE00F00B0EE80403E3EECFE4FF11
:10139000FBD700EE0BF0030EE80403E3EECFE4FF0F
:1013A000FBD7E65206EC01F0E55200EE0DF0030E1D
:1013B000E80403E3E5CFEDFFFBD700EE0AF00B0EE8
:1013C000E80403E3E5CFEDFFFBD7E5CFFAFFE5CF78
:1013D000F4FFE5CFF3FFE5CFF5FFE5CFF7FFE5CF6E
:1013E000F6FFE5CFEAFFE5CFE9FFE5CFDAFF110031
:1013F000D8CFE4FFE0CFE4FFE46EDACFE4FFE652BB
:10140000E552E5CFDAFFE550E5CFE0FFE5CFD8FFC5
:1014100010000F0EC112946A8B6A700EE66E020EF7
:10142000E66E9BEC0BF0E552E552B1EC0BF0B5EC3F
:101430000BF076EF00F0EDDF0201406B416B35EC15
:1014400003F006EC01F0200E0001A15D03E1645001
:10145000020B09E0600EE66E000EE66EC7EC0BF0C4
:10146000E552E552EED7880EE66E000EE66EC7EC4A
:101470000BF0E552E552200E0001E76EA119E8AE2F
:1014800002D0E73402D0E750A15DDBE36450020BE9
:10149000D8E100019B519C1102E1000E08D09BC0D5
:1014A000E9FF9CC0EAFFEF50800B01E0010E00094C
:1014B000C8E10201305127E100019D519E1102E176
:1014C000000E08D09DC0E9FF9EC0EAFFEF50800BE0
:1014D00001E0010E000917E141C238F240C239F2C1
:1014E000080EE66E380EE66E020EE66E010EE66E31
:1014F000E66EF1EC01F00B6E050EE15E0B50F3CFE2
:101500009DF0F4CF9EF00201300516E1310503E1B4
:10151000010E416F01D0416B320503E1010E406FB6
:1015200001D0406B415102E08B8C01D08B9C40512B
:1015300002E08B8E01D08B9E080EE66E300EE66EBA
:10154000020EE66EE66A010EE66EF1EC01F00B6E3D
:10155000050EE15E0B50F3CF9BF0F4CF9CF071D7FA
:10156000D9CFE6FFE1CFD9FFFD0EDBCF06F0FE0EAF
:10157000DBCF07F0030E061801E1075021E0010E52
:10158000061820E107501EE11E0EE66E010EE66E03
:10159000BAEC01F0E552E552080EE66E300EE66E4A
:1015A000020EE66EE66A010EE66EF1EC01F00B6EDD
:1015B000050EE15E0B50F3CF9BF0F4CF9CF002D010
:0E15C00016EC00F0010EE552E7CFD9FF120045
:0215CE00120108
:1015D000000200000008D80402010200010200011C
:1015E00009022900010100C03209040000020300C1
:1015F00000000921110100012220000705810308D4
:101600000001070501030800010403090434034D28
:10161000006900630072006F006300680069007079
:1016200000200054006500630068006E006F006CCD
:10163000006F0067007900200049006E0063002EF3
:10164000002E03530069006D0070006C00650020DF
:10165000004800490044002000440065007600690D
:1016600000630065002000440065006D006F000607
:1016700000FF0901A10119012908150025FF7508BE
:101680009508810019012908750895089100C0E0A6
:071690001509160D164116A5
:081698001E0EF66E000EF76E47
:1016A000000EF86E00010900F550D46F0900F550E6
:1016B000D56F03E1D46701D03DD00900F550CF6F5D
:1016C0000900F550D06F0900F550D16F09000900ED
:1016D000F550E96E0900F550EA6E090009000900AD
:1016E000F550D26F0900F550D36F09000900F6CF0D
:1016F000D6F0F7CFD7F0F8CFD8F0CFC0F6FFD0C0F4
:10170000F7FFD1C0F8FF0001D25302E1D35307E045
:101710000900F550EE6ED207F8E2D307F9D7D6C02C
:10172000F6FFD7C0F7FFD8C0F8FF0001D407000EBE
:06173000D55BBFD71200DB
:0A173600D9CFE6FFE1CFD9FFAC8464
:10174000B886FD0EDB50AF6E948C948EAC98AB8E49
:10175000AC8A9D8AF28EF28CAB88E552E7CFD9FF36
:101760001200B898AC8AAD6A12009D8AF28EF28C93
:10177000AB881200D9CFE6FFE1CFD9FFACA2FED7EC
:10178000FE0EDB50AD6EE552E7CFD9FF1200D9CF88
:10179000E6FFE1CFD9FFFD0EDBCFE9FFFE0EDBCF89
:1017A000EAFFEF5010E0FD0EDBCFE9FFFE0EDBCFCE
:1017B000EAFFEF50E66EDEDFE552FD0EDB2AFE0E9D
:0E17C000EAE3DB2AE8D7E552E7CFD9FF1200B3
:0217CE00FE0E0D
:1017D000E3CFE9FFFF0EE3CFEAFFE9CFF3FFEACF64
:1017E000F4FFFB0EE35003E1FC0EE35009E0FB0EB7
:1017F000E30602E2FC0EE306FD0EE350EE6EF1D7C7
:021800001200D4
:0E180200000EF36E00EE00F0030E01D812008F
:10181000EA6002D0EE6AFCD7F350E9601200EE6A8B
:02182000FCD7F3
:0E18220011EE00F021EE00F0F86A0A9C4CEC8A
:0E1830000BF003EC00F01BEC0AF0FBD71200EB
:02183E005379DC
:101840007374656D2069732053757070656E696E71
:1018500067206F7220436F6E6E656374696F6E20D0
:101860006661696C6500636F6E6E656374696F6E47
:0D1870002073756363657373000000000052
:020000040030CA
:0100000000FF
:0100010032CC
:0100020001FC
:010003001EDE
:01000500807A
:010006008178
:0100080003F4
:01000900C036
:01000A0003F2
:01000B00E014
:01000C0003F0
:01000D0040B2
:00000001FF
