:020000040000fa
:080000000002040000000000f2
:020000040000fa
:100400008f8420000e7f22000e0188000000000073
:100410000c000700807f2000010020000f00070073
:10042000000020000000e000020032000000020096
:100430000000000044070200000000000040da0055
:100440000000fe00000120000000e0000200320079
:10045000002020009001880000000600a102880012
:10046000800078000000eb001a003700e2804000b6
:1004700054a0b4009101ba00e280400054a0b4003e
:100480009102ba00e280400054a0b4000002eb00e8
:10049000472bde00f507b200a6018800602ce100c2
:1004a00008003a000049eb000201e80002003900b0
:1004b0003420ec0002f0a0008301e900f9ff3e00c7
:1004c000040037006128e100010032000082eb00e7
:1004d000040007001101ba000200e000e3ff3a0047
:1004e0000000060004d0a300e20f49001c00390000
:1004f000810278003549ba000201e80002003900a3
:100500003420ec0002f0a0008301e9000f0032006b
:100510002549ba000201e800020039003420ec004d
:1005200002f0a0008301e900080032000400e000ae
:100530000600320015c9ba000201e80002003900c5
:100540003420ec0002f0a0008301e9008180e80083
:1005500054a0b4000300e000e2ff3a0000000600ef
:100560009102ba00055978008301e900f7ff3200d3
:10057000c82ade00055978008301e900f3ff320044
:100580000400e000f1ff320011d9ba00eeff37009d
:080590000040da000000fe004b
:020000040000fa
:020000040002f8
:04aff400ffff00005b
:020000040000fa
:020000040002f8
:04aff8002ef800002f
:020000040000fa
:020000040002f8
:04affc00d93f000039
:020000040000fa
:10000800c8020000c8020000c8020000c8020000c0
:10001800c8020000c8020000c8020000c8020000b0
:10002800c8020000c8020000c8020000c8020000a0
:10003800c8020000c8020000c8020000c802000090
:10004800c8020000c8020000c8020000c802000080
:10005800c8020000c8020000c8020000c802000070
:10006800c8020000c8020000c8020000c802000060
:10007800c8020000c8020000c8020000c802000050
:10008800c8020000c8020000c8020000c802000040
:10009800c8020000c8020000a8070000c80200004b
:1000a800c8020000c8020000c8020000c802000020
:1000b800c8020000c8020000c8020000c802000010
:1000c800c8020000c8020000c8020000c802000000
:1000d800c8020000c8020000c8020000c8020000f0
:1000e800c8020000c8020000c8020000c8020000e0
:1000f800c8020000c8020000c8020000c8020000d0
:10010800c8020000c8020000c8020000c8020000bf
:10011800c8020000c8020000c8020000c8020000af
:10012800c8020000c8020000c8020000c80200009f
:10013800c8020000c8020000c8020000c80200008f
:10014800c8020000c8020000c8020000c80200007f
:10015800c8020000c8020000c8020000c80200006f
:10016800c8020000c8020000c8020000c80200005f
:10017800c8020000c8020000c8020000c80200004f
:10018800c8020000c8020000c8020000c80200003f
:10019800c8020000c8020000c8020000c80200002f
:1001a800c8020000c8020000c8020000c80200001f
:1001b800c8020000c8020000c8020000c80200000f
:1001c800c8020000c8020000c8020000c8020000ff
:1001d800c8020000c8020000c8020000c8020000ef
:1001e800c8020000c8020000c8020000c8020000df
:0801f800c8020000c80200006b
:020000040000fa
:10020800c8020000c8020000c8020000c8020000be
:10021800c8020000c8020000c8020000c8020000ae
:10022800c8020000c8020000c8020000c80200009e
:10023800c8020000c8020000c8020000c80200008e
:10024800c8020000c8020000c8020000c80200007e
:10025800c8020000c8020000c8020000c80200006e
:10026800c8020000c8020000c8020000c80200005e
:10027800c8020000c8020000c8020000c80200004e
:10028800c8020000c8020000c8020000c80200003e
:10029800c8020000c8020000a8070000c802000049
:1002a800c8020000c8020000c8020000c80200001e
:1002b800c8020000c8020000c8020000c80200000e
:1002c800c8020000c8020000c8020000c8020000fe
:1002d800c8020000c8020000c8020000c8020000ee
:1002e800c8020000c8020000c8020000c8020000de
:1002f800c8020000c8020000c8020000c8020000ce
:10030800c8020000c8020000c8020000c8020000bd
:10031800c8020000c8020000c8020000c8020000ad
:10032800c8020000c8020000c8020000c80200009d
:10033800c8020000c8020000c8020000c80200008d
:10034800c8020000c8020000c8020000c80200007d
:10035800c8020000c8020000c8020000c80200006d
:10036800c8020000c8020000c8020000c80200005d
:10037800c8020000c8020000c8020000c80200004d
:10038800c8020000c8020000c8020000c80200003d
:10039800c8020000c8020000c8020000c80200002d
:1003a800c8020000c8020000c8020000c80200001d
:1003b800c8020000c8020000c8020000c80200000d
:1003c800c8020000c8020000c8020000c8020000fd
:1003d800c8020000c8020000c8020000c8020000ed
:1003e800c8020000c8020000c8020000c8020000dd
:0803f800c8020000c802000069
:020000040000fa
:1005980030310000323300003435000036370000b7
:1005a800383900004142000043440000454600003d
:020000040000fa
:1005b8000200fa00004f78001e40780099010700f9
:1005c8000080fa00000006000600fa0010079800f4
:1005d800210798000000eb00000f78000000eb00f6
:1005e800000f7800060037009e0078001e0090007b
:1005f8000080400010407800edff07001e0fe80063
:100608002e0090009e0f1000f7ff39000080fa00be
:10061800000006000800fa00881f780010079800fc
:10062800210798000040eb00004f78000040eb00e5
:10063800004f78000d0037001e80fb008000780016
:100648001e00900000844000a5010700004c7800bf
:100658001e80fb00800078001e0090000080400093
:1006680010407800b40107001e4fe8009e80fb0090
:100678002e009000808f5000efff39001e00900080
:100688009040780060c7b30080cf500003003a0064
:100698001000200030079800020037000000eb002f
:1006a800300798003e0090004f0478000080fa0060
:1006b800000006000e00fa000040eb00004f780032
:1006c8005100200000802000bfff07000e00e80056
:1006d80041002000cfff07000004e00003003a00bb
:1006e8000000eb0060079800150037000040eb00a1
:1006f800004f78000d0037009e80fb000e00e800d8
:10070800614178009e80fb005080200000804000fe
:1007180010407800804f5100030032000000eb00c9
:1007280060079800060037001e4fe80030c0b3008d
:100738009e4f1000f0ff3600100020006007980060
:100748006e0090000080fa00000006000e00fa001b
:100758000040eb00004f780051002000308120005d
:1007680099ff07000e00e80091002000a9ff07008c
:100778000004e00003003a000000eb006007980066
:100788001f0037000040eb00004f78000d003700d5
:100798009e80fb000e00e800614178009e80fb000f
:1007a800808120000080400010407800804f510078
:1007b800030032000000eb006007980010003700cb
:1007c8001e4fe80080c0b3009e4f1000f0ff3600b7
:1007d8000e00e8007040900042e8b7000e00e80004
:1007e8000048900043e8b700318420009140780029
:1007f80042c8bf00050007001000200060079800ed
:100808006e0090000080fa00000006000200fa0066
:10081800004f7800114798001e80fb00c800dd00db
:100828001e4090000080fb0000804000cf80de006a
:1008380020428800314288000080fa00000006004b
:100848000800fa000040eb00004f7800510020003b
:10085800908020005cff07000e00e8005100200097
:100868006cff07000004e00003003a000000eb0002
:1008780030079800150037000040eb00004f780063
:100888000d0037009e80fb000e00e80061417800f3
:100898009e80fb00e080200000804000104078002f
:1008a800804f5100030032000000eb003007980031
:1008b800060037001e4fe80080c0b3009e4f1000ae
:1008c800f0ff360010002000300798003e0090002e
:1008d8000080fa00000006000a00fa0020079800cd
:1008e8006000b800008fbe002242800033428000c2
:1008f80000f4210001002000800f5100818f590071
:10090800040036006000b8003007980041079800de
:100918008200370001012000f08120002aff070033
:100928002042800031428000ea0040002e00900002
:1009380038ff07000004e00004003a006000b80037
:100948003007980041079800740037006000b8002d
:10095800008fbe00130037001e007800800078006a
:100968002e00900000804000904178001e00be00dc
:10097800f2822000020040001040780080cf510031
:10098800040032006000b800300798004107980062
:100998006200370010002000010020001e0f4000f8
:1009a8005e9748004000200001002000be0f1000a4
:1009b800ae8f1800e8ff36006000b800008fbe0058
:1009c800140037001e007800800078002e00900088
:1009d8000080400065004000904178001e00be0085
:1009e800f2812000020040001040780080cf5100c2
:1009f800040032006000b8003007980041079800f2
:100a08004600370010002000010020001e0f4000a3
:100a18005e9748004000200001002000be0f100033
:100a2800ae8f1800e7ff36002e00900065004000ea
:100a380010407800e14f400019003a002e00900065
:100a4800660040009040780080cdb30080cf500011
:100a580013003a0020428000314280008000780074
:100a68002e00900000804000630040001040780095
:100a7800e14f40000a003a002042800031428000e5
:100a8800800078002e009000008040006400400044
:100a98009040780090cdb30080cf50000400320021
:100aa8006000b80030079800410798001b00370025
:100ab8006000b800008fbe000f0037001e007800ed
:100ac800800078002e009000008140001e00780011
:100ad800800078002e0090000080400065004000f3
:100ae8001040780000497800100020000100200024
:100af8001e0f40005e97480020428000314280006f
:100b0800be0f1000ae8f1800ecff390020428000a5
:100b18003142800030079800410798003e0090005d
:100b2800ce0090000080fa00000006000a00fa00db
:100b38002007980042ff07000004e0001000320080
:100b480002ff07000004e0000d0032002e009000b4
:100b580061ff0700008fbe006000b800008fbe0074
:100b68001e00be00e00f5000e08f580004003a005d
:100b78001e00be00300798004107980003003700a8
:100b88006000b80030079800410798003e009000c8
:100b9800ce0090000080fa00000006000000fa0075
:100ba800c0002000c01188000000280080118800c3
:100bb800004022009011880097c0a80087c0a900b3
:100bc8000080fa00000006000600fa0010079800ee
:100bd800020037001e407800120007001e00900037
:100be80010407800004f78001e4078004047980079
:100bf8004e4090000004e0000200320010c0b30034
:100c0800404798004e4090009e0090008100e80008
:100c1800110798000004e000eeff3a000080fa0097
:100c2800000006000200fa00004f780033c2bf003f
:100c3800614060000004e000fcff32001e80fb0001
:100c4800a01188000080fa00000006000400fa00e5
:100c5800204798002e409000004f78002e409000ca
:100c68000080fb004400de006f40600020479800d1
:100c78002e4090008080fb00c02c28006140780046
:100c8800e8ff07009e4078006fc06000204798008a
:100c98002e4090008080fb00c02c28006140780026
:100ca800e0ff07000080fa00000006000400fa00d8
:100cb800100798001e0090004800de0010479800ba
:100cc8001e009000004f78001e409000dfff0700d4
:100cd8001e407800ddff07000080fa0000000600d3
:100ce8000200fa0032c2bf00614060000004e00068
:100cf800fcff3200b0118000004f78001e407800e1
:100d08000080fb000080fa00000006000000fa00e6
:100d1800c0002000401188009560a8008560a900e7
:100d280000002800001188000040200010118800f1
:100d38000080fa00000006000200fa00004f780068
:100d480023c2bf00614060000004e000fcff3200e5
:100d58001e80fb00201188000080fa0000000600b9
:100d68000600fa0010079800020037001e407800bd
:100d7800f1ff07001e00900010407800004f780037
:100d88001e407800404798004e4090000004e00064
:100d98000200320010c0b300404798004e40900057
:100da8009e0090008100e800110798000004e00010
:100db800eeff3a000080fa00000006000400fa0086
:100dc800204798002e409000004f78002e40900059
:100dd8000080fb004400de006f4060002047980060
:100de8002e4090008080fb00c02c280061407800d5
:100df800d1ff07009e4078006fc060002047980030
:100e08002e4090008080fb00c02c280061407800b4
:100e1800c9ff07000080fa00000006000400fa007d
:100e2800100798001e0090004800de001047980048
:100e38001e009000004f78001e409000dfff070062
:100e48001e407800ddff07000080fa000000060061
:100e58000200fa0085c0bf00684060000004e0009e
:100e6800fcff320030118000004f78008560a90037
:100e78001e4078000080fb000080fa000000060099
:100e88000001fa0010002200103a88000000eb0070
:100e9800203a880021742000620420007305200095
:100ea800824878008348780042c7a900616a200018
:100eb8009140780000ccb30000c060008041b300ce
:100ec800a6e6b700716d20009140780000ccb30011
:100ed80000c060005040b300d7e6b700416a200068
:100ee8009140780000ccb30000c060006041b300be
:100ef800a4e6b700916d20009140780000ccb300c3
:100f080000c060003040b300d9e6b700217420006b
:100f18006204200073052000824878008348780026
:100f280042c7a8000060fe0040a7a800e862a90028
:100f3800ec62a80019ff070074ff0700ddfd070039
:100f48009eff0700ffff3700809fbe00821f7800ca
:100f58003200f80000202000900188000000fa000c
:100f680087c0a900ecc2bf000080fb004300de0080
:100f78006140600000c0ea006140600061406000bc
:100f88004301dd00c12e20009140780070cfb300ee
:100f980000c0600002407000ece2b700ecc2bf0085
:100fa8000080fb004300de006140600000c0ea00f2
:100fb80061406000614060004301dd00c12e2000f7
:100fc8009140780070cfb30000c06000024070000c
:100fd800ece2b7000080fa003200f9004f01780017
:080fe8004f00be0000400600ae
:020000040000fa
:100ff00000080000420000008200000056002600a9
:101000000000760000260000560036000100760041
:101010000036000000560000340100007600340065
:101020000004000000560000320c00000a0000001e
:10103000000000000000000000ff76000032000009
:101040000056000031050100011204008076000006
:10105000310000004208000006000000800000008f
:04106000000000008c
:020000040000fa
:101064000400fa002047980040c0b30010479800dd
:10107400a0cfb300004f78001e4fe9001e04e0002b
:10108400fdff3a001e4090000040e9001047980020
:101094001e4090000004e000f5ff3a002e4090004e
:1010a4000040e900204798002e4090000004e00032
:0c10b400edff3a000080fa00000006008a
:00000001FF
