:020000040000FA
:1000000099EF01F0120FF66E000EF7220900F5507D
:100010001200E603F50304041304220430043F0431
:100020004E045D046C047A0489049804A604B504A3
:10003000C304D204E004EF04FD040B0519052705F1
:100040003505430551055F056C057A05870594055F
:10005000A205AF05BC05C905D505E205EF05FB0501
:10006000070613061F062B06370642064E065906DC
:1000700064066F067A0684068F069906A306AD0607
:10008000B706C106CA06D306DC06E506EE06F60686
:10009000FE0607070E0716071E0725072C0733075E
:1000A0003907400746074C07520758075D076207A4
:1000B00067076C077007740778077C07800783075A
:1000C000860789078C078E07910793079407960781
:1000D0009707980799079A079A079A079A079A071E
:1000E00099079807970796079407930791078E0734
:1000F0008C0789078607830780077C0778077407C2
:1001000070076C07670762075D07580752074C07BF
:1001100046074007390733072C0725071E07160730
:100120000E070707FE06F606EE06E506DC06D30612
:10013000CA06C106B706AD06A30699068F06840651
:100140007A066F06640659064E06420637062B06E7
:100150001F0613060706FB05EF05E205D505C905D1
:10016000BC05AF05A205940587057A056C055F05FA
:10017000510543053505270519050B05FD04EF0459
:10018000E004D204C304B504A604980489047A04E4
:100190006C045D044E043F04300422041304040480
:1001A000F503E603D703C803B903AA039C038D0331
:1001B0007E036F03600352034303340326031703D4
:1001C0000903FA02EC02DD02CF02C102B302A5026A
:1001D000970289027B026D026002520245023802D8
:1001E0002A021D0210020302F701EA01DD01D1011A
:1001F000C501B901AD01A10195018A017E0173011B
:1002000068015D01520148013D01330129011F01CF
:1002100015010B010201F900F000E700DE00D60035
:10022000CE00C500BE00B600AE00A700A000990039
:1002300093008C00860080007A0074006F006A00D2
:10024000650060005C005800540050004C004900FC
:100250004600430040003E003B00390038003600B5
:1002600035003400330032003200320032003200F8
:100270003300340035003600380039003B003E00C2
:1002800040004300460049004C0050005400580014
:100290005C00600065006A006F0074007A008000F6
:1002A00086008C0093009900A000A700AE00B60065
:1002B000BE00C500CE00D600DE00E700F000F90069
:1002C00002010B0115011F01290133013D01480104
:1002D00052015D01680173017E018A019501A1014E
:1002E000AD01B901C501D101DD01EA01F701030248
:1002F00010021D022A0238024502520260026D02FB
:100300007B0289029702A502B302C102CF02DE027C
:10031000EC02FA02090317032603340343035203D2
:1003200060036F037E038D039C03AA03B903C80314
:10033000D703F86AD09EEA6AE96AB990C19CC19E67
:10034000000EB86E056A066A076A086A8F0E096EA3
:10035000010E0A6E0B6A0C6A300E6F6EFF0E6B6E2A
:100360006E6A7F6A800E7E6E0A0E6D6E7D6A7C6A92
:10037000F30E7B6E010E7A6E716A706AA4A881D04A
:100380007D506308D8B07DD0D8900534006E063417
:10039000016E0734026E0834036EF2CF0DF0F29E48
:1003A00001C0F7FF00502EDE0900F5CF03F00DBEAF
:1003B000F28E6E82796E03C078FF6E92010E052672
:1003C000D8B0062AD8B4072AD8B4082AD890093455
:1003D000006E0A34016E0B34026E0C34036EF2CFE1
:1003E0000DF0F29E01C0F7FF00500CDE0900F5CFC2
:1003F00003F00DBEF28E6E82776E03C076FF6E92B2
:10040000FF0E0926D8A00A26D8A00B26D8A00C26B5
:10041000A49808520AE1075208E10650000809E2D0
:10042000FF0A03E105508F0804E2086A076A066ABA
:10043000056A095226E10A5224E10B5222E10C52CC
:1004400020E1D8900934006E0A34016E0B34026E3C
:100450000C34036EF2CF0DF0F29E01C0F7FF005096
:10046000D1DD0900F5CF03F00DBEF28E6E82776EFE
:1004700003C076FF6E920C6A0B6A010E0A6E8F0E35
:06048000096E7CD70300A9
:020000040030CA
:0E00000000C60E3E3C9D81000FC00FE00F4079
:00000001FF
;PIC18F4431
