:020000040000FA
:060000009FEF0BF012005F
:020006001200E6
:06000800ADEF09F012004B
:02000E000000F0
:020010000000EE
:06001800F8EF09F01200F0
:02001E000100DF
:0C0020000E0000009A0000000400000028
:04002C00020120515C
:100030001F0B010801E01200245101E01200060E1E
:10004000215D1AE12351230A17E0010A0BE0030A9C
:1000500013E10001630510E1A60E736F150E746FB6
:10006000090E06D00001230E736F160E746F200E5A
:10007000766F776BC00E756F02012051600BE842FE
:10008000E842E842E842E842010801E0120021515A
:100090000B0A26E0080A19E0090A11E0080A05E03F
:1000A0000B0A23E0080A21E012000001600E736FC2
:1000B000000E746F010E766F776BC10E0FD00001CA
:1000C000800E756F23C260F012000001610E736F25
:1000D000000E746F010E766F776B810E756F1200D4
:1000E0000001800E756F22C261F01200D9CFE6FFC9
:1000F000E1CFD9FFE652A0940F015F6B626A536BA8
:10010000010EE66EE66AE66A540EE66E0F0EE66EC5
:1001100075EC0BF00B6E050EE15E0B50160E616E6A
:100120000F019F0E5B6F7B0E606EDF6ADF500B6E00
:100130000C6A080E0B5C000E0C5810E2DF50040D28
:10014000F3CFE9FFF4CFEAFF000EE926020EEA2220
:10015000EE6AEE6AEE6AEE6ADF2AE8D7648C0F0177
:100160005C6B6498649C62A607D062960001756B14
:100170007A6B7B6B7C6BF7D70001010E8C6F8D6FF8
:100180008E6B8F6B826BDF6A020EDF5C26E2EA6A9F
:10019000DF34FE0BEA36E96E6D0EE926000EEA2228
:1001A000EE6AED6AEA6ADF34FE0BEA36E96E690E42
:1001B000E926000EEA22EE6AED6ADF50EA6A860F4F
:1001C000E96E000EEA22EF6ADF50EA6A880FE96EF4
:1001D000000EEA22EF6ADF2AD7D70001080E6D6F02
:1001E000020E6E6F0F01160E536F0201200E026F8A
:1001F000020E036F080E016F840E006F0001636B27
:10020000626BE552E552E7CFD9FF1200D9CFE6FF86
:10021000E1CFD9FFE6520001620507E164BA05D0DB
:10022000626A60806088020E626F6250040B06E0B2
:100230006050040B03E06294EEEC06F064B25AD016
:100240006250010B09E06050010B06E04FDFA08413
:100250000001040E626F62906250100B06E0605065
:10026000100B03E0DAEC06F0629862AC19D060ACD7
:100270000FD0010EE66EE66A000EE66EE66A730EB9
:10028000E66EE66A8AEC0AF00B6E060EE15E0B5033
:10029000629C00018A5101E08A078A5101E1FDD97F
:1002A0006250200B05E06050200B02E0C0EC06F02D
:1002B0006250020B14E06050020B11E0010EE66E7A
:1002C000E66A000EE66EE66AE6687F0EE66E8AEC87
:1002D0000AF00B6E060EE15E0B500F015F6B040E11
:1002E0000001E76E6219E8AE02D0E73402D0E750B1
:1002F000625D02E2A19439D060A636D0DF6A040EB6
:10030000DF5C32E262A630D063CF83F0000183511C
:10031000780BE842E842E842846F629683B506D0E3
:100320008451EA6A880FE96E000E05D08451EA6AAA
:10033000860FE96E000EEA22EF70845103E104ECAF
:1003400007F010D0000EE66EE66A830EE66E000E31
:10035000E66E720EE66EE66A8AEC0AF00B6E060E28
:10036000E15E0B50DF2ACBD7A194E552E552E7CFEF
:10037000D9FF1200D9CFE6FFE1CFD9FF020EE12667
:10038000FD0EDBA407D0E66AFE0EDBCFE6FF14DA33
:10039000E552E552FD0EDBA208D0010EE66EFE0E20
:1003A000DBCFE6FF09DAE552E552FE0EDB500C6AC0
:1003B000530F0B6E0F0E0C220BC0DEFF0CC0DDFFC7
:1003C000DECFE9FFDDCFEAFFFD0EDBCFEFFF020E50
:1003D000E15C02E2E16AE552E16EE552E7CFD9FF66
:1003E0001200D9CFE6FFE1CFD9FF020EE126FD0EC4
:1003F000DB500AE0FE0EEA6ADB34FE0BEA36E96EF9
:100400006D0EE926000E09D0FE0EEA6ADB34FE0B03
:10041000EA36E96E690EE926000EEA22EECFDEFF2B
:10042000EDCFDDFFD9CFE9FFDACFEAFFEE50ED10D7
:1004300003E1F36AF46A44D0DECFE9FFDDCFEAFFDF
:10044000020EE926000EEA22FB0EDBCFEEFFFC0EC9
:10045000DBCFEDFFDECFE9FFDDCFEAFFEE52FA0E94
:10046000DBCFEFFF400EDECFE9FFDDCFEAFFE85044
:10047000EF16880EDECFE9FFDDCFEAFFE850EF127E
:10048000FD0EDB500AE0FE0EEA6ADB34FE0BEA36B4
:10049000E96E6D0EE926000E09D0FE0EEA6ADB3425
:1004A000FE0BEA36E96E690EE926000EEA22EF74C9
:1004B000DECF0BF0DDCF0CF00BC0F3FF0CC0F4FF70
:1004C000020EE15C02E2E16AE552E16EE552E7CF3D
:1004D000D9FF1200D9CFE6FFE1CFD9FF020EE12606
:1004E000FE0EDB5020E167C0E9FF68C0EAFFEE5274
:1004F000080EEF6E67C0E9FF68C0EAFF020EE9264A
:10050000000EEA22200EEE6E020EED6E67C0E9FFCD
:1005100068C0EAFF8C0EEF6E6DC0E9FF6EC0EAFFA7
:10052000840EEF6E3BD0FD0EDB50E8240D6EFE0E08
:10053000DB50040DF3500D24040DF3CF0BF0F4CF7A
:100540000CF0000E0B26020E0C220BC0DEFF0CC0BE
:10055000DDFF840EDECFE9FFDDCFEAFFE850EF12CA
:10056000FD0EDB50E8240D6EFE0EDB50040DF35043
:100570000D24010F040DF3CF0BF0F4CF0CF0000E9F
:100580000B26020E0C220BC0DEFF0CC0DDFF840E1A
:10059000DECFE9FFDDCFEAFFE850EF12020EE15CAB
:1005A00002E2E16AE552E16EE552E7CFD9FF1200BF
:1005B000D9CFE6FFE1CFD9FF64A84ED0FE0EEA6A9C
:1005C000DB34FE0BEA36E96E6D0EE926000EEA22F8
:1005D000EE50EFCFEAFFE96E400EEE16EE6AEE6ADD
:1005E000EE6AFE0EEA6ADB34FE0BEA36E96E6D0E49
:1005F000E926000EEA22EE50EFCFEAFFE96EEE7C2C
:10060000FE0EEA6ADB34FE0BEA36E96E6D0EE92671
:10061000000EEA22EF74400E0B6EFE0EEA6ADB3427
:10062000FE0BEA36E96E6D0EE926000EEA22EE5068
:10063000EFCFEAFFE96E0B50EF16FE0EEA6ADB34ED
:10064000FE0BEA36E96E6D0EE926000EEA22EE5048
:10065000EFCFEAFFE96EEF7CE552E7CFD9FF12005A
:10066000646A606A0001626B12000001625114E169
:10067000646A606A160E616E0F019F0E5B6F7B0EDF
:10068000606ED08EA284A084F28E64B602D064869E
:10069000FCD70001010E626F120000018C514DE188
:1006A000010E8C6F8D5149E1010E8D6F020E725D4E
:1006B0000DE16DC0E9FF6EC0EAFFEE52EF6A6DC05A
:1006C000E9FF6EC0EAFFC80EEF6E1200720535E159
:1006D000856B65C0E9FF66C0EAFFEE52080EEF6E5B
:1006E00065C0E9FF66C0EAFF020EE926000EEA22B5
:1006F000200EEE6E020EED6E65C0E9FF66C0EAFFE9
:10070000840EEF6E010E856F67C0E9FF68C0EAFFD7
:10071000EE52080EEF6E67C0E9FF68C0EAFF020EF6
:10072000E926000EEA22200EEE6E020EED6E67C084
:10073000E9FF68C0EAFF800EEF6E120000018E6BC9
:100740008F6B020E725D18E167C0E9FF68C0EAFFB7
:10075000EE52080EEF6E67C0E9FF68C0EAFF020EB6
:10076000E926000EEA22280EEE6E020EED6E67C03C
:10077000E9FF68C0EAFF1DD076510201265D000145
:1007800077510201275904E226C276F027C277F09A
:10079000CAD86DC0E9FF6EC0EAFF020EE926000E5E
:1007A000EA22280EEE6E020EED6E6DC0E9FF6EC0FD
:1007B000EAFFC80EEF6E1200D9CFE6FFE1CFD9FFF6
:1007C000020EE126000EDE6E020EDD6EFD0EDB5027
:1007D000E8240D6EFE0EDB50040DF3500D24040DC5
:1007E000F4CF0CF0D9CFE9FFDACFEAFFF350EE26D1
:1007F0000C50ED22DECFE9FFDDCFEAFFEF9EFD0ECC
:10080000DB500AE1FE0EEA6ADB34FE0BEA36E96EE3
:10081000690EE926000E09D0FE0EEA6ADB34FE0BF3
:10082000EA36E96E6D0EE926000EEA22DECFEEFF13
:10083000DDCFEDFFDECFE9FFDDCFEAFFEF9CDECFBE
:10084000E9FFDDCFEAFF040EE926000EEA22EF8C75
:10085000020EE15C02E2E16AE552E16EE552E7CFA9
:10086000D9FF12006498000175BF2BD07AAF09D070
:10087000020E726F8F5101E161DF00018D6B8C6B95
:10088000120067C0E9FF68C0EAFFEE52080EEF6E83
:1008900067C0E9FF68C0EAFF020EE926000EEA22FF
:1008A000200EEE6E020EED6E67C0E9FF68C0EAFF33
:1008B0008C0EEF6E6DC0E9FF6EC0EAFF840EEF6E26
:1008C0001200020120AF0DD00001010E726F8E5197
:1008D00001E134DF00018D6B8C6B8B5123E14DEF17
:1008E00003F00001020E726F67C0E9FF68C0EAFF03
:1008F000EE52080EEF6E67C0E9FF68C0EAFF020E15
:10090000E926000EEA22200EEE6E020EED6E67C0A2
:10091000E9FF68C0EAFF840EEF6E8D6B8C6B8B5124
:1009200001E1BBDE1200D9CFE6FFE1CFD9FFE652ED
:10093000080EDF6E0001765D000E77590AE276C080
:10094000DFFF715102E1010E03D0710502E1020ED9
:10095000716FDF500C6AE850765D766F0C507759F6
:10096000776F6DC0E9FF6EC0EAFFEE52DFCFEFFF99
:10097000280E7F6F020E806F75B118D0DF502DE00A
:1009800073C0F6FF74C0F7FF732B000E74230800CA
:10099000F550E66E7FC0E9FF80C0EAFF7F2B000EB6
:1009A0008023E552E750EF6EDF06E8D7DF5015E011
:1009B00073C0E9FF74C0EAFF732B000E7423EF507D
:1009C000E66E7FC0E9FF80C0EAFF7F2B000E802328
:1009D000E552E750EF6EDF06E9D7E552E552E7CF83
:1009E000D9FF1200D9CFE6FFE1CFD9FF020EE126F1
:1009F00065C0E9FF66C0EAFFEE52EFCFDFFFDFCF51
:100A00000BF00B5000017B5D000E7C5902E27BC0B5
:100A1000DFFFDF500B6E0C6AE8507B5D7B6F0C5084
:100A20007C597C6F010EDB6ADF50F36E010EDBCF69
:100A3000F4FFF350F45C16E2010EDB50EA6A280F73
:100A4000E96E020EEA22EF50E66E78C0E9FF79C047
:100A5000EAFF782B000E7923E552E750EF6E010E86
:100A6000DB2AE2D7000ED8807B55000E7C5527E2AA
:100A700067C0E9FF68C0EAFFEE52080EEF6E67C07C
:100A8000E9FF68C0EAFF020EE926000EEA22280EFE
:100A9000EE6E020EED6E65C0E9FF66C0EAFFEF5034
:100AA000400B06E167C0E9FF68C0EAFFC80E05D049
:100AB00067C0E9FF68C0EAFF880EEF6E28D067C004
:100AC000E9FF68C0EAFFEE52080EEF6E67C0E9FF6B
:100AD00068C0EAFF020EE926000EEA22200EEE6E42
:100AE000020EED6E67C0E9FF68C0EAFF840EEF6E8C
:100AF0007D517E1107E005D07EC0FAFF00017D51D7
:100B0000F96EFADF00017A9F8B5101E1C6DD020E1A
:100B1000E15C02E2E16AE552E16EE552E7CFD9FF1E
:100B20001200D9CFE6FFE1CFD9FFE6520001758F61
:100B3000010EE66EE66AE66A540EE66E0F0EE66E8B
:100B400075EC0BF00B6E050EE15E0B50200EE66EA1
:100B5000E66AE66A000EE66E020EE66E75EC0BF0D3
:100B60000B6E050EE15E0B50648CDF6A020EDF5CDB
:100B700010E2DF50EA6A860FE96E000EEA22EF6AA1
:100B8000DF50EA6A880FE96E000EEA22EF6ADF2A78
:100B9000EDD7010EE66EE66AE66A640EE66E000EBA
:100BA000E66E75EC0BF00B6E050EE15E0B50649C6F
:100BB0000001080E6D6F020E6E6F000E656F020E63
:100BC000666F65C067F0686F22C263F0635102E12F
:100BD000100E12D0010EE66EE66A630EE66E000E8F
:100BE000E66E010EE66EE66A8AEC0AF00B6E060E01
:100BF000E15E0B500001200E626FE552E552E7CF37
:100C0000D9FF1200800E0201205D58E10001C00EE4
:100C1000756F02012351030A2FE0010A09E0030A5C
:100C20004BE10001820E736F150E746F120E3ED0F1
:100C30002251F66EF76AD890F636F736430EF6264E
:100C4000160EF7220900F5CF73F00A00F5CF74F005
:100C5000020E0001F76A7325F66E7451F722080040
:100C6000F5CF76F0030EF76A7325F66E7451F7220E
:100C70000800F5CF77F01200030E225D1AE2225130
:100C8000F66EF76AD890F636F736450EF626160E4B
:100C9000F7220900F5CF73F00A00F5CF74F073C0A6
:100CA000F6FF74C0F7FF0800F5500001766F776B10
:100CB00012000001756B12000001756B1200D9CF94
:100CC000E6FFE1CFD9FF020EE1260201286B296B76
:100CD00020511F0B020A11E0030A0CE0010A3CE15B
:100CE0000001758F020128810001810535E10201B3
:100CF000288332D00001758F2FD00001758F02013B
:100D000024BF0BD024510F0BE96EEA6AD890E93664
:100D1000EA36690EE926000E0AD024510F0BE96E5F
:100D2000EA6AD890E936EA366D0EE926000EEA2224
:100D3000EECFDEFFEDCFDDFFDECFE9FFDDCFEAFF57
:100D4000EF50800B09E0DECFE9FFDDCFEAFFEF5087
:100D5000040B02E0010E286F000175AF07D0280ECA
:100D6000736F020E746F7581020E766F020EE15C76
:100D700002E2E16AE552E16EE552E7CFD9FF1200E7
:100D80000F0153A115D065C0E9FF66C0EAFFEF501F
:100D900080080DE16DC0E9FF6EC0EAFFEF508408E6
:100DA00006E165C0E9FF66C0EAFF8C0EEF6E539165
:100DB000629A12006084629864820001010E826F60
:100DC000000EE66EE66AE66EE66A750EE66EE66AA6
:100DD000A1DB0B6E060EE15E0B5012000001826B70
:100DE000000EE66EE66AE66EE66A740EE66EE66A87
:100DF00091DB0B6E060EE15E0B506492609462A470
:100E000002D06294FCD71200D9CFE6FFE1CFD9FF20
:100E1000E65200012D0E8A6FFD0E831553E17E0E02
:100E20008315E8407F0B040DF3CF65F0F4CF66F037
:100E3000000E6527020E662365C067F066C068F085
:100E4000677565C0E9FF66C0EAFFEF503C0BE842FA
:100E5000E8420D0835E1DF6A080EDF5C23E265C079
:100E6000E9FF66C0EAFF020EE926000EEA22EE5014
:100E7000EFCFEAFFE96EEF50E66EDF50EA6A200F2F
:100E8000E96E020EEA22E552E750EF6E65C0E9FF17
:100E900066C0EAFF020EE926000EEA22EE2AEF22E1
:100EA000DF2ADAD765C0E9FF66C0EAFF020EE9264D
:100EB000000EEA22200EEE6E020EED6E0DD807D067
:100EC00039D805D0FD0E8315040801E158D8E55244
:100ED000E552E7CFD9FF12000001716B8B6B8E6B6F
:100EE0008F6B856B726B6DC0E9FF6EC0EAFFEF9E82
:100EF0006D756DC0E9FF6EC0EAFFEF9E6D7567C04E
:100F0000E9FF68C0EAFFEF9E756B766B776B7A6BD3
:100F10007B6B7C6B8ED8000EE66EE66AE66EE66A48
:100F2000030EE66EE66AF6DA0B6E060EE15E0B5015
:100F300032EF04F0020E0001725D02E1F2EF04F004
:100F4000726B85511AE167C0E9FF68C0EAFFEE5293
:100F5000080EEF6E67C0E9FF68C0EAFF020EE926DF
:100F6000000EEA22200EEE6E020EED6E67C0E9FF63
:100F700068C0EAFF8C0EEF6E1200856B1200D9CFAD
:100F8000E6FFE1CFD9FFE6526DC0E9FF6EC0EAFF90
:100F9000EF50400B01E0010EDF6E00016D75080E91
:100FA000625D0BE122C25CFF0F015C5103E00001B6
:100FB000100E02D00001040E626F720526E16DC0B2
:100FC000E9FF6EC0EAFF020EE926000EEA22280EB3
:100FD000EE6E020EED6EA7DC020E0001715D06E101
:100FE0006DC0E9FF6EC0EAFF840E0DD0DF5006E150
:100FF0006DC0E9FF6EC0EAFFC80E05D06DC0E9FF05
:101000006EC0EAFF880EEF6E0FD07AAF0CD07D5124
:101010007E1107E005D07EC0FAFF00017D51F96E18
:10102000FADF00017A9F726BE552E552E7CFD9FFF4
:10103000120002012051600BE842E842E842E84217
:10104000E842000901E0120021510C0A4FE00B0AAE
:101050003FE00C0A31E0010A22E00B0A1EE0020A1E
:101060001CE0030A18E0080A10E0010A0CE00F0A6D
:1010700008E0030A01E012000001758F080E626F9C
:10108000120002EF06F091EF05F00001630E736F9E
:10109000000E746F0CD05FEF06F077EF08F024516C
:1010A0000001736F746B640E7327000E74237581D7
:1010B000010E766F758F12000001758F02012451A9
:1010C000EA6A640FE96E000EEA2222C2EFFF120004
:1010D000000EE66EE66AE66EE66A020EE66EE66A06
:1010E00019DA0B6E060EE15E0B5012001200D9CF1A
:1010F000E6FFE1CFD9FF050EE1260201220510E14E
:1011000020511F0B00090CE10001758F030E020135
:10111000215D04E10001010E816F02D00001816BAD
:101120000201225101E00FD120511F0B020801E002
:101130000AD124510F0B000901E105D124510F0BF5
:10114000010801E200D1200E0001625D01E0FBD048
:10115000758F020124BF16D024510F0BE96EEA6A85
:10116000D890E936EA36690EE926000EEA22EECF7B
:10117000DEFFEDCFDDFF24510F0BEA6A880FE96E29
:10118000000E15D024510F0BE96EEA6AD890E936AB
:10119000EA366D0EE926000EEA22EECFDEFFEDCF35
:1011A000DDFF24510F0BEA6A860FE96E000EEA227A
:1011B000020EEFCFDBFFD950020FE96EDACFEAFF64
:1011C000EF50010B03E1000EDF9401D0DF8424BF58
:1011D0000BD024510F0BE96EEA6AD890E936EA3653
:1011E000690EE926000E0AD024510F0BE96EEA6A57
:1011F000D890E936EA366D0EE926000EEA22DECFF7
:10120000EEFFDDCFEDFF030E215D20E1DECFE9FF34
:10121000DDCFEAFFEF50800B11E024BF07D024514F
:101220000F0BEA6A880FE96E000E06D024510F0BEF
:10123000EA6A860FE96E000EEA22EF82840EDECFA4
:10124000E9FFDDCFEAFFE850EF127DD0DF74DECF9B
:10125000E9FFDDCFEAFFEF50800B1AE0DECFE9FFB8
:10126000DDCFEAFFEF9EDECFE9FFDDCFEAFFEF8CB7
:10127000020EE66EE66ADECFE6FFDDCFE6FF050E84
:10128000E66EE66A47D90B6E060EE15E0B5005D09E
:10129000DECFE9FFDDCFEAFFEF8CDF74D950020F1C
:1012A000E96EDACFEAFFEF50020B07E1DECFE9FF8C
:1012B000DDCFEAFFEF50800B2AE0020124BF07D008
:1012C00024510F0BEA6A880FE96E000E06D02451F4
:1012D0000F0BEA6A860FE96E000EEA22EF923B0ED0
:1012E0000B6EDECFE9FFDDCFEAFFE850EF16020E0E
:1012F000E66EE66ADECFE6FFDDCFE6FF050EE66EC0
:10130000E66A08D90B6E060EE15E0B5007D03B0E65
:10131000DECFE9FFDDCFEAFFE850EF1602012451EE
:101320000F0B0C6A530F0B6E0F0E0C22030E0BC02B
:10133000DBFF040E0CC0DBFF030EDBCFE9FF040E66
:10134000DBCFEAFFEF90050EE15C02E2E16AE552D5
:10135000E16EE552E7CFD9FF1200DACFE4FFE2CF2A
:10136000DAFFE9CFE4FFEACFE4FFF6CFE4FFF7CFFF
:10137000E4FFF5CFE4FFF3CFE4FFF4CFE4FFFACFCF
:10138000E4FF00EE00F00B0EE80403E3EECFE4FF11
:10139000FBD700EE0BF0030EE80403E3EECFE4FF0F
:1013A000FBD7E65206EC01F0E55200EE0DF0030E1D
:1013B000E80403E3E5CFEDFFFBD700EE0AF00B0EE8
:1013C000E80403E3E5CFEDFFFBD7E5CFFAFFE5CF78
:1013D000F4FFE5CFF3FFE5CFF5FFE5CFF7FFE5CF6E
:1013E000F6FFE5CFEAFFE5CFE9FFE5CFDAFF110031
:1013F000D8CFE4FFE0CFE4FFE46EDACFE4FFE652BB
:10140000E552E5CFDAFFE550E5CFE0FFE5CFD8FFC5
:1014100010000F0EC112946A8B6A76EF00F0F9DFAC
:101420000201356B366B35EC03F0200E0001E76EE0
:101430006219E8AE02D0E73402D0E750625DF5E30E
:101440006450020BF2E100019A519B1102E1000E7F
:1014500008D09AC0E9FF9BC0EAFFEF50800B01E083
:10146000010E0009E2E10201305127E100019C5127
:101470009D1102E1000E08D09CC0E9FF9DC0EAFF6B
:10148000EF50800B01E0010E000917E136C233F284
:1014900035C234F2020EE66E330EE66E020EE66ED2
:1014A000010EE66EE66EF1EC01F00B6E050EE15EEC
:1014B0000B50F3CF9CF0F4CF9DF00201300516E104
:1014C000310503E1010E366F01D0366B320503E1C1
:1014D000010E356F01D0356B365102E08B8C01D097
:1014E0008B9C355102E08B8E01D08B9E030EE66EF5
:1014F000300EE66E020EE66EE66A010EE66EF1EC66
:1015000001F00B6E050EE15E0B50F3CF9AF0F4CFB5
:101510009BF08BD7D9CFE6FFE1CFD9FFFD0EDBCF14
:1015200006F0FE0EDBCF07F0030E061801E10750B0
:1015300021E0010E061820E107501EE11E0EE66EA6
:10154000010EE66EBAEC01F0E552E552030EE66ECE
:10155000300EE66E020EE66EE66A010EE66EF1EC05
:1015600001F00B6E050EE15E0B50F3CF9AF0F4CF55
:101570009BF002D016EC00F0010EE552E7CFD9FF48
:02158000120057
:0E1582001201000200000008D8040000020060
:101590000102000109022900010100C03209040012
:1015A00000020300000009211101000122200007B0
:1015B000058103020001070501030300010403097B
:1015C0000434034D006900630072006F006300681B
:1015D0000069007000200054006500630068006E20
:1015E000006F006C006F0067007900200049006EFA
:1015F0000063002E002E03530069006D0070006C24
:1016000000650020004800490044002000440065B7
:101610000076006900630065002000440065006DED
:10162000006F000600FF0901A1011901290815003A
:1016300025FF750895028100190129087508950391
:0B1640009100C09415BD15C115F515F3
:04164C001E0EF66E0A
:10165000000EF76E000EF86E00010900F550956F50
:101660000900F550966F03E1956701D03DD0090060
:10167000F550906F0900F550916F0900F550926F89
:1016800009000900F550E96E0900F550EA6E0900FD
:1016900009000900F550936F0900F550946F090097
:1016A0000900F6CF97F0F7CF98F0F8CF99F090C0F7
:1016B000F6FF91C0F7FF92C0F8FF0001935302E1DB
:1016C000945307E00900F550EE6E9307F8E2940793
:1016D000F9D797C0F6FF98C0F7FF99C0F8FF00014F
:0A16E0009507000E965BBFD71200BD
:0616EA00FE0EE3CFE9FF54
:1016F000FF0EE3CFEAFFE9CFF3FFEACFF4FFFB0EE3
:10170000E35003E1FC0EE35009E0FB0EE30602E2C6
:0E171000FC0EE306FD0EE350EE6EF1D7120064
:02171E00000EBB
:10172000F36E00EE00F0030E01D81200EA6002D062
:0E173000EE6AFCD7F350E9601200EE6AFCD7B7
:02173E0011EEAA
:1017400000F021EE00F0F86A0A9C26EC0BF003ECA6
:0A17500000F00FEC0AF0FBD71200C6
:020000040030CA
:0100000000FF
:0100010032CC
:0100020001FC
:010003001EDE
:01000500807A
:010006008178
:0100080003F4
:01000900C036
:01000A0003F2
:01000B00E014
:01000C0003F0
:01000D0040B2
:00000001FF
