:060000000A128A11122809
:10000800FE00030EF0000408F1000A08F200831253
:1000180003137F08F3000A128A11222C0A128A118C
:100028001528C501C60183010A128A111B28FF3051
:10003800831603138500FF308600FF308700880190
:100048008316031788018901831603138713831204
:10005800031388018B108316031301170B168B17D4
:1000680083124608450403193428013088000030FB
:10007800B0000030B1000030B2003008F4003108A0
:10008800F5003208F6000030F7007A30F800443006
:10009800F9000A128A11C1230A128A110318822848
:1000A800003083120313A3008030A4003F30A50062
:1000B8003008A6003108A7003208A8000A128A11E1
:1000C8004A220A128A11831203132308B000240853
:1000D800B1002508B2003008F4003108F5003208F4
:1000E800F6000030F7007A30F8004430F9000A12C0
:1000F8008A11C1230A128A11031C54280230831260
:10010800031388000030B3000030B4000030B5009D
:100118003308F4003408F5003508F6000030F7001D
:100128007A30F8004430F9000A128A11C1230A1201
:100138008A110318CD28003083120313A3008030DE
:10014800A4003F30A5003308A6003408A7003508EE
:10015800A8000A128A114A220A128A11831203136A
:100168002308B3002408B4002508B5003308F400B8
:100178003408F5003508F6000030F7007A30F8004A
:100188004430F9000A128A11C1230A128A11031C89
:100198009F2804308312031388000030B600003013
:1001A800B7000030B8003608F4003708F500380802
:1001B800F6000030F7007A30F8004430F9000A12EF
:1001C8008A11C1230A128A110318182900308312D0
:1001D8000313A3008030A4003F30A5003608A60012
:1001E8003708A7003808A8000A128A114A220A12FA
:1001F8008A11831203132308B6002408B7002508C0
:10020800B8003608F4003708F5003808F600003062
:10021800F7007A30F8004430F9000A128A11C12335
:100228000A128A11031CEA28083083120313880073
:100238000030B9000030BA000030BB003908F400C3
:100248003A08F5003B08F6000030F7007A30F8006D
:100258004430F9000A128A11C1230A128A110318BC
:100268006329003083120313A3008030A4003F30B9
:10027800A5003908A6003A08A7003B08A8000A12FA
:100288008A114A220A128A11831203132308B90019
:100298002408BA002508BB003908F4003A08F5001C
:1002A8003B08F6000030F7007A30F8004430F900D7
:1002B8000A128A11C1230A128A11031C3529043033
:1002C8008312031388000030BC000030BD000030EA
:1002D800BE003C08F4003D08F5003E08F60000307A
:1002E800F7007A30F8004430F9000A128A11C12365
:1002F8000A128A110318AE29003083120313A300CF
:100308008030A4003F30A5003C08A6003D08A700A7
:100318003E08A8000A128A114A220A128A11831278
:1003280003132308BC002408BD002508BE003C08B0
:10033800F4003D08F5003E08F6000030F7007A307A
:10034800F8004430F9000A128A11C1230A128A11EE
:10035800031C802902308312031388000030BF0079
:100368000030C0000030C1003F08F4004008F5002C
:100378004108F6000030F7007A30F8004430F90000
:100388000A128A11C1230A128A110318F9290030A6
:1003980083120313A3008030A4003F30A5003F0858
:1003A800A6004008A7004108A8000A128A114A229C
:1003B8000A128A11831203132308BF002408C000FD
:1003C8002508C1003F08F4004008F5004108F60080
:1003D8000030F7007A30F8004430F9000A128A1128
:1003E800C1230A128A11031CCB290130831203137B
:1003F80088000030C2000030C3000030C40042084A
:10040800F4004308F5004408F6000030F7007A309D
:10041800F8004430F9000A128A11C1230A128A111D
:100428000318442A003083120313A3008030A40069
:100438003F30A5004208A6004308A7004408A800CA
:100448000A128A114A220A128A11831203132308F4
:10045800C2002408C3002508C4004208F400430869
:10046800F5004408F6000030F7007A30F800443010
:10047800F9000A128A11C1230A128A11031C162ACA
:10048800831203138801C501C6013428831203139C
:100498002308A9002408AA002508AB0003102A0D88
:1004A8002B0DAC002C08AF002608A9002708AA00CD
:1004B8002808AB0003102A0D2B0DAC002C08AE0049
:1004C8002F080319732A2E082F0203187A2A2F03DC
:1004D800FF3A2E07A90019302902031C7A2A260898
:1004E800A3002708A4002808A50008002E0803195F
:1004F80008002F082E020318892A2E03FF3A2F0717
:10050800A90019302902031808000630A900290893
:10051800AD00A51BAD17A81B2D17A417FF30A30509
:10052800FF30A4050030A505A717FF30A605FF304A
:10053800A7050030A8052E082F020318C92A013084
:100548000310A60DA70DA80DFF3E031DA42A013018
:10055800AE022E082F060319C42A0130AD022D0859
:1005680007390319C42AA32A01300310A50CA40CC7
:10057800A30CFF3E031DB92A0130A9002908AF07C3
:100588002F082E060319F22AB82A2F082E0203185C
:10059800F22A01300310A30DA40DA50DFF3E031D83
:1005A800CE2A0130AF022E082F060319EE2A013099
:1005B800AD022D0807390319EE2ACD2A01300310A0
:1005C800A80CA70CA60CFF3E031DE32A0130A900C6
:1005D8002908AE072F082E06031DE22AAD1F042B9B
:1005E800FF30A306FF30A406FF30A5060130A3079D
:1005F800003003180130A407003003180130A507A4
:100608002D1F162BFF30A606FF30A706FF30A806C1
:100618000130A607003003180130A707003003187F
:100628000130A807AD012308A60724080311031801
:10063800240A031DA707250803110318250A031D0B
:10064800A807A81F392BFF30A606FF30A706FF30E2
:10065800A8060130A607003003180130A7070030AC
:1006680003180130A807AD01AD0A2608F4002708D1
:10067800F5002808F6002F08A9002908F7002D081A
:10068800AA002A08F8000A128A1153237408831250
:100698000313A3007508A4007608A50008007708CE
:1006A80003195B2B760875047404031D702B003046
:1006B800F4000030F5000030F60008000130831225
:1006C8000313A0002008F70701300310F60CF50CFF
:1006D800F40CFF3E031D692BFE30760503198D2BA4
:1006E800622B013083120313A0002008F7070130A2
:1006F800F407003003180130F50700300318013003
:10070800F60701300310F60CF50CF40CFF3E031D40
:10071800862BFF30760503199C2B752B0130F702C9
:1007280001300310F40DF50DF60DFF3E031D952B5A
:10073800F51F922B7718A62BFF30F4057F30F505AF
:10074800FF30F6050310F70C770883120313A00097
:10075800A101A20110300310A00DA10DA20DFF3EB2
:10076800031DAF2B2008F4042108F5042208F60421
:10077800780803190800F6170800F61FEA2B00305E
:1007880083120313A0000030A1008030A200740976
:10079800A3007509A4007609A500A30A0319A40AF1
:1007A8000319A50A2308A00724080318240FDD2B22
:1007B800DE2BA10725080318250FE32BE42BA2073E
:1007C8002008F4002108F5002208F600F91F132C70
:1007D800003083120313A0000030A1008030A20073
:1007E8007709A3007809A4007909A500A30A0319C9
:1007F800A40A0319A50A2308A00724080318240F2C
:10080800062C072CA10725080318250F0C2C0D2CE6
:10081800A2072008F7002108F8002208F900803014
:10082800F6068030F90679087602031D0800780874
:100838007502031D08007708740208008B10013048
:10084800C5000030C6007308FF0072088A007108EE
:0C0858008400700E8300FE0E7E0E09006E
:02400E00F5F0CB
:00000001FF
