:020000040000FA
:0600000033EF06F01200D0
:020006001200E6
:0800080007EF00F01200DACF4F
:10001000E4FFE6520001010E8B6F9E9CE552E5CF96
:04002000DAFF1100F2
:0C00240001009E0C0000600000002100A4
:020030000000CE
:0E00320094909492949494969498949A949C9A
:100040001200020EC2D9280EC0D90C0EBED9060E5F
:10005000BCD9010E4BEF02F0CCD98B84DE6ADD6A8D
:10006000F8D9020E145C000E155805E2DF2A010EC5
:10007000F7E3DB2AF5D78B94020EE15C02E2E16A3A
:10008000E552B5D1B6D98B928B90FE0EDB38A1D953
:10009000E8B08B86E8A08B9693D9E8B08B88E8A06F
:1000A0008B987DD9E8B08B8AE8A08B9A99D9B1D981
:1000B000FEE11450E8B08B8CE8A08B9CF6D9E8B038
:1000C0008B86E8A08B967CD9E8B08B88E8A08B98CB
:1000D00066D9E8B08B8AE8A08B9A82D99AD9FEE1DA
:1000E0001450E8B08B8CE8A08B9CB6DF050E85D948
:1000F00002E2E16AE5527BD17CD98B928B80FE0EC5
:10010000DB3867D9E8B08B86E8A08B9659D9E8B080
:100110008B88E8A08B9843D9E8B08B8AE8A08B9AAB
:100120005FD977D9FEE11450E8B08B8CE8A08B9CA6
:10013000BCD9E8B08B86E8A08B9642D9E8B08B8812
:10014000E8A08B982CD9E8B08B8AE8A08B9A48D984
:1001500060D9FEE11450E8B08B8CE8A08B9C7CDF6A
:10016000050E4BD902E2E16AE55241D1010E6DEF75
:1001700002F080D9FE0EDBCFE6FFBEDFE552B1D143
:1001800079D951D90AE04FD97AD9FD0EDB2AFE0E72
:1001900001E3DB2A020E7FD9F4D7A3D12AD9D950A3
:1001A000FB0FE96EFF0EDA20EA6E010EEE1801E198
:1001B000ED5003E0400EDE6E01D0DE6ADD6AFD0E1A
:1001C000DBCF14F0FE0EDBCF15F01406000E155A2F
:1001D000D9CFE9FFDACFEAFF1450EE261550ED2211
:1001E00038D9800E141079D9020E07D902E2E16ADB
:1001F000E552FDD03FD9080EE126E80E146E030E3D
:10020000156EFD0EDBCF08F0FE0EFBD814D926D9F3
:1002100005D9040E08C0DBFF050E09C0DBFF1ED99F
:10022000CCD8FCD80FD91AD9C8D83AD904C0DEFF27
:1002300005C0DDFF3FD944D9020EDBCF14F0030E19
:10024000B6D807D9300E14241AD9080EE15C02E2A0
:10025000E16AE552CCD0CDD80A0E146E0E6EFE0EB9
:10026000DBCF09F0E2EC02F00950DF6EFE0EDBCFCF
:1002700014F014C009F00A0E0E6EE2EC02F0010E4A
:1002800005C0DBFFDFCF14F0E76E1418E8AE02D034
:10029000E73402D0E750145C03E3300EDF24EFD8DC
:1002A000010EDB50300FEBD8020EE15C02E2E16A96
:1002B000E5529DD0DFD80C0EE126D9CFE9FFDACF89
:1002C000EAFF2E0EEE6EEE6AFB0EDBCF14F0FC0E94
:1002D000DBCF15F0FD0EDBCF16F0FE0EDBCF17F0F7
:1002E0000C6A0D6A200E0E6E410E0F6E14C007F0E0
:1002F00015C008F016C009F017C00AF075EC02F03E
:100300004FEC03F09FD8E80E146E030E156E020E2C
:10031000DBCF08F0030E75D80A0E08C0DBFF0B0E0A
:1003200009C0DBFFA1D87AD8080E08C0DBFF090E90
:1003300009C0DBFF99D841D871D87DD895D83DD870
:10034000AFD8040E04C0DBFF050E05C0DBFF0A0EAC
:10035000DBCF14F00B0E2BD8080EDBCF14F0090EF8
:1003600026D8A8D8D9CFE6FFDACFE6FF09DFE552D5
:10037000E552A6D80C0EE15C02E2E16AE55237D004
:10038000DBCF15F0E80E0D6E030E0E6E14C008F0F4
:1003900015C009F0FDEC05F083D8640E74D059D86F
:1003A000040E94D8D8901532143214501200DBCFBA
:1003B00015F0300E14243FEF02F072D80A0E63D00D
:1003C00048D8020E83D81450120087D8010E4BEF84
:1003D00002F00F0BDE6EDD6A3CD8010E1414120021
:1003E00038D8080E1416000E1516030E1200E16E12
:1003F00078D040D8020EE12612004DD8020EE15C02
:100400001200DBCF09F014C00DF015C00EF0FDEFA7
:1004100005F0D89015321432E804120008C014F028
:1004200009C015F01200FD0EDBCFE9FFFE0EDBCF99
:10043000EAFFEF501200060E08C0DBFF070E09C0EE
:10044000DBFF1200020E08C0DBFF030E09C0DBFF5A
:100450001200DECF14F0DDCF15F01200FD0EDBCF61
:1004600014F0FE0EC0EF01F0020EDBCF14F0030E0D
:10047000C0EF01F0D9CFE6FFE1CFD9FF1200E66E61
:100480003BDEE55212000D6E0E6A04C008F005C096
:1004900009F0FDEF05F0E66E13EC06F0E5521200F0
:1004A00004C014F005C015F01200D6DDFE0EDB50BE
:1004B000E9EF01F0060EDBCF14F0070ED7EF01F0E5
:1004C000040EDBCF14F0050ED7EF01F01416000E6A
:1004D0001516D890153214321200E66ED3DDE552AF
:0A04E0001200E552E7CFD9FF120029
:0604EA00016AD6EC03F0EC
:1004F000EEEC03F001B67EEF03F001A205D001B8E7
:100500007EEF03F085EF03F001AA05D001B07EEF86
:1005100003F085EF03F001B002D001A802D091EF03
:1005200003F0056A0F500A24046EE86A05227E0E65
:10053000045EE86A055A126A136A026A036A0E5078
:100540000902F4CF03F0F3CF02F00D500902F3508B
:100550001326F4500222000E03220E500802F3501C
:100560001326F4500222000E03220C500902F3500D
:100570001226F4501322000E022203220D5008020C
:10058000F3501226F4501322000E022203220E50C2
:100590000702F3501226F4501322000E0222032207
:1005A0000C500802F4501226000E132202220322DD
:1005B0000D500702F4501226000E132202220322CD
:1005C0009AEF03F0006A0EAEE8EF02F00E6C001E28
:1005D00009AEEDEF02F0096C001E41EC06F009BE19
:1005E000F7EF02F000AE000C096C056C000C00BEC9
:1005F000F4EF02F00188FF0C006A0EAE05EF03F085
:100600000D6C0E1EE86A0E22001E09AE0DEF03F0FF
:10061000086C091EE86A0922001EFDEC05F009BEFF
:100620001DEF03F000AE000C086C091EE86A0922F9
:10063000046C051EE86A0522000C00BE14EF03F0EE
:100640000188FF0C09C013F008C012F008500D0219
:10065000F4CF07F0F3CF06F009500E02F4CF09F003
:10066000F3CF08F00D02F3500726F4500822E86A91
:10067000092212500E02F3500726F4500822E86AAD
:1006800009220EAE48EF03F01250085E1350095ACB
:1006900013AE000C0D50085E0E50095A000C016A92
:1006A000D6EC03F001B659EF03F001A20ED001B46D
:1006B00005D07F0E096EFF0E086E1FD0800E096EEA
:1006C000086A1BD0096A086A18D001B0FBD78F0EE0
:1006D0000A60EDD77E0E0A64F5D78E0E0A5C05E03F
:1006E000D890093208320A2AF8D701A406D0086C3B
:1006F000091EE86A092209AEE5D712007F0E0A6ECC
:10070000FF0E096E086E076E12007F0E01BEFF0E0F
:100710000A6E02D07F0E0A6E800E096E086A076AA2
:10072000F3D701AE04D0800E0A6E096AF7D70A6AC1
:10073000096AF4D70350021013101210F8E005BE36
:10074000F0D703BE0CD004500510EBE0D890123661
:100750001336023603360406D8A00506F2D7055034
:10076000D4E10428D2E012AE11D07F0E121402E1BF
:1007700013A00CD0132AE86A0222032207E3D880D0
:10078000033202321332042A0428BFE00450C9E0C5
:1007900013C007F002C008F00334096E04300A6E7B
:1007A00009320A9E01BE0A8E84EF03F009360A362A
:1007B00002E30184017E06E101800A6A096A086A8F
:1007C000076A12000A2803E0D88009321200D89084
:1007D000093202E101821200018612000E360F3644
:1007E00002E3018C017E06E101880F6A0E6A0D6A40
:1007F0000C6A12000F2803E0D8800E321200D89045
:080800000E32EAE1018A120048
:08080800D9CFE6FFE1CFD9FFD3
:10081000060EE126DE6ADD6A020EDB6A030EDB6A83
:10082000A4D819EC00F021EC00F0670EE66EE66A41
:10083000BCEC05F0E552E552CDEC05F0D2EC05F04C
:100840000A0EE66E13EC06F0E552B6EC00F0010E6F
:10085000E66EE66A99D8600EE66E000E9ED8600ECF
:10086000E66E000EE66EDEEC05F0E552E552C28261
:1008700000018B51FDE0C450DE6EDD6ADECF14F066
:10088000DDCF15F014C015F0146A14C0DEFF15C0DA
:10089000DDFFC350E76E000EDFCF14F0010EDBCF9B
:1008A00015F0E750141214C0DEFF15C0DDFF050E71
:1008B000086E096ADECF0DF0DDCF0EF022EC03F0FA
:1008C00006C014F007C015F00A0E0D6E0E6A06C0C1
:1008D00008F007C009F0FCEC02F008C014F009C0F1
:1008E00015F0020E08C0DBFF030E09C0DBFF050E8A
:1008F000DBCFE6FFE66A020EDBCFE6FF030EDBCFBF
:10090000E6FFD3EC04F0E552E552E552E552F3CFB1
:100910008CF0F4CF8DF0020EDBCF14F0030EDBCFA2
:1009200015F015341FE214500A08000E15541AE28F
:100930006D0EE66E000EE66EDEEC05F0E552E55259
:10094000020EE66EE66A010E1FD86D0EE66E000E10
:1009500024D8020EE66EE66A070E16D8760EE66E0C
:10096000000E1BD800018B6B82D7948E010E7E6E19
:100970007F6A910EC06EC16A240EC26EC2809E9CB8
:100980009D8CF28CF28E1200E66EE66ACEEC00F0E0
:10099000E552E552E552E5521200E66EC0EC00F079
:0609A000E552E5521200D1
:0A09A600D9CFE6FFDACFE6FFFA0E24
:1009B000E3CFD9FFFB0EE3CFDAFFFD0EE35209E7E9
:1009C0002D0EDE6EFC0EE31EE32AFD0ED8B4E30608
:1009D000E31EE652E652E652FD0EE124E76EFF0EFC
:1009E000E220E46EE652F70EE3CFE6FFF70EE3CF28
:1009F000E6FF43EC05F0F90EE124E96EFF0EE2207C
:100A0000EA6E33EC05F00AE130EC05F009E133EC75
:100A100005F008E130EC05F007E108D03EEC05F008
:100A200039EC05F03EEC05F039EC05F03EEC05F054
:100A3000DE6AF90EE126FF0EE222FF0EE3CFDAFFB7
:100A4000E552FF0EE3CFD9FFE552FC0EE124E96E3B
:100A5000FF0EE220EA6EEECFF3FFEFCFF4FF1200BD
:100A6000EF380F0B1200EF500F0B02E1EE52D8845B
:100A70001200EF380F0B300FDE6E1200EE500F0B2E
:100A8000300FDE6E1200FC0EE3CFE9FFFD0EE3CF68
:100A9000EAFF100EE66EEE6AEE6AEF6AD890FD0E7F
:100AA000E336FE0EE336ED36ED36EF36FF0EE306A7
:100AB00009E064EC05F0EE5264EC05F0EE5264ECF3
:100AC00005F0EDD7E56E1200030EEF24E8B6EF6EE9
:0A0AD000300EEF24E8BEEF6E000CBC
:060ADA00240EF66E000E72
:100AE000F76E000EF86E00010900F550866F0900E0
:100AF000F550876F03E1866701D03DD00900F550BE
:100B0000816F0900F550826F0900F550836F09006D
:100B10000900F550E96E0900F550EA6E0900090078
:100B20000900F550846F0900F550856F0900090030
:100B3000F6CF88F0F7CF89F0F8CF8AF081C0F6FFC2
:100B400082C0F7FF83C0F8FF0001845302E18553A0
:100B500007E00900F550EE6E8407F8E28507F9D743
:100B600088C0F6FF89C0F7FF8AC0F8FF000186073A
:080B7000000E875BBFD71200E5
:080B780037D8AC84B886FD0EED
:100B8000DB50AF6E938A939EAC98AB8EAC8AAD6A05
:100B90009D8AF28EF28CAB882CD0B898AC8CAC8A43
:100BA000AD6A12009D8AF28EF28CAB8812001CD8BE
:100BB000ACA2FED7FE0EDB50AD6E1BD015D80CD804
:100BC0000AE00AD8E66EF3DFE552FD0EDB2AFE0EE0
:100BD000F6E3DB2AF4D70DD0FD0EDBCFE9FFFE0EE6
:100BE000DBCFEAFFEF501200D9CFE6FFE1CFD9FF0C
:0A0BF0001200E552E7CFD9FF120012
:060BFA00056A046A100EFA
:100C0000E76ED89008360936043605360D50045C78
:100C10000E50055805E30D50045E0E50055A082A83
:060C2000E72EF0D71200E0
:0A0C2600FF0EE350186E480E01D0D7
:100C30004C0EE76EE72EFED7E76AE72EFED7182E9A
:060C4000F7D700001200CE
:0A0C4600000EF36E00EE00F0030E46
:100C500001D81200EA6002D0EE6AFCD7F350E960D6
:060C60001200EE6AFCD751
:0A0C660011EE00F021EE00F0F86A34
:100C7000019C6DEC05F003EC00F004EC04F0FBD7F4
:020C8000120060
:0E0C8200056A080EE76ED890093605360E504A
:0E0C9000055C02E3056E092AE72EF7D7120075
:020C9E004361B0
:100CA0006D206269656E206D6175006D61752064EF
:0F0CB0006F2020002D2D3E20446F206D617500B8
:020000040030CA
:0100010021DD
:0100020019E4
:010003001EDE
:010005008872
:010006008178
:00000001FF
