:020000040000FA
:06000000ADEF00F012005C
:020006001200E6
:0800080007EF00F01200DACF4F
:10001000E4FFE652F2A405D0FF0E0F010C270D23DA
:0A002000F294E552E5CFDAFF11007B
:06002A0001008C01000042
:080030000A0F000004000000AB
:080038002A0EF66E000EF76EB1
:10004000000EF86E0F010900F550056F0900F5501C
:10005000066F03E1056701D03DD00900F550006F40
:100060000900F550016F0900F550026F0900090001
:10007000F550E96E0900F550EA6E09000900090023
:10008000F550036F0900F550046F09000900F6CF21
:1000900007FFF7CF08FFF8CF09FF00CFF6FF01CF2A
:1000A000F7FF02CFF8FF0F01035302E1045307E00B
:1000B0000900F550EE6E0307F8E20407F9D707CF01
:1000C000F6FF08CFF7FF09CFF8FF0F010507000E75
:0600D000065BBFD7120021
:0A00D60093909382818293948A84B0
:1000E0001200170ED56EF28EF28CF28AF294D76A55
:1000F000D66A1200F0DFF5DF010EE66EBBEC00F011
:10010000E552D58E81B2FED7080ED6CFE7FF070B9A
:1001100004E0E742E79EE806FCE1E750D7100F0154
:100120000C6F0D6B0D35EEE20C516408000E0D5591
:0A013000E9E28A740C6B0D6BE5D751
:06013A00600EF36E00EE02
:1001400000F00F0E01D81200EA6002D0EE6AFCD770
:0A015000F350E9601200EE6AFCD7DC
:06015A001EEE00F02EEE87
:1001600000F0F86A019C1CEC00F003EC00F07AEC63
:0601700000F0FBD71200B5
:0A017600FF0EE350E84E12000000F7
:0C01800000D000D000D0E82EFAD712000A
:04018C00000000006F
:020000040030CA
:0100010002FC
:010003001EDE
:010005008971
:010006008178
:00000001FF
