:020000040000FA
:06000000ADEF13F0120049
:0A0006000100922700000001000035
:04001000F1000000FB
:020014001200D8
:06001800C3EF10F012001E
:02001E009290BE
:10002000929292949398939A939C939E1200020EAC
:10003000E66E49D8E552010EE66E8DEC13F0E552FE
:10004000280EE66E40D8E552010EE66E8DEC13F0F8
:10005000E5520C0EE66E37D8E552010EE66E8DECD9
:1000600013F0E552060EE66E2ED8E552010EE66E4E
:100070008DEC13F0E552010EE66E8DEC13F0E552B7
:100080001200D9CFE6FFE1CFD9FF020EE126898425
:10009000DE6ADD6ADECF14F0DDCF15F0020E145CEF
:1000A000000E155805E2DF2A010E01E3DB2AF2D724
:1000B0008994020EE15C02E2E16AE552E16EE552EA
:1000C000E7CFD9FF1200D9CFE6FFE1CFD9FF020E6B
:1000D000E12689928990FE0EDB380F0BDE6EDD6A19
:1000E000DECF14F0DDCF15F0010E1414E8B08A88CD
:1000F000E8A08A98DECF14F0DDCF15F0020E1416BA
:10010000000E1516D890153214321450E8B08A8AB1
:10011000E8A08A9ADECF14F0DDCF15F0040E141695
:10012000000E1516D89015321432D89015321432AC
:100130001450E8B08A8CE8A08A9CDECF14F0DDCFA2
:1001400015F0080E1416000E1516030ED890153271
:100150001432E804FBE11450E8B08A8EE8A08A9ECD
:1001600090DFFE0EDB500F0BDE6EDD6ADECF14F08B
:10017000DDCF15F0010E1414E8B08A88E8A08A9843
:10018000DECF14F0DDCF15F0020E1416000E15169A
:10019000D890153214321450E8B08A8AE8A08A9AAE
:1001A000DECF14F0DDCF15F0040E1416000E151678
:1001B000D89015321432D890153214321450E8B059
:1001C0008A8CE8A08A9CDECF14F0DDCF15F0080EF3
:1001D0001416000E1516030ED89015321432E804CA
:1001E000FBE11450E8B08A8EE8A08A9E4ADF050E33
:1001F000E66E8DEC13F0E552020EE15C02E2E16A7C
:10020000E552E16EE552E7CFD9FF1200D9CFE6FF04
:10021000E1CFD9FF020EE12689928980FE0EDB38FC
:100220000F0BDE6EDD6ADECF14F0DDCF15F0010EB0
:100230001414E8B08A88E8A08A98DECF14F0DDCFE5
:1002400015F0020E1416000E1516D8901532143241
:100250001450E8B08A8AE8A08A9ADECF14F0DDCF85
:1002600015F0040E1416000E1516D890153214321F
:10027000D890153214321450E8B08A8CE8A08A9CC9
:10028000DECF14F0DDCF15F0080E1416000E151693
:10029000030ED89015321432E804FBE11450E8B094
:1002A0008A8EE8A08A9EEDDEFE0EDB500F0BDE6E1E
:1002B000DD6ADECF14F0DDCF15F0010E1414E8B0C6
:1002C0008A88E8A08A98DECF14F0DDCF15F0020E00
:1002D0001416000E1516D890153214321450E8B0CA
:1002E0008A8AE8A08A9ADECF14F0DDCF15F0040EDA
:1002F0001416000E1516D89015321432D8901532F7
:1003000014321450E8B08A8CE8A08A9CDECF14F036
:10031000DDCF15F0080E1416000E1516030ED8903A
:1003200015321432E804FBE11450E8B08A8EE8A0DC
:100330008A9EA7DE050EE66E8DEC13F0E552020EE6
:10034000E15C02E2E16AE552E16EE552E7CFD9FFF6
:100350001200010EE66EB7DEE5521200D9CFE6FFBD
:10036000E1CFD9FFFE0EDBCFE6FF50DFE552E552CD
:10037000E7CFD9FF1200D9CFE6FFE1CFD9FFFD0EBD
:10038000DBCFE9FFFE0EDBCFEAFFEF5015E0FD0EFD
:10039000DBCFE9FFFE0EDBCFEAFFEF50E66E36DF84
:1003A000E552FD0EDB2AFE0E01E3DB2A020EE66EAD
:1003B0008DEC13F0E552E3D7E552E7CFD9FF1200F9
:1003C000D9CFE6FFE1CFD9FF020EE126D950FB0FCE
:1003D000E96EFF0EDA20EA6E010EEE1801E1ED5033
:1003E00004E0400EDE6EDD6A02D0DE6ADD6AFD0EDC
:1003F000DBCF14F0FE0EDBCF15F01406000E155AFD
:10040000D9CFE9FFDACFEAFF1450EE261550ED22DE
:10041000DECF14F0DDCF15F0800E1410E66E53DE43
:10042000E552020EE66E8DEC13F0E552020EE15C31
:1004300002E2E16AE552E16EE552E7CFD9FF120030
:10044000D9CFE6FFE1CFD9FF080EE126E80E146E02
:10045000030E156EFD0EDBCF08F0FE0EDBCF09F0AC
:1004600014C00DF015C00EF077EC13F0060E08C0A6
:10047000DBFF070E09C0DBFFFD0EDBCF14F0FE0E25
:10048000DBCF15F0E80E0D6E030E0E6E14C008F0F3
:1004900015C009F077EC13F004C014F005C015F096
:1004A000640E0D6E0E6A14C008F015C009F077ECEA
:1004B00013F008C014F009C015F0040E14C0DBFFDF
:1004C000050E15C0DBFFFD0EDBCF14F0FE0EDBCFFB
:1004D00015F0E80E0D6E030E0E6E14C008F015C078
:1004E00009F077EC13F004C014F005C015F0640EA9
:1004F0000D6E0E6A14C008F015C009F077EC13F009
:1005000004C014F005C015F00A0E0D6E0E6A14C07A
:1005100008F015C009F077EC13F008C014F009C01A
:1005200015F0020E14C0DBFF030E15C0DBFFFD0E3D
:10053000DBCF14F0FE0EDBCF15F0E80E0D6E030ED0
:100540000E6E14C008F015C009F077EC13F004C06B
:1005500014F005C015F0640E0D6E0E6A14C008F09C
:1005600015C009F077EC13F004C014F005C015F0C5
:100570000A0E0D6E0E6A14C008F015C009F077EC73
:1005800013F004C014F005C015F014C0DEFF15C050
:10059000DDFF060EDBCF14F0070EDBCF15F0300EBB
:1005A0001424E66E33DEE552040EDBCF14F0050EA4
:1005B000DBCF15F0300E1424E66E28DEE552020E75
:1005C000DBCF14F0030EDBCF15F0300E1424E66EF3
:1005D0001DDEE552DECF14F0DDCF15F0300E142411
:1005E000E66E14DEE552080EE15C02E2E16AE552D5
:1005F000E16EE552E7CFD9FF1200D9CFE6FFE1CF98
:10060000D9FF020EE1260A0E146E14C00EF0FE0E83
:10061000DBCF09F081EC11F00950DF6EFE0EDBCF6D
:1006200014F014C009F00A0E0E6E81EC11F0010EE8
:1006300005C0DBFFDFCF14F0E76E1418E8AE02D080
:10064000E73402D0E750145C0CE3300EDF24E66E92
:10065000DDDDE552010EDB50300FE66ED7DDE552F1
:1006600006D0010EDB50300FE66ED0DDE552020EF3
:10067000E15C02E2E16AE552E16EE552E7CFD9FFC3
:100680001200D9CFE6FFE1CFD9FF0C0EE126D9CF7A
:10069000E9FFDACFEAFF2E0EEE6EEE6AFB0EDBCF3D
:1006A00014F0FC0EDBCF15F0FD0EDBCF16F0FE0EC6
:1006B000DBCF17F00C6A0D6A200E0E6E410E0F6E26
:1006C00014C007F015C008F016C009F017C00AF0F2
:1006D00014EC11F09BEC11F0020E08C0DBFF030ECE
:1006E00009C0DBFFE80E146E030E156E020EDBCFA1
:1006F00008F0030EDBCF09F014C00DF015C00EF0AA
:1007000077EC13F00A0E08C0DBFF0B0E09C0DBFF0D
:10071000020EDBCF14F0030EDBCF15F0E80E0D6EEA
:10072000030E0E6E14C008F015C009F077EC13F03C
:1007300004C014F005C015F0640E0D6E0E6A14C0EE
:1007400008F015C009F077EC13F008C014F009C0E8
:1007500015F0080E14C0DBFF090E15C0DBFF020EFA
:10076000DBCF14F0030EDBCF15F0E80E0D6E030E99
:100770000E6E14C008F015C009F077EC13F004C039
:1007800014F005C015F0640E0D6E0E6A14C008F06A
:1007900015C009F077EC13F004C014F005C015F093
:1007A0000A0E0D6E0E6A14C008F015C009F077EC41
:1007B00013F008C014F009C015F0060E14C0DBFFDA
:1007C000070E15C0DBFF020EDBCF14F0030EDBCFEC
:1007D00015F0E80E0D6E030E0E6E14C008F015C075
:1007E00009F077EC13F004C014F005C015F0640EA6
:1007F0000D6E0E6A14C008F015C009F077EC13F006
:1008000004C014F005C015F00A0E0D6E0E6A14C077
:1008100008F015C009F077EC13F004C014F005C01F
:1008200015F0040E14C0DBFF050E15C0DBFF0A0E29
:10083000DBCF14F00B0EDBCF15F0300E1424E66E78
:10084000E5DCE552080EDBCF14F0090EDBCF15F026
:10085000300E1424E66EDADCE552060EDBCF14F01F
:10086000070EDBCF15F0300E1424E66ECFDCE55218
:10087000D9CFE6FFDACFE6FF7EDDE552E552040E82
:10088000DBCF14F0050EDBCF15F0300E1424E66E2E
:10089000BDDCE5520C0EE15C02E2E16AE552E16E7C
:1008A000E552E7CFD9FF1200D9CFE6FFE1CFD9FF5C
:1008B000B886FD0EDB50AF6EAC84AC98AB8E949CCA
:1008C000948EAD6AE552E7CFD9FF1200B898AC8A92
:1008D000AD6A1200D08E9F9A9D8AF28EF28CAB8800
:1008E0009E9AAE6A1200D9CFE6FFE1CFD9FFACA243
:1008F000FED7FE0EDB50AD6EE552E7CFD9FF1200FA
:10090000D9CFE6FFE1CFD9FFFD0EDBCFE9FFFE0E29
:10091000DBCFEAFFEF5010E0FD0EDBCFE9FFFE0E6C
:10092000DBCFEAFFEF50E66EDEDFE552FD0EDB2A9D
:10093000FE0E01E3DB2AE8D7E552E7CFD9FF12002C
:100940009DAAFED7AE5000D01200D9CFE6FFE1CF6E
:10095000D9FFF6DFE66EFD0EDBCFE9FFFE0EDBCF43
:10096000EAFFE552E750EF6EFD0EDBCFE9FFFE0E2A
:10097000DBCFEAFFEF5011E0FD0EDB2AFE0E01E3B4
:10098000DB2ADEDFE66EFD0EDBCFE9FFFE0EDBCFFE
:10099000EAFFE552E750EF6EE7D7E552E7CFD9FF20
:1009A0001200D9CFE6FFE1CFD9FFE652F90EDF6E94
:1009B0009494949292989296929A8988898A938034
:1009C000938293829382F19E0F0E7C6E87D8060EDF
:1009D000E66E5CEC13F0E552DFCFE6FF38EC13F087
:1009E000E552DFCFE6FF9FEC12F0E5520FEC00F08E
:1009F00017EC00F00A0EE66E8DEC13F0E552A9DC60
:100A0000010EE66EE66AE66EE66ADADCE552E5526B
:100A1000E552E5522D0EE66E010EE66EACDCE552B7
:100A2000E552020EE66EE66A010EE66EE66AC8DC84
:100A3000E552E552E552E5523E0EE66E010EE66ED7
:100A40009ADCE552E5523A0EE66EE66A09EC13F0DE
:100A5000E552E552910EE66EE66ADAEC12F0E552E6
:100A6000E552190EE66EE66A1FDFE552E5522EDF0B
:100A700031DF0A0EE66E8DEC13F0E552310E010106
:100A8000FB5D21E0320EFB5D1EE0330EFB5D1BE0E3
:100A9000340EFB5D18E0350EFB5D15E0360EFB5D98
:100AA00012E0370EFB5D0FE0380EFB5D0CE0390EF7
:100AB000FB5D09E0610EFB5D06E0620EFB5D03E09D
:100AC000630EFB5D03E16DD9AE6A02D0C8DBAE6A8E
:100AD000D5D7E552E552E7CFD9FF1200D388D38AA4
:100AE000D39C1200D9CFE6FFE1CFD9FF020EE12659
:100AF000FE0EDB50300802E1DE6ADD6AFE0EDB50DE
:100B0000310803E1010EDE6EDD6AFE0EDB503208B5
:100B100003E1020EDE6EDD6AFE0EDB50330803E1F8
:100B2000030EDE6EDD6AFE0EDB50340803E1040EB8
:100B3000DE6EDD6AFE0EDB50350803E1050EDE6E6B
:100B4000DD6AFE0EDB50360803E1060EDE6EDD6A5E
:100B5000FE0EDB50370803E1070EDE6EDD6AFE0E87
:100B6000DB50380803E1080EDE6EDD6AFE0EDB5056
:100B7000390803E1090EDE6EDD6ADECF14F0DDCF49
:100B800015F014C0F3FF15C0F4FF020EE15C03E2A0
:100B900000D0E16AE552E16EE552E7CFD9FF1200DD
:100BA000D9CFE6FFE1CFD9FFE652D950FD0FE96E6C
:100BB000FF0EDA20EA6EEE50ED1002E1300EDF6E2D
:100BC000D950FD0FE96EFF0EDA20EA6E010EEE1825
:100BD00001E1ED5002E1310EDF6ED950FD0FE96EFB
:100BE000FF0EDA20EA6E020EEE1801E1ED5002E18E
:100BF000320EDF6ED950FD0FE96EFF0EDA20EA6E7D
:100C0000030EEE1801E1ED5002E1330EDF6ED95014
:100C1000FD0FE96EFF0EDA20EA6E040EEE1801E118
:100C2000ED5002E1340EDF6ED950FD0FE96EFF0E7C
:100C3000DA20EA6E050EEE1801E1ED5002E1350E04
:100C4000DF6ED950FD0FE96EFF0EDA20EA6E060E58
:100C5000EE1801E1ED5002E1360EDF6ED950FD0FC6
:100C6000E96EFF0EDA20EA6E070EEE1801E1ED5094
:100C700002E1370EDF6ED950FD0FE96EFF0EDA206C
:100C8000EA6E080EEE1801E1ED5002E1380EDF6E5B
:100C9000D950FD0FE96EFF0EDA20EA6E090EEE184C
:100CA00001E1ED5002E1390EDF6ED950FD0FE96E22
:100CB000FF0EDA20EA6E0A0EEE1801E1ED5002E1B5
:100CC000410EDF6ED950FD0FE96EFF0EDA20EA6E9D
:100CD0000B0EEE1801E1ED5002E1420EDF6ED9502D
:100CE000FD0FE96EFF0EDA20EA6E0C0EEE1801E140
:100CF000ED5002E1430EDF6ED950FD0FE96EFF0E9D
:100D0000DA20EA6E0D0EEE1801E1ED5002E1440E1C
:100D1000DF6ED950FD0FE96EFF0EDA20EA6E0E0E7F
:100D2000EE1801E1ED5002E1450EDF6ED950FD0FE6
:100D3000E96EFF0EDA20EA6E0F0EEE1801E1ED50BB
:100D400002E1460EDF6ED950FD0FE96EFF0EDA208C
:100D5000EA6E100EEE1801E1ED5002E1470EDF6E73
:100D6000D950FD0FE96EFF0EDA20EA6E110EEE1873
:100D700001E1ED5002E1480EDF6ED950FD0FE96E42
:100D8000FF0EDA20EA6E120EEE1801E1ED5002E1DC
:100D9000490EDF6EDF5000D0E552E552E7CFD9FFB4
:100DA0001200A9EC01F0010EE66EE66AE66EE66A54
:100DB000E0EC01F0E552E552E552E552160EE66E22
:100DC000010EE66EBBEC01F0E552E552020EE66E56
:100DD000E66A010EE66EE66AE0EC01F0E552E552E5
:100DE000E552E552240EE66E010EE66EBBEC01F014
:100DF000E552E552FBC1E6FFAEEC01F0E552020E12
:100E0000E66EE66A0B0EE66EE66AE0EC01F0E5528D
:100E1000E552E552E552270EE66E010EE66EBBEC9A
:100E200001F0E552E552050EE66E8DEC13F0E55249
:100E30000101FB51630A01E1E2D1010A01E1B6D1EE
:100E4000030A01E18AD1580A01E15ED1010A01E1F8
:100E500032D10F0A01E106D1010A01E1DAD0030A19
:100E600001E1AED0010A01E182D0070A57E0010A90
:100E70002CE0030A01E0F2D10101ED6BEE6BEE35DF
:100E800004E2ED510108000EEE551EE3740EED254F
:100E9000E96E010EEE21EA6EEF50E66EE66A09ECAD
:100EA00013F0E552E5528986E80EE66E8DEC13F0FC
:100EB000E5528996640EE66E8DEC13F0E552010161
:100EC000ED2B000EEE23DBD7C9D10101ED6BEE6BEC
:100ED000EE3504E2ED510208000EEE551EE3760EEB
:100EE000ED25E96E010EEE21EA6EEF50E66EE66A40
:100EF00009EC13F0E552E5528986E80EE66E8DECBA
:100F000013F0E5528996640EE66E8DEC13F0E5520F
:100F10000101ED2B000EEE23DBD7A0D10101ED6B1B
:100F2000EE6BEE3504E2ED510308000EEE551EE3C4
:100F3000790EED25E96E010EEE21EA6EEF50E66EB8
:100F4000E66A09EC13F0E552E5528986E80EE66E92
:100F50008DEC13F0E5528996640EE66E8DEC13F07D
:100F6000E5520101ED2B000EEE23DBD777D1010115
:100F7000ED6BEE6BEE3504E2ED510408000EEE551C
:100F80001EE37D0EED25E96E010EEE21EA6EEF50B7
:100F9000E66EE66A09EC13F0E552E5528986E80E42
:100FA000E66E8DEC13F0E5528996640EE66E8DECDC
:100FB00013F0E5520101ED2B000EEE23DBD74ED1ED
:100FC0000101ED6BEE6BEE3504E2ED510508000E0C
:100FD000EE551EE3820EED25E96E010EEE21EA6E5E
:100FE000EF50E66EE66A09EC13F0E552E5528986A9
:100FF000E80EE66E8DEC13F0E5528996640EE66E0F
:101000008DEC13F0E5520101ED2B000EEE23DBD742
:1010100025D10101ED6BEE6BEE3504E2ED510608D2
:10102000000EEE551EE3880EED25E96E010EEE2151
:10103000EA6EEF50E66EE66A09EC13F0E552E5520F
:101040008986E80EE66E8DEC13F0E5528996640E03
:10105000E66E8DEC13F0E5520101ED2B000EEE2350
:10106000DBD7FCD00101ED6BEE6BEE3504E2ED5108
:101070000708000EEE551EE38F0EED25E96E010EFA
:10108000EE21EA6EEF50E66EE66A09EC13F0E552E7
:10109000E5528986E80EE66E8DEC13F0E5528996EE
:1010A000640EE66E8DEC13F0E5520101ED2B000E9F
:1010B000EE23DBD7D3D00101ED6BEE6BEE3504E20E
:1010C000ED510808000EEE551EE3970EED25E96E72
:1010D000010EEE21EA6EEF50E66EE66A09EC13F0BF
:1010E000E552E5528986E80EE66E8DEC13F0E55286
:1010F0008996640EE66E8DEC13F0E5520101ED2B3E
:10110000000EEE23DBD7AAD00101ED6BEE6BEE35BE
:1011100004E2ED510908000EEE551EE3A00EED2588
:10112000E96E010EEE21EA6EEF50E66EE66A09EC1A
:1011300013F0E552E5528986E80EE66E8DEC13F069
:10114000E5528996640EE66E8DEC13F0E5520101CE
:10115000ED2B000EEE23DBD781D00101ED6BEE6BA2
:10116000EE3504E2ED510A08000EEE551EE3AA0E1C
:10117000ED25E96E010EEE21EA6EEF50E66EE66AAD
:1011800009EC13F0E552E5528986E80EE66E8DEC27
:1011900013F0E5528996640EE66E8DEC13F0E5527D
:1011A0000101ED2B000EEE23DBD758D00101ED6BD2
:1011B000EE6BEE3504E2ED510F08000EEE551EE326
:1011C000B50EED25E96E010EEE21EA6EEF50E66EEA
:1011D000E66A09EC13F0E552E5528986E80EE66E00
:1011E0008DEC13F0E5528996640EE66E8DEC13F0EB
:1011F000E5520101ED2B000EEE23DBD72FD00101CC
:10120000ED6BEE6BEE3504E2ED511208000EEE557B
:1012100024E3EDC1E9FFEEC1EAFFD890E936EA36F2
:10122000C50EE926010EEA22EECFE6FFEFCFE6FF7C
:1012300009EC13F0E552E5528986E80EE66E8DEC76
:1012400013F0E5528996640EE66E8DEC13F0E552CC
:101250000101ED2B000EEE23D5D700D01200D9CF1F
:10126000E6FFE1CFD9FF040EE126DE6ADD6A020E59
:10127000DB6A030EDB6A81B4B9EF10F0140EE66E80
:101280008DEC13F0E55281B4B9EF10F0A9EC01F048
:10129000010EE66EE66AE66EE66AE0EC01F0E55203
:1012A000E552E552E5525A0EE66E010EE66EBBECD3
:1012B00001F0E552E552020EE66EE66A010EE66EB8
:1012C000E66AE0EC01F0E552E552E552E552530ED4
:1012D000E66E010EE66EBBEC01F0E552E55281A22E
:1012E00083D0140EE66E8DEC13F0E55281B63FD03C
:1012F000140EE66E8DEC13F0E55281B638D01E0E5A
:10130000E66E8DEC13F0E552020EDB2A030E01E3CC
:10131000DB2A020EDBCF14F0030EDBCF15F0D890E2
:10132000155004E6040E145C000E155807E3010E78
:10133000F36E020EF3CFDBFF030EDB6A020EE66EE6
:10134000E66A080EE66EE66AE0EC01F0E552E55268
:10135000E552E552020EDBCFE6FF030EDBCFE6FFE0
:101360001FDCE552E552E66EAEEC01F0E55281B0CD
:101370003AD0140EE66E8DEC13F0E55281B033D006
:101380001E0EE66E8DEC13F0E552020EDB06030E28
:1013900001E2DB06D950020FE96EDACFEAFFEE5028
:1013A000ED1007E1030EF36E020EF3CFDBFF030E29
:1013B000DB6A020EE66EE66A080EE66EE66AE0ECAE
:1013C00001F0E552E552E552E552020EDBCFE6FFB1
:1013D000030EDBCFE6FFD0EC05F0E552E552E66EFA
:1013E000AEEC01F0E5527BD7A9EC01F0010EE66E00
:1013F000E66AE66EE66AE0EC01F0E552E552E55297
:10140000E552440EE66E010EE66EBBEC01F0E552CD
:10141000E552010EE66EE66A0F0EE66EE66AE0EC55
:1014200001F0E552E552E552E552020EDBCFE6FF50
:10143000030EDBCFE6FFD0EC05F0E552E552E66E99
:10144000AEEC01F0E552020EE66EE66A010EE66EC3
:10145000E66AE0EC01F0E552E552E552E552080E8D
:10146000E66E010EE66EBBEC01F0E552E552020EAF
:10147000DBCF08F0030EDBCF09F0020E081801E104
:10148000095001E15BD3010E081801E1095002E0A7
:10149000B9EF10F081A276D0140EE66E8DEC13F049
:1014A000E55281B636D0140EE66E8DEC13F0E5529F
:1014B00081B62FD01E0EE66E8DEC13F0E552DF2ABA
:1014C000010E01E3DB2ADECF14F0DDCF15F0153479
:1014D00004E214501208000E155403E2120EDE6EE0
:1014E000DD6A020EE66EE66A0F0EE66EE66AE0EC74
:1014F00001F0E552E552E552E552DECFE6FFDDCFE1
:10150000E6FFD0EC05F0E552E552E66EAEEC01F0F8
:10151000E55281B036D0140EE66E8DEC13F0E55234
:1015200081B02FD01E0EE66E8DEC13F0E552DF0673
:10153000010E01E2DB06DECF14F0DDCF15F015342D
:1015400004E214500008000E155403E3010EDE6E91
:10155000DD6A020EE66EE66A0F0EE66EE66AE0EC03
:1015600001F0E552E552E552E552DECFE6FFDDCF70
:10157000E6FFD0EC05F0E552E552E66EAEEC01F088
:10158000E55288D7A9EC01F0010EE66EE66AE66E38
:10159000E66AE0EC01F0E552E552E552E552160E3E
:1015A000E66E010EE66EBBEC01F0E552E552020E6E
:1015B000E66EE66A010EE66EE66AE0EC01F0E552E0
:1015C000E552E552E552240EE66E010EE66EBBECE6
:1015D00001F0E552E552DECFE6FFDDCFE6FFD0ECCD
:1015E00005F0E552E552E66EAEEC01F0E552020E72
:1015F000E66EE66A0B0EE66EE66AE0EC01F0E55296
:10160000E552E552E552270EE66E010EE66EBBECA2
:1016100001F0E552E552050EE66E8DEC13F0E55251
:10162000000EDFCF08F0010EDBCF09F00C0E08181A
:1016300001E1095001E152D20B0E081801E10950F5
:1016400001E124D20A0E081801E1095001E1EDD1AF
:10165000090E081801E1095001E1B6D1080E081879
:1016600001E1095001E17FD1070E081801E109509D
:1016700001E148D1060E081801E1095001E111D13C
:10168000050E081801E1095001E1DAD0040E08182E
:1016900001E1095001E1A3D0030E081801E109504E
:1016A0006DE0020E081801E1095037E0010E08183C
:1016B00001E1095001E041D20101ED6BEE6BDECF9B
:1016C00014F0DDCF15F01550EE19E8AE02D0EE356E
:1016D00004D0ED51145CEE5115581EE3740EED2547
:1016E000E96E010EEE21EA6EEF50E66EE66A09EC55
:1016F00013F0E552E5528986E80EE66E8DEC13F0A4
:10170000E5528996640EE66E8DEC13F0E552010108
:10171000ED2B000EEE23D3D710D20101ED6BEE6B53
:10172000DECF14F0DDCF15F01550EE19E8AE02D083
:10173000EE3504D0ED51145CEE5115581EE3760ED3
:10174000ED25E96E010EEE21EA6EEF50E66EE66AD7
:1017500009EC13F0E552E5528986E80EE66E8DEC51
:1017600013F0E5528996640EE66E8DEC13F0E552A7
:101770000101ED2B000EEE23D3D7DFD10101ED6B7C
:10178000EE6BDECF14F0DDCF15F01550EE19E8AE9C
:1017900002D0EE3504D0ED51145CEE5115581EE325
:1017A000790EED25E96E010EEE21EA6EEF50E66E40
:1017B000E66A09EC13F0E552E5528986E80EE66E1A
:1017C0008DEC13F0E5528996640EE66E8DEC13F005
:1017D000E5520101ED2B000EEE23D3D7AED101016E
:1017E000ED6BEE6BDECF14F0DDCF15F01550EE197A
:1017F000E8AE02D0EE3504D0ED51145CEE51155830
:101800001EE37D0EED25E96E010EEE21EA6EEF502E
:10181000E66EE66A09EC13F0E552E5528986E80EB9
:10182000E66E8DEC13F0E5528996640EE66E8DEC53
:1018300013F0E5520101ED2B000EEE23D3D77DD13D
:101840000101ED6BEE6BDECF14F0DDCF15F015501E
:10185000EE19E8AE02D0EE3504D0ED51145CEE5135
:1018600015581EE3820EED25E96E010EEE21EA6E9B
:10187000EF50E66EE66A09EC13F0E552E552898610
:10188000E80EE66E8DEC13F0E5528996640EE66E76
:101890008DEC13F0E5520101ED2B000EEE23D3D7B2
:1018A0004CD10101ED6BEE6BDECF14F0DDCF15F006
:1018B0001550EE19E8AE02D0EE3504D0ED51145CAF
:1018C000EE5115581EE3880EED25E96E010EEE214E
:1018D000EA6EEF50E66EE66A09EC13F0E552E55267
:1018E0008986E80EE66E8DEC13F0E5528996640E5B
:1018F000E66E8DEC13F0E5520101ED2B000EEE23A8
:10190000D3D71BD10101ED6BEE6BDECF14F0DDCF31
:1019100015F01550EE19E8AE02D0EE3504D0ED51B9
:10192000145CEE5115581EE38F0EED25E96E010E85
:10193000EE21EA6EEF50E66EE66A09EC13F0E5522E
:10194000E5528986E80EE66E8DEC13F0E552899635
:10195000640EE66E8DEC13F0E5520101ED2B000EE6
:10196000EE23D3D7EAD00101ED6BEE6BDECF14F09E
:10197000DDCF15F01550EE19E8AE02D0EE3504D0EB
:10198000ED51145CEE5115581EE3970EED25E96EEE
:10199000010EEE21EA6EEF50E66EE66A09EC13F0F6
:1019A000E552E5528986E80EE66E8DEC13F0E552BD
:1019B0008996640EE66E8DEC13F0E5520101ED2B75
:1019C000000EEE23D3D7B9D00101ED6BEE6BDECF65
:1019D00014F0DDCF15F01550EE19E8AE02D0EE355B
:1019E00004D0ED51145CEE5115581EE3A00EED2508
:1019F000E96E010EEE21EA6EEF50E66EE66A09EC42
:101A000013F0E552E5528986E80EE66E8DEC13F090
:101A1000E5528996640EE66E8DEC13F0E5520101F5
:101A2000ED2B000EEE23D3D788D00101ED6BEE6BCA
:101A3000DECF14F0DDCF15F01550EE19E8AE02D070
:101A4000EE3504D0ED51145CEE5115581EE3AA0E8C
:101A5000ED25E96E010EEE21EA6EEF50E66EE66AC4
:101A600009EC13F0E552E5528986E80EE66E8DEC3E
:101A700013F0E5528996640EE66E8DEC13F0E55294
:101A80000101ED2B000EEE23D3D757D00101ED6BF2
:101A9000EE6BEE3504E2ED510F08000EEE551EE33D
:101AA000B50EED25E96E010EEE21EA6EEF50E66E01
:101AB000E66A09EC13F0E552E5528986E80EE66E17
:101AC0008DEC13F0E5528996640EE66E8DEC13F002
:101AD000E5520101ED2B000EEE23DBD70101ED6B8A
:101AE000EE6BEE3504E2ED511208000EEE5524E3E4
:101AF000EDC1E9FFEEC1EAFFD890E936EA36C50E3E
:101B0000E926010EEA22EECFE6FFEFCFE6FF09EC71
:101B100013F0E552E5528986E80EE66E8DEC13F07F
:101B2000E5528996640EE66E8DEC13F0E5520101E4
:101B3000ED2B000EEE23D5D700D01BD381A26DD0A4
:101B400081B636D00A0EE66E8DEC13F0E55281B602
:101B50002FD0DF2A010E01E3DB2A1E0EE66E8DEC8C
:101B600013F0E552DECF14F0DDCF15F0153404E2AA
:101B700014501208000E155403E2120EDE6EDD6AD8
:101B8000020EE66EE66A0F0EE66EE66AE0EC01F023
:101B9000E552E552E552E552DECFE6FFDDCFE6FF46
:101BA000D0EC05F0E552E552E66EAEEC01F0E55200
:101BB00081B032D00A0EE66E8DEC13F0E55281B0A2
:101BC0002BD0DF06010E01E2DB061E0EE66E8DEC69
:101BD00013F0E552DECF14F0DDCF15F00001800EDA
:101BE000151402E0DE6ADD6A020EE66EE66A0F0E8A
:101BF000E66EE66AE0EC01F0E552E552E552E552A8
:101C0000DECFE6FFDDCFE6FFD0EC05F0E552E55292
:101C1000E66EAEEC01F0E55291D7A9EC01F0010EB1
:101C2000E66EE66AE66EE66AE0EC01F0E552E55241
:101C3000E552E552160EE66E010EE66EBBEC01F0C3
:101C4000E552E552020EE66EE66A010EE66EE66ABF
:101C5000E0EC01F0E552E552E552E552240EE66E65
:101C6000010EE66EBBEC01F0E552E552DECFE6FF79
:101C7000DDCFE6FFD0EC05F0E552E552E66EAEECC6
:101C800001F0E552020EE66EE66A0B0EE66EE66ABB
:101C9000E0EC01F0E552E552E552E552270EE66E22
:101CA000010EE66EBBEC01F0E552E552050EE66E64
:101CB0008DEC13F0E552000EDFCF08F0010EDBCF04
:101CC00009F00C0E081801E1095001E124D20B0EB5
:101CD000081801E1095001E1F2D10A0E081801E1EA
:101CE000095001E1C0D1090E081801E1095001E1D4
:101CF0008ED1080E081801E1095001E15CD1070EF0
:101D0000081801E1095001E12AD1060E081801E185
:101D1000095001E1F8D0050E081801E1095001E170
:101D2000C6D0040E081801E1095001E194D0030E59
:101D3000081801E1095063E0020E081801E109509A
:101D400032E0010E081801E1095001E010D2010152
:101D5000ED6BEE6B310EEEAF02D0D89003D0ED5D9F
:101D6000000EEE5918E2910EE66EE66ADAEC12F019
:101D7000E552E5528986E80EE66E8DEC13F0E552E9
:101D80008996640EE66E8DEC13F0E5520101ED2BA1
:101D9000000EEE23DFD7910EE66EE66ADAEC12F063
:101DA000E552E552E4D10101ED6BEE6B3C0EEEAF76
:101DB00002D0D89003D0ED5D000EEE5918E2920EDD
:101DC000E66EE66ADAEC12F0E552E5528986C80E54
:101DD000E66E8DEC13F0E5528996640EE66E8DEC9E
:101DE00013F0E5520101ED2B000EEE23DFD7910E2B
:101DF000E66EE66ADAEC12F0E552E552B8D101017E
:101E0000ED6BEE6B410EEEAF02D0D89003D0ED5DDE
:101E1000000EEE5918E2920EE66EE66ADAEC12F067
:101E2000E552E5528986C80EE66E8DEC13F0E55258
:101E30008996640EE66E8DEC13F0E5520101ED2BF0
:101E4000000EEE23DFD7910EE66EE66ADAEC12F0B2
:101E5000E552E5528CD10101ED6BEE6B310EEEAF28
:101E600002D0D89003D0ED5D000EEE5918E2900E2E
:101E7000E66EE66ADAEC12F0E552E5528986E80E83
:101E8000E66E8DEC13F0E5528996640EE66E8DECED
:101E900013F0E5520101ED2B000EEE23DFD7910E7A
:101EA000E66EE66ADAEC12F0E552E55260D1010125
:101EB000ED6BEE6B3C0EEEAF02D0D89003D0ED5D33
:101EC000000EEE5918E2900EE66EE66ADAEC12F0B9
:101ED000E552E5528986C80EE66E8DEC13F0E552A8
:101EE0008996640EE66E8DEC13F0E5520101ED2B40
:101EF000000EEE23DFD7910EE66EE66ADAEC12F002
:101F0000E552E55234D10101ED6BEE6B410EEEAFBF
:101F100002D0D89003D0ED5D000EEE5918E28F0E7E
:101F2000E66EE66ADAEC12F0E552E5528986C80EF2
:101F3000E66E8DEC13F0E5528996640EE66E8DEC3C
:101F400013F0E5520101ED2B000EEE23DFD7930EC7
:101F5000E66EE66ADAEC12F0E552E55208D10101CC
:101F6000ED6BEE6B240EEEAF02D0D89003D0ED5D9A
:101F7000000EEE5918E28F0EE66EE66ADAEC12F009
:101F8000E552E5528986C80EE66E8DEC13F0E552F7
:101F90008996640EE66E8DEC13F0E5520101ED2B8F
:101FA000000EEE23DFD78F0EE66EE66ADAEC12F053
:101FB000E552E552DCD00101ED6BEE6B240EEEAF85
:101FC00002D0D89003D0ED5D000EEE5918E2970EC6
:101FD000E66EE66ADAEC12F0E552E5528986E80E22
:101FE000E66E8DEC13F0E5528996640EE66E8DEC8C
:101FF00013F0E5520101ED2B000EEE23DFD78F0E1B
:10200000E66EE66ADAEC12F0E552E552B0D0010174
:10201000ED6BEE6B240EEEAF02D0D89003D0ED5DE9
:10202000000EEE5918E2980EE66EE66ADAEC12F04F
:10203000E552E5528986E80EE66E8DEC13F0E55226
:102040008996640EE66E8DEC13F0E5520101ED2BDE
:10205000000EEE23DFD78F0EE66EE66ADAEC12F0A2
:10206000E552E55284D00101ED6BEE6B240EEEAF2C
:1020700002D0D89003D0ED5D000EEE5918E2990E13
:10208000E66EE66ADAEC12F0E552E5528986E80E71
:10209000E66E8DEC13F0E5528996640EE66E8DECDB
:1020A00013F0E5520101ED2B000EEE23DFD78F0E6A
:1020B000E66EE66ADAEC12F0E552E55258D001011C
:1020C000ED6BEE6B240EEEAF02D0D89003D0ED5D39
:1020D000000EEE5918E29A0EE66EE66ADAEC12F09D
:1020E000E552E5528986E80EE66E8DEC13F0E55276
:1020F0008996640EE66E8DEC13F0E5520101ED2B2E
:10210000000EEE23DFD78F0EE66EE66ADAEC12F0F1
:10211000E552E5522CD00101ED6BEE6B240EEEAFD3
:1021200002D0D89003D0ED5D000EEE5918E29B0E60
:10213000E66EE66ADAEC12F0E552E5528986E80EC0
:10214000E66E8DEC13F0E5528996640EE66E8DEC2A
:1021500013F0E5520101ED2B000EEE23DFD78F0EB9
:10216000E66EE66ADAEC12F0E552E55200D001D0F4
:1021700000D0040EE15C02E2E16AE552E16EE55254
:10218000E7CFD9FF1200DACFE4FFE2CFDAFFE9CFE1
:10219000E4FFEACFE4FFF6CFE4FFF7CFE4FFF5CFAB
:1021A000E4FFF3CFE4FFF4CFE4FFFACFE4FF00EE67
:1021B00000F0140EE80403E3EECFE4FFFBD700EEDB
:1021C00014F0040EE80403E3EECFE4FFFBD7E6527D
:1021D0009E9AAECFFBF1FBC1E6FF73EC04F0E55233
:1021E000E55200EE17F0040EE80403E3E5CFEDFF3F
:1021F000FBD700EE13F0140EE80403E3E5CFEDFF88
:10220000FBD7E5CFFAFFE5CFF4FFE5CFF3FFE5CF4E
:10221000F5FFE5CFF7FFE5CFF6FFE5CFEAFFE5CF26
:08222000E9FFE5CFDAFF110030
:08222800016A22EC12F03AEC0D
:1022300012F001B6CAEF11F001A205D001B8CAEF41
:1022400011F0D1EF11F001AA05D001B0CAEF11F0E1
:10225000D1EF11F001B002D001A802D0DDEF11F0F2
:10226000056A0F500A24046EE86A05227E0E045E99
:10227000E86A055A126A136A026A036A0E50090272
:10228000F4CF03F0F3CF02F00D500902F350132600
:10229000F4500222000E03220E500802F3501326BF
:1022A000F4500222000E03220C500902F3501226B1
:1022B000F4501322000E022203220D500802F350A4
:1022C0001226F4501322000E022203220E5007029F
:1022D000F3501226F4501322000E022203220C5057
:1022E0000802F4501226000E1322022203220D507F
:1022F0000702F4501226000E132202220322E6EFF8
:1023000011F0006A0EAE87EF11F00E6C001E09AEE0
:102310008CEF11F0096C001EBBEC13F009BE96EFB8
:1023200011F000AE000C096C056C000C00BE93EFC0
:1023300011F00188FF0C016A22EC12F001B6A5EF42
:1023400011F001A20ED001B405D07F0E096EFF0E70
:10235000086E1FD0800E096E086A1BD0096A086AD1
:1023600018D001B0FBD78F0E0A60EDD77E0E0A643D
:10237000F5D78E0E0A5C05E0D890093208320A2A99
:10238000F8D701A406D0086C091EE86A092209AE34
:10239000E5D712007F0E0A6EFF0E096E086E076EFB
:1023A00012007F0E01BEFF0E0A6E02D07F0E0A6E73
:1023B000800E096E086A076AF3D701AE04D0800E5A
:1023C0000A6E096AF7D70A6A096AF4D7035002103D
:1023D00013101210F8E005BEF0D703BE0CD0045065
:1023E0000510EBE0D8901236133602360336040699
:1023F000D8A00506F2D70550D4E10428D2E012AEE9
:1024000011D07F0E121402E113A00CD0132AE86A37
:102410000222032207E3D880033202321332042A55
:102420000428BFE00450C9E013C007F002C008F060
:102430000334096E04300A6E09320A9E01BE0A8E08
:10244000D0EF11F009360A3602E30184017E06E17D
:1024500001800A6A096A086A076A12000A2803E00A
:10246000D88009321200D890093202E101821200AC
:10247000018612000E360F3602E3018C017E06E162
:1024800001880F6A0E6A0D6A0C6A12000F2803E0B9
:10249000D8800E321200D8900E32EAE1018A120082
:1024A000060EF66E000EF76E000EF86E01010900C2
:1024B000F550F66F0900F550F76F03E1F66701D0AC
:1024C0003DD00900F550F16F0900F550F26F090099
:1024D000F550F36F09000900F550E96E0900F55059
:1024E000EA6E090009000900F550F46F0900F55083
:1024F000F56F09000900F6CFF8F1F7CFF9F1F8CF41
:10250000FAF1F1C1F6FFF2C1F7FFF3C1F8FF0101E3
:10251000F45302E1F55307E00900F550EE6EF407BD
:10252000F8E2F507F9D7F8C1F6FFF9C1F7FFFAC1EC
:0E253000F8FF0101F607000EF75BBFD712009F
:02253E00D9CFF3
:10254000E6FFDACFE6FFE1CFD9FFE2CFDAFFE652CE
:10255000E652E652E652F8CF02F0F6CF03F00C0E48
:10256000BA6E050EF66EF76A300EF86E0800F5507A
:10257000010B03E0010EDB6802D0010EDB6A010EE5
:10258000DB5002E0949201D09396CA94FD0EDB508A
:10259000CB6ECA8402C0F8FF03C0F6FF040EE15CF4
:1025A00002E2E16AE552E16EE552E5CFDAFFE7CFFC
:0425B000D9FF12003D
:0C25B400D9CFE6FFDACFE6FFE1CFD9FF78
:1025C000E2CFDAFFE652E652FC0EDBCF14F0FD0E4E
:1025D000DBCF15F0060ED89014361536E804FBE173
:1025E00014C0DEFF15C0DDFF010EDB50BB6EDF50F7
:1025F000E840E8403F0B300B146ECF0EBA141410B5
:10260000BA6EE552E552E552E5CFDAFFE7CFD9FFE2
:022610001200B6
:0E261200D9CFE6FFDACFE6FFE1CFD9FFE2CF66
:10262000DAFFE652E652FC0EDBCF14F0FD0EDBCFF4
:1026300015F0060ED89014361536E804FBE114C0E8
:10264000DEFF15C0DDFF010EDB50BE6EDF50E8403F
:10265000E8403F0B300B146ECF0EBD141410BD6E4E
:10266000E552E552E552E5CFDAFFE7CFD9FF120098
:10267000D9CFE6FFDACFE6FFE1CFD9FFE2CFDAFF2D
:102680000C0EBD12CA94FD0EDB50CB6ECA84E5520F
:10269000E5CFDAFFE7CFD9FF1200B9B09494B9A221
:1026A00002D093947F90B9A402D093927F94B9A65C
:0826B00002D093987F961200FE
:0826B800D9CFE6FFDACFE6FFFF
:1026C000E1CFD9FFE2CFDAFFFD0EDB50FB0BCA6E84
:1026D000CC6A9E92FD0EDBAE02D09D8201D09D920F
:0E26E000CA84E552E5CFDAFFE7CFD9FF12003A
:0226EE00056A7B
:1026F000046A100EE76ED89008360936043605369F
:102700000D50045C0E50055805E30D50045E0E504C
:0A271000055A082AE72EF0D7120040
:06271A00FF0EE350186EF3
:10272000480E01D04C0EE76EE72EFED7E76AE72E83
:0A273000FED7182EF7D700001200A4
:06273A00600EF36E00EEDC
:1027400000F00F0E01D81200EA6002D0EE6AFCD74A
:0A275000F350E9601200EE6AFCD7B6
:06275A001EEE00F02EEE61
:1027600000F0F86A019C50EC12F00AEC00F0D1EC99
:0627700004F0FBD712008B
:0A277600056A080EE76ED8900936D8
:1027800005360E50055C02E3056E092AE72EF7D7E1
:02279000120035
:0E27920053657474696E67005370696E20742D
:1027A000696D6573204E3A0053657474696E6720D5
:1027B000646F6E6521004E3D005374617274004D6C
:1027C0006F746F72697A6564207265616479210043
:1027D00053657475700053657474696E67206D6F0E
:1027E0006465203A004D4F4445203D0053656C65BB
:1027F0006374206D6F6465005741524E494E472DFA
:102800004552524F52003A8F3A658F3A58728F3A7A
:102810005265798F3A4E5E6D7D8F3A4B5865727F67
:102820008F3A4A55606B77828F3A48525C65666F83
:10283000798F3A4A5058616A737C858F3A4750586D
:1028400060676F787F878F3A434A4E54595F646957
:102850006E73787E83898F3A003F00440049004DB3
:1028600000520056005B005F00640069006E007259
:102870000077007C00810085008B008F0000000045
:0328800000000055
:020000040030CA
:0100010008F6
:010002001FDE
:010003001EDE
:0100050001F9
:010006008178
:010008000FE8
:01000900C036
:01000A000FE6
:01000B00E014
:01000C000FE4
:00000001FF
