:020000040000FA
:060000008EEF00F012007B
:020006000000F8
:08000800060EF66E000EF76E05
:10001000000EF86E0F010900F550056F0900F5504C
:10002000066F03E1056701D03DD00900F550006F70
:100030000900F550016F0900F550026F0900090031
:10004000F550E96E0900F550EA6E09000900090053
:10005000F550036F0900F550046F09000900F6CF51
:1000600007FFF7CF08FFF8CF09FF00CFF6FF01CF5A
:10007000F7FF02CFF8FF0F01035302E1045307E03B
:100080000900F550EE6E0307F8E20407F9D707CF31
:10009000F6FF08CFF7FF09CFF8FF0F010507000EA5
:0600A000065BBFD7120051
:0A00A60093809382938293828998DD
:1000B0009298F19E0F0E7C6E81B2FED7050E09D884
:1000C00081B2FAD78998C80E04D8C80E02D8898898
:0C00D000F3D7E66E6EEC00F0E552120073
:0400DC00FF0EE350E0
:1000E000026E480E01D04C0EE76EE72EFED7E76A8F
:0C00F000E72EFED7022EF7D7000012000A
:0400FC00600EF36E31
:1001000000EE00F00F0E01D81200EA6002D0EE6A95
:0C011000FCD7F350E9601200EE6AFCD747
:04011C001EEE00F0E3
:100120002EEE00F0F86A019C04EC00F09CEC00F06C
:0801300053EC00F0FBD71200B4
:020138001200B3
:020000040030CA
:0100010008F6
:010002001FDE
:010003001EDE
:0100050001F9
:010006008178
:010008000FE8
:01000900C036
:01000A000FE6
:01000B00E014
:01000C000FE4
:00000001FF
