:020000040000fa
:080000000002040000000000f2
:020000040000fa
:100400000f8020000e7f22000e01880000000000f7
:100410000c00070040422000010020000f000700f0
:10042000000020000000e000020032000000020096
:10043000000000001c040200000000000040da0080
:100440000000fe00000120000000e0000200320079
:10045000002020009001880000000600a102880012
:10046000800078000000eb001a003700e2804000b6
:1004700054a0b4009101ba00e280400054a0b4003e
:100480009102ba00e280400054a0b4000002eb00e8
:10049000472bde00f507b200a6018800602ce100c2
:1004a00008003a000049eb000201e80002003900b0
:1004b0003420ec0002f0a0008301e900f9ff3e00c7
:1004c000040037006128e100010032000082eb00e7
:1004d000040007001101ba000200e000e3ff3a0047
:1004e0000000060004d0a300e20f49001c00390000
:1004f000810278003549ba000201e80002003900a3
:100500003420ec0002f0a0008301e9000f0032006b
:100510002549ba000201e800020039003420ec004d
:1005200002f0a0008301e900080032000400e000ae
:100530000600320015c9ba000201e80002003900c5
:100540003420ec0002f0a0008301e9008180e80083
:1005500054a0b4000300e000e2ff3a0000000600ef
:100560009102ba00055978008301e900f7ff3200d3
:10057000c82ade00055978008301e900f3ff320044
:100580000400e000f1ff320011d9ba00eeff37009d
:080590000040da000000fe004b
:020000040000fa
:10000800c8020000c8020000c8020000c8020000c0
:10001800c8020000c8020000c8020000c8020000b0
:10002800c8020000c8020000c8020000c8020000a0
:10003800c8020000c8020000c8020000c802000090
:020000040000fa
:020000040000fa
:1005980030310000323300003435000036370000b7
:1005a800383900004142000043440000454600003d
:020000040000fa
:1005b8000000fa00616a20009140780000ccb30086
:1005c80000c060008041b300a6e6b700716d20004e
:1005d8009140780000ccb30000c060005040b300e8
:1005e800d7e6b7000080fa00000006000000fa0015
:1005f800c0002000c0118800000028008011880079
:1006080000402200901188000080fa0000000600d7
:100618000600fa0010079800020037001e40780014
:10062800120007001e00900010407800004f78006c
:100638001e407800404798004e4090000004e000bb
:100648000200320010c0b300404798004e409000ae
:100658009e0090008100e800110798000004e00067
:10066800eeff3a000080fa00000006000200fa00df
:10067800004f780033c2bf00614060000004e00012
:10068800fcff32001e80fb00a01188000080fa00e9
:10069800000006000400fa00204798002e40900051
:1006a800004f78002e4090000080fb004400de00e0
:1006b8006f406000204798002e4090008080fb002b
:1006c800c02c280061407800e8ff07009e407800b1
:1006d8006fc06000204798002e4090008080fb008b
:1006e800c02c280061407800e0ff07000080fa0075
:1006f800000006000400fa00100798001e00900091
:100708004800de00104798001e009000004f780057
:100718001e409000dfff07001e407800ddff070045
:100728000080fa00000006000200fa0032c2bf0092
:10073800614060000004e000fcff3200b01180005e
:10074800004f78001e4078000080fb000080fa000f
:10075800000006000000fa00d16a200091407800ed
:1007680000ccb30000c060003040b300ade6b70075
:10077800316c20009140780000ccb30000c06000cc
:10078800b040b300c3e6b700216c20009140780068
:1007980000ccb30000c06000a040b300c2e6b700c0
:1007a800c16a20009140780000ccb30000c060000e
:1007b8000024a000ace6b7000080fa0000000600a4
:1007c8000000fa00e0132000101388000000280041
:1007d800001388000080fa00000006000400fa00f8
:1007e800204798008820a90040138000004f780017
:1007f8002e4090000080fb004013880088c0bf0096
:10080800624060000004e000fcff32000080fa0053
:10081800000006000000fa000040eb00efff0700b0
:10082800401380000080fb000080fa0000000600f2
:100838000000fa000000eb000080fa00000006004b
:020000040000fa
:0408480000000000ac
:00000001FF
