:020000040000FA
:0600000098EF15F012005C
:0A0006000100682B0000000100005B
:04001000FC000000F0
:020014001200D8
:06001800AEEF12F0120031
:02001E009290BE
:10002000929292949398939A939C939E1200020EAC
:10003000E66E49D8E552010EE66E78EC15F0E55211
:10004000280EE66E40D8E552010EE66E78EC15F00B
:10005000E5520C0EE66E37D8E552010EE66E78ECEE
:1000600015F0E552060EE66E2ED8E552010EE66E4C
:1000700078EC15F0E552010EE66E78EC15F0E552DD
:100080001200D9CFE6FFE1CFD9FF020EE126898425
:10009000DE6ADD6ADECF14F0DDCF15F0020E145CEF
:1000A000000E155805E2DF2A010E01E3DB2AF2D724
:1000B0008994020EE15C02E2E16AE552E16EE552EA
:1000C000E7CFD9FF1200D9CFE6FFE1CFD9FF020E6B
:1000D000E12689928990FE0EDB380F0BDE6EDD6A19
:1000E000DECF14F0DDCF15F0010E1414E8B08A88CD
:1000F000E8A08A98DECF14F0DDCF15F0020E1416BA
:10010000000E1516D890153214321450E8B08A8AB1
:10011000E8A08A9ADECF14F0DDCF15F0040E141695
:10012000000E1516D89015321432D89015321432AC
:100130001450E8B08A8CE8A08A9CDECF14F0DDCFA2
:1001400015F0080E1416000E1516030ED890153271
:100150001432E804FBE11450E8B08A8EE8A08A9ECD
:1001600090DFFE0EDB500F0BDE6EDD6ADECF14F08B
:10017000DDCF15F0010E1414E8B08A88E8A08A9843
:10018000DECF14F0DDCF15F0020E1416000E15169A
:10019000D890153214321450E8B08A8AE8A08A9AAE
:1001A000DECF14F0DDCF15F0040E1416000E151678
:1001B000D89015321432D890153214321450E8B059
:1001C0008A8CE8A08A9CDECF14F0DDCF15F0080EF3
:1001D0001416000E1516030ED89015321432E804CA
:1001E000FBE11450E8B08A8EE8A08A9E4ADF050E33
:1001F000E66E78EC15F0E552020EE15C02E2E16A8F
:10020000E552E16EE552E7CFD9FF1200D9CFE6FF04
:10021000E1CFD9FF020EE12689928980FE0EDB38FC
:100220000F0BDE6EDD6ADECF14F0DDCF15F0010EB0
:100230001414E8B08A88E8A08A98DECF14F0DDCFE5
:1002400015F0020E1416000E1516D8901532143241
:100250001450E8B08A8AE8A08A9ADECF14F0DDCF85
:1002600015F0040E1416000E1516D890153214321F
:10027000D890153214321450E8B08A8CE8A08A9CC9
:10028000DECF14F0DDCF15F0080E1416000E151693
:10029000030ED89015321432E804FBE11450E8B094
:1002A0008A8EE8A08A9EEDDEFE0EDB500F0BDE6E1E
:1002B000DD6ADECF14F0DDCF15F0010E1414E8B0C6
:1002C0008A88E8A08A98DECF14F0DDCF15F0020E00
:1002D0001416000E1516D890153214321450E8B0CA
:1002E0008A8AE8A08A9ADECF14F0DDCF15F0040EDA
:1002F0001416000E1516D89015321432D8901532F7
:1003000014321450E8B08A8CE8A08A9CDECF14F036
:10031000DDCF15F0080E1416000E1516030ED8903A
:1003200015321432E804FBE11450E8B08A8EE8A0DC
:100330008A9EA7DE050EE66E78EC15F0E552020EF9
:10034000E15C02E2E16AE552E16EE552E7CFD9FFF6
:100350001200010EE66EB7DEE5521200D9CFE6FFBD
:10036000E1CFD9FFFE0EDBCFE6FF50DFE552E552CD
:10037000E7CFD9FF1200D9CFE6FFE1CFD9FFFD0EBD
:10038000DBCFE9FFFE0EDBCFEAFFEF5015E0FD0EFD
:10039000DBCFE9FFFE0EDBCFEAFFEF50E66E36DF84
:1003A000E552FD0EDB2AFE0E01E3DB2A020EE66EAD
:1003B00078EC15F0E552E3D7E552E7CFD9FF12000C
:1003C000D9CFE6FFE1CFD9FF020EE126D950FB0FCE
:1003D000E96EFF0EDA20EA6E010EEE1801E1ED5033
:1003E00004E0400EDE6EDD6A02D0DE6ADD6AFD0EDC
:1003F000DBCF14F0FE0EDBCF15F01406000E155AFD
:10040000D9CFE9FFDACFEAFF1450EE261550ED22DE
:10041000DECF14F0DDCF15F0800E1410E66E53DE43
:10042000E552020EE66E78EC15F0E552020EE15C44
:1004300002E2E16AE552E16EE552E7CFD9FF120030
:10044000D9CFE6FFE1CFD9FF080EE126E80E146E02
:10045000030E156EFD0EDBCF08F0FE0EDBCF09F0AC
:1004600014C00DF015C00EF062EC15F0060E08C0B9
:10047000DBFF070E09C0DBFFFD0EDBCF14F0FE0E25
:10048000DBCF15F0E80E0D6E030E0E6E14C008F0F3
:1004900015C009F062EC15F004C014F005C015F0A9
:1004A000640E0D6E0E6A14C008F015C009F062ECFF
:1004B00015F008C014F009C015F0040E14C0DBFFDD
:1004C000050E15C0DBFFFD0EDBCF14F0FE0EDBCFFB
:1004D00015F0E80E0D6E030E0E6E14C008F015C078
:1004E00009F062EC15F004C014F005C015F0640EBC
:1004F0000D6E0E6A14C008F015C009F062EC15F01C
:1005000004C014F005C015F00A0E0D6E0E6A14C07A
:1005100008F015C009F062EC15F008C014F009C02D
:1005200015F0020E14C0DBFF030E15C0DBFFFD0E3D
:10053000DBCF14F0FE0EDBCF15F0E80E0D6E030ED0
:100540000E6E14C008F015C009F062EC15F004C07E
:1005500014F005C015F0640E0D6E0E6A14C008F09C
:1005600015C009F062EC15F004C014F005C015F0D8
:100570000A0E0D6E0E6A14C008F015C009F062EC88
:1005800015F004C014F005C015F014C0DEFF15C04E
:10059000DDFF060EDBCF14F0070EDBCF15F0300EBB
:1005A0001424E66E33DEE552040EDBCF14F0050EA4
:1005B000DBCF15F0300E1424E66E28DEE552020E75
:1005C000DBCF14F0030EDBCF15F0300E1424E66EF3
:1005D0001DDEE552DECF14F0DDCF15F0300E142411
:1005E000E66E14DEE552080EE15C02E2E16AE552D5
:1005F000E16EE552E7CFD9FF1200D9CFE6FFE1CF98
:10060000D9FF020EE1260A0E146E14C00EF0FE0E83
:10061000DBCF09F06CEC13F00950DF6EFE0EDBCF80
:1006200014F014C009F00A0E0E6E6CEC13F0010EFB
:1006300005C0DBFFDFCF14F0E76E1418E8AE02D080
:10064000E73402D0E750145C0CE3300EDF24E66E92
:10065000DDDDE552010EDB50300FE66ED7DDE552F1
:1006600006D0010EDB50300FE66ED0DDE552020EF3
:10067000E15C02E2E16AE552E16EE552E7CFD9FFC3
:100680001200D9CFE6FFE1CFD9FF0C0EE126D9CF7A
:10069000E9FFDACFEAFF2E0EEE6EEE6AFB0EDBCF3D
:1006A00014F0FC0EDBCF15F0FD0EDBCF16F0FE0EC6
:1006B000DBCF17F00C6A0D6A200E0E6E410E0F6E26
:1006C00014C007F015C008F016C009F017C00AF0F2
:1006D000FFEC12F086EC13F0020E08C0DBFF030EF5
:1006E00009C0DBFFE80E146E030E156E020EDBCFA1
:1006F00008F0030EDBCF09F014C00DF015C00EF0AA
:1007000062EC15F00A0E08C0DBFF0B0E09C0DBFF20
:10071000020EDBCF14F0030EDBCF15F0E80E0D6EEA
:10072000030E0E6E14C008F015C009F062EC15F04F
:1007300004C014F005C015F0640E0D6E0E6A14C0EE
:1007400008F015C009F062EC15F008C014F009C0FB
:1007500015F0080E14C0DBFF090E15C0DBFF020EFA
:10076000DBCF14F0030EDBCF15F0E80E0D6E030E99
:100770000E6E14C008F015C009F062EC15F004C04C
:1007800014F005C015F0640E0D6E0E6A14C008F06A
:1007900015C009F062EC15F004C014F005C015F0A6
:1007A0000A0E0D6E0E6A14C008F015C009F062EC56
:1007B00015F008C014F009C015F0060E14C0DBFFD8
:1007C000070E15C0DBFF020EDBCF14F0030EDBCFEC
:1007D00015F0E80E0D6E030E0E6E14C008F015C075
:1007E00009F062EC15F004C014F005C015F0640EB9
:1007F0000D6E0E6A14C008F015C009F062EC15F019
:1008000004C014F005C015F00A0E0D6E0E6A14C077
:1008100008F015C009F062EC15F004C014F005C032
:1008200015F0040E14C0DBFF050E15C0DBFF0A0E29
:10083000DBCF14F00B0EDBCF15F0300E1424E66E78
:10084000E5DCE552080EDBCF14F0090EDBCF15F026
:10085000300E1424E66EDADCE552060EDBCF14F01F
:10086000070EDBCF15F0300E1424E66ECFDCE55218
:10087000D9CFE6FFDACFE6FF7EDDE552E552040E82
:10088000DBCF14F0050EDBCF15F0300E1424E66E2E
:10089000BDDCE5520C0EE15C02E2E16AE552E16E7C
:1008A000E552E7CFD9FF1200D9CFE6FFE1CFD9FF5C
:1008B000B886FD0EDB50AF6EAC84AC98AB8E949CCA
:1008C000948EAD6AE552E7CFD9FF1200B898AC8A92
:1008D000AD6A1200D08E9F9A9D8AF28EF28CAB8800
:1008E0009E9AAE6A1200D9CFE6FFE1CFD9FFACA243
:1008F000FED7FE0EDB50AD6EE552E7CFD9FF1200FA
:10090000D9CFE6FFE1CFD9FFFD0EDBCFE9FFFE0E29
:10091000DBCFEAFFEF5010E0FD0EDBCFE9FFFE0E6C
:10092000DBCFEAFFEF50E66EDEDFE552FD0EDB2A9D
:10093000FE0E01E3DB2AE8D7E552E7CFD9FF12002C
:100940009DAAFED7AE5000D01200D9CFE6FFE1CF6E
:10095000D9FFF6DFE66EFD0EDBCFE9FFFE0EDBCF43
:10096000EAFFE552E750EF6EFD0EDBCFE9FFFE0E2A
:10097000DBCFEAFFEF5011E0FD0EDB2AFE0E01E3B4
:10098000DB2ADEDFE66EFD0EDBCFE9FFFE0EDBCFFE
:10099000EAFFE552E750EF6EE7D7E552E7CFD9FF20
:1009A0001200D9CFE6FFE1CFD9FFE652F90EDF6E94
:1009B0009494949292989296929A8988898A938034
:1009C000938293829382F19E0F0E7C6EB4D9060EB1
:1009D000E66E47EC15F0E552DFCFE6FF23EC15F0AD
:1009E000E552DFCFE6FF8AEC14F0E5520FEC00F0A1
:1009F00017EC00F00A0EE66E78EC15F0E552A9DC73
:100A0000010EE66EE66AE66EE66ADADCE552E5526B
:100A1000E552E5522D0EE66E010EE66EACDCE552B7
:100A2000E552020EE66EE66A010EE66EE66AC8DC84
:100A3000E552E552E552E552270EE66E010EE66EEE
:100A40009ADCE552E552000EE66EE66AF4EC14F02C
:100A5000E552E552000EE66EE66AC5EC14F0E5528A
:100A6000E552190EE66EE66A1FDFE552E5522EDF0B
:100A700031DF0A0EE66E78EC15F0E55281B216D041
:100A8000050EE66E78EC15F0E55281B20FD001014B
:100A9000FA2B000EFB23030EFBAF02D0D89003D03D
:100AA000FA5D000EFB5902E3FA6BFB6B0101020ECB
:100AB000FA1901E1FB5101E01BD14BDC010EE66E9E
:100AC000E66AE66EE66A7CDCE552E552E552E552FE
:100AD0003D0EE66E010EE66E4EDCE552E552300E3E
:100AE0000F010A5D0AE0310E0A5D07E0320E0A5D71
:100AF00004E0330E0A5D01E0FBD00A51330A01E144
:100B0000BED0010A01E182D0030A47E0010A10E0E9
:100B1000000EE66EE66AF4EC14F0E552E552000EC3
:100B2000E66EE66AC5EC14F0E552E552AE6AE0D036
:100B300010DC010EE66EE66AE66EE66A41DCE5521E
:100B4000E552E552E552270EE66E010EE66E13DC25
:100B5000E552E552020EE66EE66A010EE66EE66AC0
:100B60002FDCE552E552E552E552080EE66E010E25
:100B7000E66EBBEC01F0E552E552960EE66EE66AD3
:100B8000F4EC14F0E552E552000EE66EE66AC5ECB0
:100B900014F0E552E552AE6AABD0A9EC01F0010EBB
:100BA000E66EE66AE66EE66AE0EC01F0E552E552D2
:100BB000E552E552270EE66E010EE66EBBEC01F043
:100BC000E552E552020EE66EE66A010EE66EE66A50
:100BD000E0EC01F0E552E552E552E552080EE66E12
:100BE000010EE66EBBEC01F0E552E552F90EE66E41
:100BF000E66AF4EC14F0E552E552000EE66EE66AA1
:100C0000C5EC14F0E552E552AE6A72D0A9EC01F0E1
:100C1000010EE66EE66AE66EE66AE0EC01F0E55289
:100C2000E552E552E552270EE66E010EE66EBBEC8C
:100C300001F0E552E552020EE66EE66A010EE66E3E
:100C4000E66AE0EC01F0E552E552E552E552150E98
:100C5000E66E010EE66EBBEC01F0E552E552000EC9
:100C6000E66EE66AF4EC14F0E552E552960EE66E96
:100C7000E66AC5EC14F0E552E552AE6A39D0A9EC4B
:100C800001F0010EE66EE66AE66EE66AE0EC01F05F
:100C9000E552E552E552E552270EE66E010EE66E8C
:100CA000BBEC01F0E552E552020EE66EE66A010E7B
:100CB000E66EE66AE0EC01F0E552E552E552E552F7
:100CC000150EE66E010EE66EBBEC01F0E552E55244
:100CD000000EE66EE66AF4EC14F0E552E552F90E09
:100CE000E66EE66AC5EC14F0E552E552AE6A00D055
:100CF0000101010EFA1901E1FB5117E1AE6AA9ECFD
:100D000001F0010EE66EE66AE66EE66AE0EC01F0DE
:100D1000E552E552E552E552470EE66E010EE66EEB
:100D2000BBEC01F0E552E552C7DBA8D6E552E5522F
:100D3000E7CFD9FF1200D388D38AD39C1200D9CF32
:100D4000E6FFE1CFD9FF020EE126FE0EDB503008B0
:100D500002E1DE6ADD6AFE0EDB50310803E1010EBE
:100D6000DE6EDD6AFE0EDB50320803E1020EDE6E3F
:100D7000DD6AFE0EDB50330803E1030EDE6EDD6A32
:100D8000FE0EDB50340803E1040EDE6EDD6AFE0E5B
:100D9000DB50350803E1050EDE6EDD6AFE0EDB502A
:100DA000360803E1060EDE6EDD6AFE0EDB50370804
:100DB00003E1070EDE6EDD6AFE0EDB50380803E14C
:100DC000080EDE6EDD6AFE0EDB50390803E1090E07
:100DD000DE6EDD6ADECF14F0DDCF15F014C0F3FF58
:100DE00015C0F4FF020EE15C03E200D0E16AE552B7
:100DF000E16EE552E7CFD9FF1200D9CFE6FFE1CF90
:100E0000D9FFE652D950FD0FE96EFF0EDA20EA6EE7
:100E1000EE50ED1002E1300EDF6ED950FD0FE96E9D
:100E2000FF0EDA20EA6E010EEE1801E1ED5002E14C
:100E3000310EDF6ED950FD0FE96EFF0EDA20EA6E3B
:100E4000020EEE1801E1ED5002E1320EDF6ED950D4
:100E5000FD0FE96EFF0EDA20EA6E030EEE1801E1D7
:100E6000ED5002E1330EDF6ED950FD0FE96EFF0E3B
:100E7000DA20EA6E040EEE1801E1ED5002E1340EC4
:100E8000DF6ED950FD0FE96EFF0EDA20EA6E050E17
:100E9000EE1801E1ED5002E1350EDF6ED950FD0F85
:100EA000E96EFF0EDA20EA6E060EEE1801E1ED5053
:100EB00002E1360EDF6ED950FD0FE96EFF0EDA202B
:100EC000EA6E070EEE1801E1ED5002E1370EDF6E1B
:100ED000D950FD0FE96EFF0EDA20EA6E080EEE180B
:100EE00001E1ED5002E1380EDF6ED950FD0FE96EE1
:100EF000FF0EDA20EA6E090EEE1801E1ED5002E174
:100F0000390EDF6ED950FD0FE96EFF0EDA20EA6E62
:100F10000A0EEE1801E1ED5002E1410EDF6ED950EC
:100F2000FD0FE96EFF0EDA20EA6E0B0EEE1801E1FE
:100F3000ED5002E1420EDF6ED950FD0FE96EFF0E5B
:100F4000DA20EA6E0C0EEE1801E1ED5002E1430EDC
:100F5000DF6ED950FD0FE96EFF0EDA20EA6E0D0E3E
:100F6000EE1801E1ED5002E1440EDF6ED950FD0FA5
:100F7000E96EFF0EDA20EA6E0E0EEE1801E1ED507A
:100F800002E1450EDF6ED950FD0FE96EFF0EDA204B
:100F9000EA6E0F0EEE1801E1ED5002E1460EDF6E33
:100FA000D950FD0FE96EFF0EDA20EA6E100EEE1832
:100FB00001E1ED5002E1470EDF6ED950FD0FE96E01
:100FC000FF0EDA20EA6E110EEE1801E1ED5002E19B
:100FD000480EDF6ED950FD0FE96EFF0EDA20EA6E83
:100FE000120EEE1801E1ED5002E1490EDF6EDF5006
:100FF00000D0E552E552E7CFD9FF1200A9EC01F08D
:10100000010EE66EE66AE66EE66AE0EC01F0E55295
:10101000E552E552E552150EE66E010EE66EBBECAA
:1010200001F0E552E552020EE66EE66A010EE66E4A
:10103000E66AE0EC01F0E552E552E552E552230E96
:10104000E66E010EE66EBBEC01F0E552E5520ACF0A
:10105000E6FFAEEC01F0E552020EE66EE66A0B0E1C
:10106000E66EE66AE0EC01F0E552E552E552E55243
:10107000270EE66E010EE66EBBEC01F0E552E5527E
:10108000050EE66E78EC15F0E5520F010A51630A81
:1010900001E1E2D1010A01E1B6D1030A01E18AD1FD
:1010A000580A01E15ED1010A01E132D10F0A01E1E2
:1010B00006D1010A01E1DAD0030A01E1AED0010A4A
:1010C00001E182D0070A57E0010A2CE0030A01E09F
:1010D000F2D10101F66BF76BF73504E2F651010826
:1010E000000EF7551EE36F0EF625E96E010EF7218F
:1010F000EA6EEF50E66EE66AF4EC14F0E552E55263
:101100008986E80EE66E78EC15F0E5528996640E55
:10111000E66E78EC15F0E5520101F62B000EF72390
:10112000DBD7C9D10101F66BF76BF73504E2F65155
:101130000208000EF7551EE3710EF625E96E010E4A
:10114000F721EA6EEF50E66EE66AF4EC14F0E55231
:10115000E5528986E80EE66E78EC15F0E552899640
:10116000640EE66E78EC15F0E5520101F62B000EE8
:10117000F723DBD7A0D10101F66BF76BF73504E25B
:10118000F6510308000EF7551EE3740EF625E96EBE
:10119000010EF721EA6EEF50E66EE66AF4EC14F009
:1011A000E552E5528986E80EE66E78EC15F0E552D8
:1011B0008996640EE66E78EC15F0E5520101F62B87
:1011C000000EF723DBD777D10101F66BF76BF7350C
:1011D00004E2F6510408000EF7551EE3780EF625DA
:1011E000E96E010EF721EA6EEF50E66EE66AF4EC66
:1011F00014F0E552E5528986E80EE66E78EC15F0BB
:10120000E5528996640EE66E78EC15F0E552010120
:10121000F62B000EF723DBD74ED10101F66BF76BEF
:10122000F73504E2F6510508000EF7551EE37D0E72
:10123000F625E96E010EF721EA6EEF50E66EE66ADA
:10124000F4EC14F0E552E5528986E80EE66E78EC8F
:1012500015F0E5528996640EE66E78EC15F0E552CD
:101260000101F62B000EF723DBD725D10101F66B28
:10127000F76BF73504E2F6510608000EF7551EE34A
:10128000830EF625E96E010EF721EA6EEF50E66E49
:10129000E66AF4EC14F0E552E5528986E80EE66E53
:1012A00078EC15F0E5528996640EE66E78EC15F050
:1012B000E5520101F62B000EF723DBD7FCD001012C
:1012C000F66BF76BF73504E2F6510708000EF75599
:1012D0001EE38A0EF625E96E010EF721EA6EEF5045
:1012E000E66EE66AF4EC14F0E552E5528986E80E03
:1012F000E66E78EC15F0E5528996640EE66E78ECB1
:1013000015F0E5520101F62B000EF723DBD7D3D001
:101310000101F66BF76BF73504E2F6510808000E91
:10132000F7551EE3920EF625E96E010EF721EA6EDF
:10133000EF50E66EE66AF4EC14F0E552E552898669
:10134000E80EE66E78EC15F0E5528996640EE66ECE
:1013500078EC15F0E5520101F62B000EF723DBD7F0
:10136000AAD00101F66BF76BF73504E2F6510908D4
:10137000000EF7551EE39B0EF625E96E010EF721D0
:10138000EA6EEF50E66EE66AF4EC14F0E552E552D0
:101390008986E80EE66E78EC15F0E5528996640EC3
:1013A000E66E78EC15F0E5520101F62B000EF723FE
:1013B000DBD781D00101F66BF76BF73504E2F6510C
:1013C0000A08000EF7551EE3A50EF625E96E010E7C
:1013D000F721EA6EEF50E66EE66AF4EC14F0E5529F
:1013E000E5528986E80EE66E78EC15F0E5528996AE
:1013F000640EE66E78EC15F0E5520101F62B000E56
:10140000F723DBD758D00101F66BF76BF73504E211
:10141000F6510F08000EF7551EE3B00EF625E96EE3
:10142000010EF721EA6EEF50E66EE66AF4EC14F076
:10143000E552E5528986E80EE66E78EC15F0E55245
:101440008996640EE66E78EC15F0E5520101F62BF4
:10145000000EF723DBD72FD00101F66BF76BF735C2
:1014600004E2F6511208000EF75524E3F6C1E9FF35
:10147000F7C1EAFFD890E936EA36C00EE926010E38
:10148000EA22EECFE6FFEFCFE6FFF4EC14F0E552F0
:10149000E5528986E80EE66E78EC15F0E5528996FD
:1014A000640EE66E78EC15F0E5520101F62B000EA5
:1014B000F723D5D700D0120081B45CD0050EE66EBC
:1014C00078EC15F0E55281B42CD00101F26BF36B8E
:1014D000F02B000EF123030EF1AF02D0D89003D011
:1014E000F05D000EF15902E3F06BF16BF0C1E9FF22
:1014F000F1C1EAFFD890E936EA36E60EE926010E98
:10150000EA22EECFE6FFEFCFE6FFF4EC14F0E5526F
:10151000E552F2C1E6FFF3C1E6FFC5EC14F0E55277
:10152000E552A9EC01F0010EE66EE66AE66EE66AA7
:10153000E0EC01F0E552E552E552E552270EE66E89
:10154000010EE66EBBEC01F0E552E552020EE66ECE
:10155000E66A010EE66EE66AE0EC01F0E552E5525D
:10156000E552E552080EE66E010EE66EBBEC01F0A8
:10157000E552E55281B65CD0050EE66E78EC15F0CA
:10158000E55281B62CD00101F06BF16BF22B000E0D
:10159000F323030EF3AF02D0D89003D0F25D000E18
:1015A000F35902E3F26BF36BF2C1E9FFF3C1EAFF17
:1015B000D890E936EA36E60EE926010EEA22EECFA9
:1015C000E6FFEFCFE6FFC5EC14F0E552E552F0C1BF
:1015D000E6FFF1C1E6FFF4EC14F0E552E552A9ECA8
:1015E00001F0010EE66EE66AE66EE66AE0EC01F0F6
:1015F000E552E552E552E552270EE66E010EE66E23
:10160000BBEC01F0E552E552020EE66EE66A010E11
:10161000E66EE66AE0EC01F0E552E552E552E5528D
:10162000150EE66E010EE66EBBEC01F0E552E552DA
:101630001200D9CFE6FFE1CFD9FF040EE126DE6A22
:10164000DD6A020EDB6A030EDB6A81B4A4EF12F0DE
:10165000140EE66E78EC15F0E55281B4A4EF12F0AA
:10166000A9EC01F0010EE66EE66AE66EE66AE0ECD1
:1016700001F0E552E552E552E552550EE66E010ED7
:10168000E66EBBEC01F0E552E552020EE66EE66A4C
:10169000010EE66EE66AE0EC01F0E552E552E55235
:1016A000E5524E0EE66E010EE66EBBEC01F0E55221
:1016B000E55281A284D0140EE66E78EC15F0E55266
:1016C00081B640D0140EE66E78EC15F0E55281B686
:1016D00039D01E0EE66E78EC15F0E552020EDB2ACC
:1016E000030E01E3DB2A020EDBCF14F0030EDBCF87
:1016F00015F0D890155004E6040E145C000E155831
:1017000007E3010EF36E020EF3CFDBFF030EDB6A7D
:10171000020EE66EE66A080EE66EE66AE0EC01F09E
:10172000E552E552E552E552020EDBCFE6FF030E2D
:10173000DBCFE6FFFDEC06F0E552E552E66EAEECDF
:1017400001F0E55281B03AD0140EE66E78EC15F057
:10175000E55281B033D01E0EE66E78EC15F0E552FE
:10176000020EDB06030E01E2DB06D950020FE96E22
:10177000DACFEAFFEE50ED1007E1030EF36E020E32
:10178000F3CFDBFF030EDB6A020EE66EE66A080E9D
:10179000E66EE66AE0EC01F0E552E552E552E5520C
:1017A000020EDBCFE6FF030EDBCFE6FFFDEC06F01B
:1017B000E552E552E66EAEEC01F0E5527AD7A9ECBF
:1017C00001F0010EE66EE66AE66EE66AE0EC01F014
:1017D000E552E552E552E552470EE66E010EE66E21
:1017E000BBEC01F0E552E552010EE66EE66A0F0E23
:1017F000E66EE66AE0EC01F0E552E552E552E552AC
:10180000020EDBCFE6FF030EDBCFE6FFFDEC06F0BA
:10181000E552E552E66EAEEC01F0E552020EE66EE0
:10182000E66A010EE66EE66AE0EC01F0E552E5528A
:10183000E552E552080EE66E010EE66EBBEC01F0D5
:10184000E552E552020EDBCF08F0030EDBCF09F0C4
:10185000020E081801E1095001E15BD3010E0818DE
:1018600001E1095002E0A4EF12F081A276D0140E3B
:10187000E66E78EC15F0E55281B636D0140EE66EC1
:1018800078EC15F0E55281B62FD01E0EE66E78EC9E
:1018900015F0E552DF2A010E01E3DB2ADECF14F05A
:1018A000DDCF15F0153404E214501208000E155463
:1018B00003E2120EDE6EDD6A020EE66EE66A0F0EBF
:1018C000E66EE66AE0EC01F0E552E552E552E552DB
:1018D000DECFE6FFDDCFE6FFFDEC06F0E552E55298
:1018E000E66EAEEC01F0E55281B036D0140EE66E35
:1018F00078EC15F0E55281B02FD01E0EE66E78EC34
:1019000015F0E552DF06010E01E2DB06DECF14F032
:10191000DDCF15F0153404E214500008000E155404
:1019200003E3010EDE6EDD6A020EE66EE66A0F0E5E
:10193000E66EE66AE0EC01F0E552E552E552E5526A
:10194000DECFE6FFDDCFE6FFFDEC06F0E552E55227
:10195000E66EAEEC01F0E55288D7A9EC01F0010E7D
:10196000E66EE66AE66EE66AE0EC01F0E552E55204
:10197000E552E552150EE66E010EE66EBBEC01F087
:10198000E552E552020EE66EE66A010EE66EE66A82
:10199000E0EC01F0E552E552E552E552230EE66E29
:1019A000010EE66EBBEC01F0E552E552DECFE6FF3C
:1019B000DDCFE6FFFDEC06F0E552E552E66EAEEC5B
:1019C00001F0E552020EE66EE66A0B0EE66EE66A7E
:1019D000E0EC01F0E552E552E552E552270EE66EE5
:1019E000010EE66EBBEC01F0E552E552050EE66E27
:1019F00078EC15F0E552000EDFCF08F0010EDBCFDA
:101A000009F00C0E081801E1095001E152D20B0E49
:101A1000081801E1095001E124D20A0E081801E179
:101A2000095001E1EDD1090E081801E1095001E169
:101A3000B6D1080E081801E1095001E17FD1070E67
:101A4000081801E1095001E148D1060E081801E12A
:101A5000095001E111D1050E081801E1095001E119
:101A6000DAD0040E081801E1095001E1A3D0030EF9
:101A7000081801E109506DE0020E081801E1095053
:101A800037E0010E081801E1095001E041D20101DF
:101A9000F66BF76BDECF14F0DDCF15F01550F719AC
:101AA000E8AE02D0F73504D0F651145CF751155862
:101AB0001EE36F0EF625E96E010EF721EA6EEF5078
:101AC000E66EE66AF4EC14F0E552E5528986E80E1B
:101AD000E66E78EC15F0E5528996640EE66E78ECC9
:101AE00015F0E5520101F62B000EF723D3D710D2E3
:101AF0000101F66BF76BDECF14F0DDCF15F015505A
:101B0000F719E8AE02D0F73504D0F651145CF7515E
:101B100015581EE3710EF625E96E010EF721EA6EE7
:101B2000EF50E66EE66AF4EC14F0E552E552898671
:101B3000E80EE66E78EC15F0E5528996640EE66ED6
:101B400078EC15F0E5520101F62B000EF723D3D700
:101B5000DFD10101F66BF76BDECF14F0DDCF15F0AE
:101B60001550F719E8AE02D0F73504D0F651145CE1
:101B7000F75115581EE3740EF625E96E010EF72194
:101B8000EA6EEF50E66EE66AF4EC14F0E552E552C8
:101B90008986E80EE66E78EC15F0E5528996640EBB
:101BA000E66E78EC15F0E5520101F62B000EF723F6
:101BB000D3D7AED10101F66BF76BDECF14F0DDCFDA
:101BC00015F01550F719E8AE02D0F73504D0F651EC
:101BD000145CF75115581EE3780EF625E96E010ED8
:101BE000F721EA6EEF50E66EE66AF4EC14F0E55287
:101BF000E5528986E80EE66E78EC15F0E552899696
:101C0000640EE66E78EC15F0E5520101F62B000E3D
:101C1000F723D3D77DD10101F66BF76BDECF14F03C
:101C2000DDCF15F01550F719E8AE02D0F73504D026
:101C3000F651145CF75115581EE37D0EF625E96E3A
:101C4000010EF721EA6EEF50E66EE66AF4EC14F04E
:101C5000E552E5528986E80EE66E78EC15F0E5521D
:101C60008996640EE66E78EC15F0E5520101F62BCC
:101C7000000EF723D3D74CD10101F66BF76BDECF03
:101C800014F0DDCF15F01550F719E8AE02D0F73596
:101C900004D0F651145CF75115581EE3830EF62557
:101CA000E96E010EF721EA6EEF50E66EE66AF4EC9B
:101CB00014F0E552E5528986E80EE66E78EC15F0F0
:101CC000E5528996640EE66E78EC15F0E552010156
:101CD000F62B000EF723D3D71BD10101F66BF76B60
:101CE000DECF14F0DDCF15F01550F719E8AE02D0B5
:101CF000F73504D0F651145CF75115581EE38A0EDF
:101D0000F625E96E010EF721EA6EEF50E66EE66AFF
:101D1000F4EC14F0E552E5528986E80EE66E78ECB4
:101D200015F0E5528996640EE66E78EC15F0E552F2
:101D30000101F62B000EF723D3D7EAD00101F66B91
:101D4000F76BDECF14F0DDCF15F01550F719E8AEC4
:101D500002D0F73504D0F651145CF75115581EE344
:101D6000920EF625E96E010EF721EA6EEF50E66E4F
:101D7000E66AF4EC14F0E552E5528986E80EE66E68
:101D800078EC15F0E5528996640EE66E78EC15F065
:101D9000E5520101F62B000EF723D3D7B9D001018C
:101DA000F66BF76BDECF14F0DDCF15F01550F71999
:101DB000E8AE02D0F73504D0F651145CF75115584F
:101DC0001EE39B0EF625E96E010EF721EA6EEF5039
:101DD000E66EE66AF4EC14F0E552E5528986E80E08
:101DE000E66E78EC15F0E5528996640EE66E78ECB6
:101DF00015F0E5520101F62B000EF723D3D788D05A
:101E00000101F66BF76BDECF14F0DDCF15F0155046
:101E1000F719E8AE02D0F73504D0F651145CF7514B
:101E200015581EE3A50EF625E96E010EF721EA6EA0
:101E3000EF50E66EE66AF4EC14F0E552E55289865E
:101E4000E80EE66E78EC15F0E5528996640EE66EC3
:101E500078EC15F0E5520101F62B000EF723D3D7ED
:101E600057D00101F66BF76BF73504E2F6510F0816
:101E7000000EF7551EE3B00EF625E96E010EF721B0
:101E8000EA6EEF50E66EE66AF4EC14F0E552E552C5
:101E90008986E80EE66E78EC15F0E5528996640EB8
:101EA000E66E78EC15F0E5520101F62B000EF723F3
:101EB000DBD70101F66BF76BF73504E2F651120838
:101EC000000EF75524E3F6C1E9FFF7C1EAFFD89009
:101ED000E936EA36C00EE926010EEA22EECFE6FF29
:101EE000EFCFE6FFF4EC14F0E552E5528986E80EF8
:101EF000E66E78EC15F0E5528996640EE66E78ECA5
:101F000015F0E5520101F62B000EF723D5D700D0CE
:101F10001BD381A26DD081B636D00A0EE66E78EC66
:101F200015F0E55281B62FD0DF2A010E01E3DB2A3E
:101F30001E0EE66E78EC15F0E552DECF14F0DDCF24
:101F400015F0153404E214501208000E155403E283
:101F5000120EDE6EDD6A020EE66EE66A0F0EE66EA9
:101F6000E66AE0EC01F0E552E552E552E552DECFDB
:101F7000E6FFDDCFE6FFFDEC06F0E552E552E66E4A
:101F8000AEEC01F0E55281B032D00A0EE66E78EC8C
:101F900015F0E55281B02BD0DF06010E01E2DB0621
:101FA0001E0EE66E78EC15F0E552DECF14F0DDCFB4
:101FB00015F00001800E151402E0DE6ADD6A020EE3
:101FC000E66EE66A0F0EE66EE66AE0EC01F0E552B8
:101FD000E552E552E552DECFE6FFDDCFE6FFFDEC50
:101FE00006F0E552E552E66EAEEC01F0E55291D70F
:101FF000A9EC01F0010EE66EE66AE66EE66AE0EC38
:1020000001F0E552E552E552E552150EE66E010E7D
:10201000E66EBBEC01F0E552E552020EE66EE66AB2
:10202000010EE66EE66AE0EC01F0E552E552E5529B
:10203000E552230EE66E010EE66EBBEC01F0E552B2
:10204000E552DECFE6FFDDCFE6FFFDEC06F0E55220
:10205000E552E66EAEEC01F0E552020EE66EE66A7F
:102060000B0EE66EE66AE0EC01F0E552E552E55251
:10207000E552270EE66E010EE66EBBEC01F0E5526E
:10208000E552050EE66E78EC15F0E552000EDFCF56
:1020900008F0010EDBCF09F00C0E081801E1095021
:1020A00001E124D20B0E081801E1095001E1F2D13F
:1020B0000A0E081801E1095001E1C0D1090E081803
:1020C00001E1095001E18ED1080E081801E1095023
:1020D00001E15CD1070E081801E1095001E12AD1A4
:1020E000060E081801E1095001E1F8D0050E0818A4
:1020F00001E1095001E1C6D0040E081801E10950C0
:1021000001E194D0030E081801E1095063E0020ECA
:10211000081801E1095032E0010E081801E10950E8
:1021200001E010D20101F66BF76B310EF7AF02D070
:10213000D89003D0F65D000EF75918E2910EE66EC6
:10214000E66AC5EC14F0E552E5528986E80EE66EC3
:1021500078EC15F0E5528996640EE66E78EC15F091
:10216000E5520101F62B000EF723DFD7910EE66E44
:10217000E66AC5EC14F0E552E552E4D10101F66BD4
:10218000F76B3C0EF7AF02D0D89003D0F65D000E8F
:10219000F75918E2920EE66EE66AC5EC14F0E552C5
:1021A000E5528986C80EE66E78EC15F0E552899600
:1021B000640EE66E78EC15F0E5520101F62B000E88
:1021C000F723DFD7910EE66EE66AC5EC14F0E55210
:1021D000E552B8D10101F66BF76B410EF7AF02D0B3
:1021E000D89003D0F65D000EF75918E2920EE66E15
:1021F000E66AC5EC14F0E552E5528986C80EE66E33
:1022000078EC15F0E5528996640EE66E78EC15F0E0
:10221000E5520101F62B000EF723DFD7910EE66E93
:10222000E66AC5EC14F0E552E5528CD10101F66B7B
:10223000F76B310EF7AF02D0D89003D0F65D000EE9
:10224000F75918E2900EE66EE66AC5EC14F0E55216
:10225000E5528986E80EE66E78EC15F0E55289962F
:10226000640EE66E78EC15F0E5520101F62B000ED7
:10227000F723DFD7910EE66EE66AC5EC14F0E5525F
:10228000E55260D10101F66BF76B3C0EF7AF02D05F
:10229000D89003D0F65D000EF75918E2900EE66E66
:1022A000E66AC5EC14F0E552E5528986C80EE66E82
:1022B00078EC15F0E5528996640EE66E78EC15F030
:1022C000E5520101F62B000EF723DFD7910EE66EE3
:1022D000E66AC5EC14F0E552E55234D10101F66B23
:1022E000F76B410EF7AF02D0D89003D0F65D000E29
:1022F000F75918E28F0EE66EE66AC5EC14F0E55267
:10230000E5528986C80EE66E78EC15F0E55289969E
:10231000640EE66E78EC15F0E5520101F62B000E26
:10232000F723DFD7930EE66EE66AC5EC14F0E552AC
:10233000E55208D10101F66BF76B240EF7AF02D01E
:10234000D89003D0F65D000EF75918E28F0EE66EB6
:10235000E66AC5EC14F0E552E5528986C80EE66ED1
:1023600078EC15F0E5528996640EE66E78EC15F07F
:10237000E5520101F62B000EF723DFD78F0EE66E34
:10238000E66AC5EC14F0E552E552DCD00101F66BCB
:10239000F76B240EF7AF02D0D89003D0F65D000E95
:1023A000F75918E2970EE66EE66AC5EC14F0E552AE
:1023B000E5528986E80EE66E78EC15F0E5528996CE
:1023C000640EE66E78EC15F0E5520101F62B000E76
:1023D000F723DFD78F0EE66EE66AC5EC14F0E55200
:1023E000E552B0D00101F66BF76B240EF7AF02D0C7
:1023F000D89003D0F65D000EF75918E2980EE66EFD
:10240000E66AC5EC14F0E552E5528986E80EE66E00
:1024100078EC15F0E5528996640EE66E78EC15F0CE
:10242000E5520101F62B000EF723DFD78F0EE66E83
:10243000E66AC5EC14F0E552E55284D00101F66B72
:10244000F76B240EF7AF02D0D89003D0F65D000EE4
:10245000F75918E2990EE66EE66AC5EC14F0E552FB
:10246000E5528986E80EE66E78EC15F0E55289961D
:10247000640EE66E78EC15F0E5520101F62B000EC5
:10248000F723DFD78F0EE66EE66AC5EC14F0E5524F
:10249000E55258D00101F66BF76B240EF7AF02D06E
:1024A000D89003D0F65D000EF75918E29A0EE66E4A
:1024B000E66AC5EC14F0E552E5528986E80EE66E50
:1024C00078EC15F0E5528996640EE66E78EC15F01E
:1024D000E5520101F62B000EF723DFD78F0EE66ED3
:1024E000E66AC5EC14F0E552E5522CD00101F66B1A
:1024F000F76B240EF7AF02D0D89003D0F65D000E34
:10250000F75918E29B0EE66EE66AC5EC14F0E55248
:10251000E5528986E80EE66E78EC15F0E55289966C
:10252000640EE66E78EC15F0E5520101F62B000E14
:10253000F723DFD78F0EE66EE66AC5EC14F0E5529E
:10254000E55200D001D000D0040EE15C02E2E16A65
:10255000E552E16EE552E7CFD9FF1200DACFE4FF92
:10256000E2CFDAFFE9CFE4FFEACFE4FFF6CFE4FF02
:10257000F7CFE4FFF5CFE4FFF3CFE4FFF4CFE4FFC0
:10258000FACFE4FF00EE00F0140EE80403E3EECF10
:10259000E4FFFBD700EE14F0040EE80403E3EECFF3
:1025A000E4FFFBD7E6529E9AAECF0AFF0ACFE6FFC2
:1025B00073EC04F0E552E55200EE17F0040EE80467
:1025C00003E3E5CFEDFFFBD700EE13F0140EE804B4
:1025D00003E3E5CFEDFFFBD7E5CFFAFFE5CFF4FF4F
:1025E000E5CFF3FFE5CFF5FFE5CFF7FFE5CFF6FF4A
:0E25F000E5CFEAFFE5CFE9FFE5CFDAFF110006
:0225FE00016A70
:102600000DEC14F025EC14F001B6B5EF13F001A2B7
:1026100005D001B8B5EF13F0BCEF13F001AA05D057
:1026200001B0B5EF13F0BCEF13F001B002D001A878
:1026300002D0C8EF13F0056A0F500A24046EE86A4E
:1026400005227E0E045EE86A055A126A136A026A5F
:10265000036A0E500902F4CF03F0F3CF02F00D50DD
:102660000902F3501326F4500222000E03220E50EA
:102670000802F3501326F4500222000E03220C50DD
:102680000902F3501226F4501322000E02220322F4
:102690000D500802F3501226F4501322000E0222AD
:1026A00003220E500702F3501226F4501322000E9C
:1026B000022203220C500802F4501226000E1322AC
:1026C000022203220D500702F4501226000E13229C
:1026D00002220322D1EF13F0006A0EAE72EF13F064
:1026E0000E6C001E09AE77EF13F0096C001EA6EC0D
:1026F00015F009BE81EF13F000AE000C096C056CFB
:10270000000C00BE7EEF13F00188FF0C016A0DEC97
:1027100014F001B690EF13F001A20ED001B405D071
:102720007F0E096EFF0E086E1FD0800E096E086ABC
:102730001BD0096A086A18D001B0FBD78F0E0A6057
:10274000EDD77E0E0A64F5D78E0E0A5C05E0D890B0
:10275000093208320A2AF8D701A406D0086C091EEB
:10276000E86A092209AEE5D712007F0E0A6EFF0E55
:10277000096E086E076E12007F0E01BEFF0E0A6E14
:1027800002D07F0E0A6E800E096E086A076AF3D7C0
:1027900001AE04D0800E0A6E096AF7D70A6A096A88
:1027A000F4D70350021013101210F8E005BEF0D752
:1027B00003BE0CD004500510EBE0D890123613364F
:1027C000023603360406D8A00506F2D70550D4E138
:1027D0000428D2E012AE11D07F0E121402E113A031
:1027E0000CD0132AE86A0222032207E3D8800332BE
:1027F00002321332042A0428BFE00450C9E013C097
:1028000007F002C008F00334096E04300A6E093282
:102810000A9E01BE0A8EBBEF13F009360A3602E3A8
:102820000184017E06E101800A6A096A086A076A72
:1028300012000A2803E0D88009321200D890093229
:1028400002E101821200018612000E360F3602E309
:10285000018C017E06E101880F6A0E6A0D6A0C6A1E
:1028600012000F2803E0D8800E321200D8900E32EA
:06287000EAE1018A1200FA
:0A287600060EF66E000EF76E000E5F
:10288000F86E0F010900F550056F0900F550066F4D
:1028900003E1056701D03DD00900F550006F090044
:1028A000F550016F0900F550026F09000900F5505D
:1028B000E96E0900F550EA6E090009000900F550BB
:1028C000036F0900F550046F09000900F6CF07FFF8
:1028D000F7CF08FFF8CF09FF00CFF6FF01CFF7FFD2
:1028E00002CFF8FF0F01035302E1045307E0090090
:1028F000F550EE6E0307F8E20407F9D707CFF6FFAD
:1029000008CFF7FF09CFF8FF0F010507000E065BA0
:04291000BFD712001B
:0C291400D9CFE6FFDACFE6FFE1CFD9FF14
:10292000E2CFDAFFE652E652E652E652F8CF02F084
:10293000F6CF03F00C0EBA6E050EF66EF76A300E87
:10294000F86E0800F550010B03E0010EDB6802D0C1
:10295000010EDB6A010EDB5002E0949201D09396E7
:10296000CA94FD0EDB50CB6ECA8402C0F8FF03C0D0
:10297000F6FF040EE15C02E2E16AE552E16EE55227
:0A298000E5CFDAFFE7CFD9FF120020
:06298A00D9CFE6FFDACF11
:10299000E6FFE1CFD9FFE2CFDAFFE652E652FC0EC6
:1029A000DBCF14F0FD0EDBCF15F0060ED8901436F9
:1029B0001536E804FBE114C0DEFF15C0DDFF010E93
:1029C000DB50BB6EDF50E840E8403F0B300B146E2D
:1029D000CF0EBA141410BA6EE552E552E552E5CFA7
:0829E000DAFFE7CFD9FF120076
:0829E800D9CFE6FFDACFE6FFCC
:1029F000E1CFD9FFE2CFDAFFE652E652FC0EDBCFA1
:102A000014F0FD0EDBCF15F0060ED89014361536F7
:102A1000E804FBE114C0DEFF15C0DDFF010EDB5052
:102A2000BE6EDF50E840E8403F0B300B146ECF0E17
:102A3000BD141410BD6EE552E552E552E5CFDAFF44
:062A4000E7CFD9FF1200F0
:0A2A4600D9CFE6FFDACFE6FFE1CFBB
:102A5000D9FFE2CFDAFF0C0EBD12CA94FD0EDB5097
:102A6000CB6ECA84E552E5CFDAFFE7CFD9FF12007B
:102A7000B9B09494B9A202D093947F90B9A402D033
:0E2A800093927F94B9A602D093987F9612008D
:022A8E00D9CF9E
:102A9000E6FFDACFE6FFE1CFD9FFE2CFDAFFFD0EA6
:102AA000DB50FB0BCA6ECC6A9E92FD0EDBAE02D0F1
:102AB0009D8201D09D92CA84E552E5CFDAFFE7CF2F
:042AC000D9FF120028
:0C2AC400056A046A100EE76ED890083610
:102AD0000936043605360D50045C0E50055805E3E2
:102AE0000D50045E0E50055A082AE72EF0D712004A
:102AF000FF0EE350186E480E01D04C0EE76EE72E25
:102B0000FED7E76AE72EFED7182EF7D7000012008F
:102B1000600EF36E00EE00F00F0E01D81200EA60B6
:102B200002D0EE6AFCD7F350E9601200EE6AFCD7DF
:102B30001EEE00F02EEE00F0F86A019C3BEC14F063
:0C2B40000AEC00F0D1EC04F0FBD712000E
:042B4C00056A080E00
:102B5000E76ED890093605360E50055C02E3056E27
:082B6000092AE72EF7D7120045
:082B680053657474696E670087
:102B70005475726E696E67204C6566740054757288
:102B80006E696E67205269676874004E203D00537D
:102B90007461727400526F746174696F6E204D6F4E
:102BA000746F722100426C7565746F6F74680042B7
:102BB0007574746F6E004D4F4445203D0053656C35
:102BC000656374206D6F6465005741524E494E47EE
:102BD0002D4552524F52003A8F3A658F3A58728FB4
:102BE0003A5265798F3A4E5E6D7D8F3A4B586572D9
:102BF0007F8F3A4A55606B77828F3A48525C6566A0
:102C00006F798F3A4A5058616A737C858F3A475082
:102C10005860676F787F878F3A434A4E54595F6494
:102C2000696E73787E83898F3A003F0044004900C3
:102C30004D00520056005B005F00640069006E00AA
:102C4000720077007C00810085008B008F000000FF
:102C50009600F900000000000000000000000000E5
:042C60000000000070
:020000040030CA
:0100010008F6
:010002001FDE
:010003001EDE
:0100050001F9
:010006008178
:010008000FE8
:01000900C036
:01000A000FE6
:01000B00E014
:01000C000FE4
:00000001FF
