:020000040000FA
:06000000B2EF01F0120056
:020006000000F8
:08000800949C949A949894963C
:10001000120073D872D87DEF00F06FD8020E71D83D
:10002000020EAEEF00F069D8040E6BD8040EAEEFEE
:1000300000F08BD8030EE126DE6ADD6AFE0EDB38A7
:1000400065D8E8B08B8CE8A08B9C020EDB50020BCD
:10005000E8407F0BE8B08B86E8A08B966FD8E8B0BD
:100060008B88E8A08B985AD8E8B08B8AE8A08B9A46
:10007000010EE66E92EC01F0E552FE0EDB5046D822
:10008000E8B08B8CE8A08B9C020EDB50020BE840A2
:100090007F0BE8B08B86E8A08B9650D8E8B08B88B1
:1000A000E8A08B983BD8E8B08B8AE8A08B9A010E29
:1000B000E66E92EC01F0E552030EE15C02E2E16AC9
:1000C000E552E16E47D041D831D80AE02FD8E66E2C
:1000D000B0DFE552FD0EDB2AFE0EF6E3DB2AF4D795
:1000E00039D033D8FD0EDBCFE6FFFE0EDBCFE6FFC7
:1000F000EADFE552E55297DF2DD0E6689ADFE55258
:1001000012002CD8E66A95DFE55212000F0BE76E5D
:10011000020EE7CFDBFFDB50010B1200020EDB50BB
:10012000080BE840E840E8401F0B1200FD0EDBCF53
:10013000E9FFFE0EDBCFEAFFEF501200020EDB50AC
:10014000040BE840E8403F0B1200D9CFE6FFE1CFB7
:10015000D9FF1200E552E7CFD9FF1200E66E7BEC23
:0601600001F0E55212005F
:0A016600060EF66E000EF76E000E96
:10017000F86E00010900F550656F0900F550666FD3
:1001800003E1656701D03DD00900F550606F0900BB
:10019000F550616F0900F550626F09000900F550D4
:1001A000E96E0900F550EA6E090009000900F550F2
:1001B000636F0900F550646F09000900F6CF67F01E
:1001C000F7CF68F0F8CF69F060C0F6FF61C0F7FFC5
:1001D00062C0F8FF0001635302E1645307E00900C5
:1001E000F550EE6E6307F8E26407F9D767C0F6FFD3
:1001F00068C0F7FF69C0F8FF00016507000E665B85
:04020000BFD7120052
:0C02040037D8AC84B886FD0EDB50AF6E1E
:10021000938A939EAC98AB8EAC8AAD6A9D8AF28E1F
:10022000F28CAB882CD0B898AC8CAC8AAD6A12003A
:100230009D8AF28EF28CAB8812001CD8ACA2FED73D
:10024000FE0EDB50AD6E1BD015D80CD80AE00AD8D4
:10025000E66EF3DFE552FD0EDB2AFE0EF6E3DB2A47
:10026000F4D70DD0FD0EDBCFE9FFFE0EDBCFEAFFAA
:10027000EF501200D9CFE6FFE1CFD9FF1200E552CF
:06028000E7CFD9FF1200D8
:0A028600D9CFE6FFE1CFD9FF100E3B
:10029000E126D9CFE9FFDACFEAFF430EEE6E680E12
:1002A000EE6E750EEE6E200EEE6E540EEE6E720E4B
:1002B000EE6E6F0EEE6E6E0EEE6E670EEE6E200E32
:1002C000EE6E4B0EEE6E680EEE6E610EEE6E6E0E04
:1002D000EE6E680EEE6EEE6A04EC00F00A0EE66E4C
:1002E00092EC01F0E552D9CFE6FFDACFE6FF71ECF0
:0602F00000F0E552F7D713
:0A02F600FF0EE350036EEF0E01D07F
:10030000F30EE76EE72E82EF01F00C0E026EE76A45
:10031000E72E88EF01F0022E87EF01F0032E80EF29
:0403200001F01200D6
:0C032400FF0EE350036E480E01D04C0E9B
:10033000E76EE72EFED7E76AE72EFED7032EF7D744
:0403400000001200A7
:0C034400000EF36E00EE00F0030E01D876
:100350001200EA6002D0EE6AFCD7F350E9601200A6
:04036000EE6AFCD76E
:0C03640011EE00F021EE00F0F86A019CA0
:10037000B3EC00F0C0EC01F043EC01F0FBD712004D
:02038000120069
:020000040030CA
:0100000000FF
:01000100629C
:0100020022DB
:010003001EDE
:01000500807A
:010006008475
:0100080003F4
:01000900C036
:01000A0003F2
:01000B00E014
:01000C0003F0
:01000D0040B2
:00000001FF
