:020000040000FA
:0600000067EF08F012009A
:020006001200E6
:0600080028EF06F01200D3
:02000E000100EF
:0C00100006110000000F0000330000008B
:04001C00929092929A
:1000200092949398939A939C939E1200020EE66E7C
:1000300049D8E552010EE66E47EC08F0E552280E6D
:10004000E66E40D8E552010EE66E47EC08F0E55248
:100050000C0EE66E37D8E552010EE66E47EC08F05E
:10006000E552060EE66E2ED8E552010EE66E47EC1E
:1000700008F0E552010EE66E47EC08F0E55212007A
:10008000D9CFE6FFE1CFD9FF020EE1268984DE6AEF
:10009000DD6ADECF14F0DDCF15F0020E145C000E29
:1000A000155805E2DF2A010EF4E3DB2AF2D7899422
:1000B000020EE15C02E2E16AE552E16EE552E7CF51
:1000C000D9FF1200D9CFE6FFE1CFD9FF020EE1261A
:1000D00089928990FE0EDB380F0BDE6EDD6ADECF73
:1000E00014F0DDCF15F0010E1414E8B08A88E8A0F2
:1000F0008A98DECF14F0DDCF15F0020E1416000E34
:100100001516D890153214321450E8B08A8AE8A037
:100110008A9ADECF14F0DDCF15F0040E1416000E0F
:100120001516D89015321432D89015321432145056
:10013000E8B08A8CE8A08A9CDECF14F0DDCF15F001
:10014000080E1416000E1516030ED8901532143230
:10015000E804FBE11450E8B08A8EE8A08A9E90DFA4
:10016000FE0EDB500F0BDE6EDD6ADECF14F0DDCF4E
:1001700015F0010E1414E8B08A88E8A08A98DECF42
:1001800014F0DDCF15F0020E1416000E1516D890DF
:10019000153214321450E8B08A8AE8A08A9ADECF69
:1001A00014F0DDCF15F0040E1416000E1516D890BD
:1001B00015321432D890153214321450E8B08A8CAB
:1001C000E8A08A9CDECF14F0DDCF15F0080E1416DF
:1001D000000E1516030ED89015321432E804FBE118
:1001E0001450E8B08A8EE8A08A9E4ADF050EE66EBB
:1001F00047EC08F0E552020EE15C02E2E16AE552EA
:10020000E16EE552E7CFD9FF1200D9CFE6FFE1CF8B
:10021000D9FF020EE12689928980FE0EDB380F0B92
:10022000DE6EDD6ADECF14F0DDCF15F0010E1414A2
:10023000E8B08A88E8A08A98DECF14F0DDCF15F008
:10024000020E1416000E1516D890153214321450E2
:10025000E8B08A8AE8A08A9ADECF14F0DDCF15F0E4
:10026000040E1416000E1516D89015321432D890BC
:10027000153214321450E8B08A8CE8A08A9CDECF84
:1002800014F0DDCF15F0080E1416000E1516030E2F
:10029000D89015321432E804FBE11450E8B08A8E8D
:1002A000E8A08A9EEDDEFE0EDB500F0BDE6EDD6AEF
:1002B000DECF14F0DDCF15F0010E1414E8B08A88FB
:1002C000E8A08A98DECF14F0DDCF15F0020E1416E8
:1002D000000E1516D890153214321450E8B08A8AE0
:1002E000E8A08A9ADECF14F0DDCF15F0040E1416C4
:1002F000000E1516D89015321432D89015321432DB
:100300001450E8B08A8CE8A08A9CDECF14F0DDCFD0
:1003100015F0080E1416000E1516030ED89015329F
:100320001432E804FBE11450E8B08A8EE8A08A9EFB
:10033000A7DE050EE66E47EC08F0E552020EE15C22
:1003400002E2E16AE552E16EE552E7CFD9FF120021
:10035000010EE66EB7DEE5521200D9CFE6FFE1CF1F
:10036000D9FFFE0EDBCFE6FF50DFE552E552E7CFC7
:10037000D9FF1200D9CFE6FFE1CFD9FFFD0EDBCFC9
:10038000E9FFFE0EDBCFEAFFEF5015E0FD0EDBCFFD
:10039000E9FFFE0EDBCFEAFFEF50E66E36DFE552F7
:1003A000FD0EDB2AFE0E01E3DB2A020EE66E47ECB1
:1003B00008F0E552E3D7E552E7CFD9FF1200D9CFD5
:1003C000E6FFE1CFD9FF020EE126D950FB0FE96E1F
:1003D000FF0EDA20EA6E010EEE1801E1ED5003E0A7
:1003E000400EDE6E01D0DE6ADD6AFD0EDBCF14F05A
:1003F000FE0EDBCF15F01406000E155AD9CFE9FF1B
:10040000DACFEAFF1450EE261550ED22DECF14F0BD
:10041000DDCF15F0800E1410E66E54DEE552020EAC
:10042000E66E47EC08F0E552020EE15C02E2E16A9A
:10043000E552E16EE552E7CFD9FF1200D9CFE6FFD2
:10044000E1CFD9FF080EE126E80E146E030E156EFB
:10045000FD0EDBCF08F0FE0EDBCF09F014C00DF06F
:1004600015C00EF031EC08F0060E08C0DBFF070ED9
:1004700009C0DBFFFD0EDBCF14F0FE0EDBCF15F065
:10048000E80E0D6E030E0E6E14C008F015C009F0D4
:1004900031EC08F004C014F005C015F0640E0D6EC8
:1004A0000E6A04C008F005C009F031EC08F008C07D
:1004B00014F009C015F0040E08C0DBFF050E09C0DA
:1004C000DBFFFD0EDBCF14F0FE0EDBCF15F0E80EE8
:1004D0000D6E030E0E6E14C008F015C009F031EC5D
:1004E00008F004C014F005C015F0640E0D6E0E6A1D
:1004F00004C008F005C009F031EC08F004C014F0A5
:1005000005C015F00A0E0D6E0E6A04C008F005C095
:1005100009F031EC08F008C014F009C015F0020E23
:1005200008C0DBFF030E09C0DBFFFD0EDBCF14F0BC
:10053000FE0EDBCF15F0E80E0D6E030E0E6E14C02E
:1005400008F015C009F031EC08F004C014F005C043
:1005500015F0640E0D6E0E6A04C008F005C009F0B7
:1005600031EC08F004C014F005C015F00A0E0D6E51
:100570000E6A04C008F005C009F031EC08F004C0B0
:1005800014F005C015F004C0DEFF05C0DDFF060E47
:10059000DBCF14F0070EDBCF15F0300E1424E66E1F
:1005A00034DEE552040EDBCF14F0050EDBCF15F080
:1005B000300E1424E66E29DEE552020EDBCF14F075
:1005C000030EDBCF15F0300E1424E66E1EDEE5526E
:1005D000DECF14F0DDCF15F0300E1424E66E15DEFC
:1005E000E552080EE15C02E2E16AE552E16EE55295
:1005F000E7CFD9FF1200D9CFE6FFE1CFD9FF020E36
:10060000E1260A0E146E0E6EFE0EDBCF09F0B7EC7B
:1006100004F00950DF6EFE0EDBCF14F014C009F0B9
:100620000A0E0E6EB7EC04F0010E05C0DBFFDFCF43
:1006300014F0E76E1418E8AE02D0E73402D0E750A9
:10064000145C05E3300EDF24E66EDFDDE552010EBB
:10065000DB50300FE66ED9DDE552020EE15C02E2BE
:10066000E16AE552E16EE552E7CFD9FF1200D9CF3A
:10067000E6FFE1CFD9FF0C0EE126D9CFE9FFDACFB3
:10068000EAFF2E0EEE6EEE6AFB0EDBCF14F0FC0ED0
:10069000DBCF15F0FD0EDBCF16F0FE0EDBCF17F033
:1006A0000C6A0D6A200E0E6E410E0F6E14C007F01C
:1006B00015C008F016C009F017C00AF04AEC04F0A3
:1006C000D1EC04F0020E08C0DBFF030E09C0DBFF13
:1006D000E80E146E030E156E020EDBCF08F0030E4B
:1006E000DBCF09F014C00DF015C00EF031EC08F0AE
:1006F0000A0E08C0DBFF0B0E09C0DBFF020EDBCFCA
:1007000014F0030EDBCF15F0E80E0D6E030E0E6E27
:1007100014C008F015C009F031EC08F004C014F062
:1007200005C015F0640E0D6E0E6A04C008F005C019
:1007300009F031EC08F008C014F009C015F0080EFB
:1007400008C0DBFF090E09C0DBFF020EDBCF14F08F
:10075000030EDBCF15F0E80E0D6E030E0E6E14C007
:1007600008F015C009F031EC08F004C014F005C021
:1007700015F0640E0D6E0E6A04C008F005C009F095
:1007800031EC08F004C014F005C015F00A0E0D6E2F
:100790000E6A04C008F005C009F031EC08F008C08A
:1007A00014F009C015F0060E08C0DBFF070E09C0E3
:1007B000DBFF020EDBCF14F0030EDBCF15F0E80EEB
:1007C0000D6E030E0E6E14C008F015C009F031EC6A
:1007D00008F004C014F005C015F0640E0D6E0E6A2A
:1007E00004C008F005C009F031EC08F004C014F0B2
:1007F00005C015F00A0E0D6E0E6A04C008F005C0A3
:1008000009F031EC08F004C014F005C015F0040E36
:1008100004C0DBFF050E05C0DBFF0A0EDBCF14F0C2
:100820000B0EDBCF15F0300E1424E66EEEDCE55235
:10083000080EDBCF14F0090EDBCF15F0300E1424B8
:10084000E66EE3DCE552060EDBCF14F0070EDBCFDD
:1008500015F0300E1424E66ED8DCE552D9CFE6FF51
:10086000DACFE6FF87DDE552E552040EDBCF14F068
:10087000050EDBCF15F0300E1424E66EC6DCE55213
:100880000C0EE15C02E2E16AE552E16EE552E7CF6F
:04089000D9FF12007A
:0C089400016A58EC05F070EC05F001B6AC
:1008A00000EF05F001A205D001B800EF05F007EF59
:1008B00005F001AA05D001B000EF05F007EF05F043
:1008C00001B002D001A802D013EF05F0056A0F5065
:1008D0000A24046EE86A05227E0E045EE86A055A60
:1008E000126A136A026A036A0E500902F4CF03F017
:1008F000F3CF02F00D500902F3501326F4500222F8
:10090000000E03220E500802F3501326F450022268
:10091000000E03220C500902F3501226F450132249
:10092000000E022203220D500802F3501226F4504A
:100930001322000E022203220E500702F350122649
:10094000F4501322000E022203220C500802F4502D
:100950001226000E1322022203220D500702F45029
:100960001226000E1322022203221CEF05F0006A59
:100970000EAEBDEF04F00E6C001E09AEC2EF04F027
:10098000096C001E75EC08F009BECCEF04F000AE57
:10099000000C096C056C000C00BEC9EF04F0018866
:1009A000FF0C016A58EC05F001B6DBEF04F001A280
:1009B0000ED001B405D07F0E096EFF0E086E1FD059
:1009C000800E096E086A1BD0096A086A18D001B047
:1009D000FBD78F0E0A60EDD77E0E0A64F5D78E0E18
:1009E0000A5C05E0D890093208320A2AF8D701A437
:1009F00006D0086C091EE86A092209AEE5D7120084
:100A00007F0E0A6EFF0E096E086E076E12007F0ED3
:100A100001BEFF0E0A6E02D07F0E0A6E800E096EB6
:100A2000086A076AF3D701AE04D0800E0A6E096A1D
:100A3000F7D70A6A096AF4D703500210131012108C
:100A4000F8E005BEF0D703BE0CD004500510EBE073
:100A5000D89012361336023603360406D8A005069F
:100A6000F2D70550D4E10428D2E012AE11D07F0EA7
:100A7000121402E113A00CD0132AE86A0222032206
:100A800007E3D880033202321332042A0428BFE07D
:100A90000450C9E013C007F002C008F00334096E27
:100AA00004300A6E09320A9E01BE0A8E06EF05F076
:100AB00009360A3602E30184017E06E101800A6AF2
:100AC000096A086A076A12000A2803E0D880093216
:100AD0001200D890093202E1018212000186120050
:100AE0000E360F3602E3018C017E06E101880F6AA3
:100AF0000E6A0D6A0C6A12000F2803E0D8800E32CD
:0C0B00001200D8900E32EAE1018A1200C7
:040B0C00D388D38A2D
:100B1000D39C120000001200FA0EE66E1AEC08F0E8
:100B2000E552FA0EE66E47EC08F0E55200001200BE
:100B3000F28EF28CF086F090F18CF18A080EF06E55
:100B400012008A90E7DF8A80E7DF81B202D0D58E7B
:100B5000FBD71200D9CFE6FFE1CFD9FFFE0EDB5065
:100B6000D56ED66AD76AF28AF194F28CF28EF28A46
:100B7000F194F294E552E7CFD9FF1200D9CFE6FF06
:100B8000E1CFD9FFE652170EDF6E949494929382D0
:100B900093908A908182F19E0F0E7C6EB7DF060ED5
:100BA000E66EFFEC07F0E552DFCFE6FFD3DFE5525C
:100BB000F90EE66EDBEC07F0E552F90EE66E42EC5C
:100BC00007F0E5520EEC00F016EC00F00A0EE66EAF
:100BD00047EC08F0E552A8EC01F0010EE66EE66A7B
:100BE000E66EE66ADFEC01F0E552E552E552E552C9
:100BF000240EE66E0F0EE66EBAEC01F0E552E552F9
:100C00003A0EE66EE66AACEC07F0E552E5523A0EB3
:100C1000E66EE66A7DEC07F0E552E552190EE66EE7
:100C2000E66A83EC06F0E552E55295EC06F099ECA5
:100C300006F00A0EE66E47EC08F0E552100EE66E7E
:100C40000F0EE66EAEEC06F0E552E552D58EFFD7FC
:100C5000DACFE4FFE2CFDAFFE9CFE4FFEACFE4FF47
:100C6000F6CFE4FFF7CFE4FFF5CFE4FFF3CFE4FFE7
:100C7000F4CFE4FFFACFE4FF00EE00F0140EE80436
:100C800003E3EECFE4FFFBD700EE14F0040EE8041C
:100C900003E3EECFE4FFFBD7E6529EAA0BD09E9A69
:100CA000310EAE5C07E1310EE66EA1EC06F0E552C6
:100CB000A8EC01F0F2A403D0A8EC01F0F294E55204
:100CC00000EE17F0040EE80403E3E5CFEDFFFBD7D9
:100CD00000EE13F0140EE80403E3E5CFEDFFFBD7BD
:100CE000E5CFFAFFE5CFF4FFE5CFF3FFE5CFF5FF62
:100CF000E5CFF7FFE5CFF6FFE5CFEAFFE5CFE9FF68
:060D0000E5CFDAFF11004F
:0A0D0600D9CFE6FFE1CFD9FFB88690
:100D1000FD0EDB50AF6EAC84AC98AB8E949C948E81
:100D2000AD6AE552E7CFD9FF1200B898AC8AAD6A38
:100D300012009F9A9D8AF28EF28CAB889E9AAE6AC0
:100D40001200D9CFE6FFE1CFD9FFACA2FED7FE0E4D
:100D5000DB50AD6EE552E7CFD9FF1200D9CFE6FFE9
:100D6000E1CFD9FFFD0EDBCFE9FFFE0EDBCFEAFFBF
:100D7000EF5010E0FD0EDBCFE9FFFE0EDBCFEAFF08
:100D8000EF50E66EDEDFE552FD0EDB2AFE0EEAE3F3
:100D9000DB2AE8D7E552E7CFD9FF12009DAAFED79C
:100DA000AE501200D9CFE6FFE1CFD9FFF7DFE66EF4
:100DB000FD0EDBCFE9FFFE0EDBCFEAFFE552E75089
:100DC000EF6EFD0EDBCFE9FFFE0EDBCFEAFFEF504B
:100DD00006E0FD0EDB2AFE0EE9E3DB2AE7D7E5524B
:060DE000E7CFD9FF12006D
:0A0DE6000E0EF66E000EF76E000E02
:100DF000F86E0F010900F550386F0900F550396F92
:100E000003E1386701D03DD00900F550336F090088
:100E1000F550346F0900F550356F09000900F550A1
:100E2000E96E0900F550EA6E090009000900F55065
:100E3000366F0900F550376F09000900F6CF3AFF09
:100E4000F7CF3BFFF8CF3CFF33CFF6FF34CFF7FFB0
:100E500035CFF8FF0F01365302E1375307E00900A1
:100E6000F550EE6E3607F8E23707F9D73ACFF6FFBE
:100E70003BCFF7FF3CCFF8FF0F013807000E395B7F
:040E8000BFD71200C6
:0C0E8400D9CFE6FFDACFE6FFE1CFD9FFBF
:100E9000E2CFDAFFE652E652E652E652F8CF02F02F
:100EA000F6CF03F00C0EBA6E050EF66EF76A300E32
:100EB000F86E0800F550010B03E0010EDB6802D06C
:100EC000010EDB6A010EDB5002E0949201D0939692
:100ED000CA94FD0EDB50CB6ECA8402C0F8FF03C07B
:100EE000F6FF040EE15C02E2E16AE552E16EE552D2
:0A0EF000E5CFDAFFE7CFD9FF1200CB
:060EFA00D9CFE6FFDACFBC
:100F0000E6FFE1CFD9FFE2CFDAFFE652E652FC0E70
:100F1000DBCF14F0FD0EDBCF15F0060ED8901436A3
:100F20001536E804FBE114C0DEFF15C0DDFF010E3D
:100F3000DB50BB6EDF50E840E8403F0B300B146ED7
:100F4000CF0EBA141410BA6EE552E552E552E5CF51
:080F5000DAFFE7CFD9FF120020
:080F5800D9CFE6FFDACFE6FF76
:100F6000E1CFD9FFE2CFDAFFE652E652FC0EDBCF4B
:100F700014F0FD0EDBCF15F0060ED89014361536A2
:100F8000E804FBE114C0DEFF15C0DDFF010EDB50FD
:100F9000BE6EDF50E840E8403F0B300B146ECF0EC2
:100FA000BD141410BD6EE552E552E552E5CFDAFFEF
:060FB000E7CFD9FF12009B
:0A0FB600D9CFE6FFDACFE6FFE1CF66
:100FC000D9FFE2CFDAFF0C0EBD12CA94FD0EDB5042
:100FD000CB6ECA84E552E5CFDAFFE7CFD9FF120026
:100FE000B9B09494B9A202D093947F90B9A402D0DE
:0E0FF00093927F94B9A602D093987F96120038
:020FFE00D9CF49
:10100000E6FFDACFE6FFE1CFD9FFE2CFDAFFFD0E50
:10101000DB50FB0BCA6ECC6A9E92FD0EDBAE02D09B
:101020009D8201D09D92CA84E552E5CFDAFFE7CFD9
:04103000D9FF1200D2
:0C103400FF0EE350196EEF0E01D0F30E1A
:10104000E76EE72E21EF08F00C0E186EE76AE72E28
:1010500027EF08F0182E26EF08F0192E1FEF08F0E2
:0210600012007C
:0E106200056A046A100EE76ED890083609364B
:10107000043605360D50045C0E50055805E30D503E
:0E108000045E0E50055A082AE72EF0D7120023
:02108E00FF0E53
:10109000E350196E480E01D04C0EE76EE72EFED7D6
:0E10A000E76AE72EFED7192EF7D700001200E0
:0210AE00600ED2
:1010B000F36E00EE00F00F0E01D81200EA6002D0CD
:0E10C000EE6AFCD7F350E9601200EE6AFCD72E
:0210CE001EEE14
:1010D00000F02EEE00F0F86A019CF3EC06F003EC51
:0A10E00000F0BEEC05F0FBD7120093
:0610EA00056A080EE76E26
:1010F000D890093605360E50055C02E3056E092AC4
:06110000E72EF7D71200F4
:0A1106003A434A4E54595F64696E83
:1011100073787E83898F526164612044657465634E
:1011200074204D6F74696F6E21004465746563743B
:09113000204D6F74696F6E2100FF
:020000040030CA
:0100010008F6
:010002001FDE
:010003001EDE
:0100050001F9
:010006008178
:010008000FE8
:01000900C036
:01000A000FE6
:01000B00E014
:01000C000FE4
:00000001FF
